{
  "contractName": "Faucet",
  "abi": [
    {
      "anonymous": false,
      "inputs": [
        {
          "indexed": false,
          "internalType": "address",
          "name": "Doner",
          "type": "address"
        },
        {
          "indexed": false,
          "internalType": "uint256",
          "name": "amount",
          "type": "uint256"
        }
      ],
      "name": "Fund",
      "type": "event"
    },
    {
      "anonymous": false,
      "inputs": [
        {
          "indexed": false,
          "internalType": "address",
          "name": "Reciever",
          "type": "address"
        },
        {
          "indexed": false,
          "internalType": "uint256",
          "name": "amount",
          "type": "uint256"
        }
      ],
      "name": "Withdraw",
      "type": "event"
    },
    {
      "inputs": [
        {
          "internalType": "address",
          "name": "",
          "type": "address"
        }
      ],
      "name": "hasBeenFunded",
      "outputs": [
        {
          "internalType": "bool",
          "name": "",
          "type": "bool"
        }
      ],
      "stateMutability": "view",
      "type": "function",
      "constant": true
    },
    {
      "stateMutability": "payable",
      "type": "receive",
      "payable": true
    },
    {
      "inputs": [
        {
          "internalType": "address",
          "name": "luckyGuy",
          "type": "address"
        }
      ],
      "name": "getBTOIS",
      "outputs": [],
      "stateMutability": "payable",
      "type": "function",
      "payable": true
    }
  ],
  "bytecode": "0x608060405234801561001057600080fd5b506104a3806100206000396000f3fe60806040526004361061002d5760003560e01c80636094d8161461007257806384b94713146100af5761006d565b3661006d577fda8220a878ff7a89474ccffdaa31ea1ed1ffbb0207d5051afccc4fbaf81f9bcd33346040516100639291906102c5565b60405180910390a1005b600080fd5b34801561007e57600080fd5b506100996004803603810190610094919061031f565b6100cb565b6040516100a69190610367565b60405180910390f35b6100c960048036038101906100c4919061031f565b6100eb565b005b60006020528060005260406000206000915054906101000a900460ff1681565b600015156000808373ffffffffffffffffffffffffffffffffffffffff1673ffffffffffffffffffffffffffffffffffffffff16815260200190815260200160002060009054906101000a900460ff1615151461017d576040517f08c379a0000000000000000000000000000000000000000000000000000000008152600401610174906103df565b60405180910390fd5b60008190508073ffffffffffffffffffffffffffffffffffffffff166108fc662386f26fc100009081150290604051600060405180830381858888f193505050501580156101cf573d6000803e3d6000fd5b5060016000808473ffffffffffffffffffffffffffffffffffffffff1673ffffffffffffffffffffffffffffffffffffffff16815260200190815260200160002060006101000a81548160ff0219169083151502179055507f884edad9ce6fa2440d8a54cc123490eb96d2768479d49ff9c7366125a942436482662386f26fc1000060405161025f929190610444565b60405180910390a15050565b600073ffffffffffffffffffffffffffffffffffffffff82169050919050565b60006102968261026b565b9050919050565b6102a68161028b565b82525050565b6000819050919050565b6102bf816102ac565b82525050565b60006040820190506102da600083018561029d565b6102e760208301846102b6565b9392505050565b600080fd5b6102fc8161028b565b811461030757600080fd5b50565b600081359050610319816102f3565b92915050565b600060208284031215610335576103346102ee565b5b60006103438482850161030a565b91505092915050565b60008115159050919050565b6103618161034c565b82525050565b600060208201905061037c6000830184610358565b92915050565b600082825260208201905092915050565b7f416c72656164792066756e6465642e0000000000000000000000000000000000600082015250565b60006103c9600f83610382565b91506103d482610393565b602082019050919050565b600060208201905081810360008301526103f8816103bc565b9050919050565b6000819050919050565b6000819050919050565b600061042e610429610424846103ff565b610409565b6102ac565b9050919050565b61043e81610413565b82525050565b6000604082019050610459600083018561029d565b6104666020830184610435565b939250505056fea264697066735822122068b639f35ed8ffb1c66945ff9b8c8b9ff6285242fbc0c80b441fb3749a2164b464736f6c63430008110033",
  "immutableReferences": {},
  "source": "// SPDX-License-Identifier: MIT\npragma solidity >0.8.0 <0.9.0;\n\ncontract Faucet {\n\n  event Fund ( address Doner, uint256 amount );\n  event Withdraw ( address Reciever, uint256 amount);\n  \n  mapping (address => bool) public hasBeenFunded;\n\n  receive() external payable{\n    emit Fund(msg.sender, msg.value);\n  } \n\n  function getBTOIS(address luckyGuy) external payable{\n      require (hasBeenFunded[luckyGuy]==false, 'Already funded.');\n      \n      address payable dest = payable(luckyGuy);\n      dest.transfer(10000000 gwei);\n      \n      hasBeenFunded[luckyGuy]=true;\n\n      emit Withdraw(luckyGuy, 10000000000000000);\n  }\n}\n",
  "sourcePath": "/home/batoisc/ethereum/faucet/contracts/Faucet.sol",
  "compiler": {
    "name": "solc",
    "version": "0.8.17+commit.8df45f5f.Emscripten.clang"
  },
  "schemaVersion": "3.4.10",
  "updatedAt": "2023-03-08T10:19:34.631Z",
  "networkType": "ethereum",
  "devdoc": {
    "kind": "dev",
    "methods": {},
    "version": 1
  },
  "userdoc": {
    "kind": "user",
    "methods": {},
    "version": 1
  }
}