{
  "contractName": "UniswapV3Factory",
  "abi": [
    {
      "inputs": [],
      "stateMutability": "nonpayable",
      "type": "constructor"
    },
    {
      "anonymous": false,
      "inputs": [
        {
          "indexed": true,
          "internalType": "uint24",
          "name": "fee",
          "type": "uint24"
        },
        {
          "indexed": true,
          "internalType": "int24",
          "name": "tickSpacing",
          "type": "int24"
        }
      ],
      "name": "FeeAmountEnabled",
      "type": "event"
    },
    {
      "anonymous": false,
      "inputs": [
        {
          "indexed": true,
          "internalType": "address",
          "name": "oldOwner",
          "type": "address"
        },
        {
          "indexed": true,
          "internalType": "address",
          "name": "newOwner",
          "type": "address"
        }
      ],
      "name": "OwnerChanged",
      "type": "event"
    },
    {
      "anonymous": false,
      "inputs": [
        {
          "indexed": true,
          "internalType": "address",
          "name": "token0",
          "type": "address"
        },
        {
          "indexed": true,
          "internalType": "address",
          "name": "token1",
          "type": "address"
        },
        {
          "indexed": true,
          "internalType": "uint24",
          "name": "fee",
          "type": "uint24"
        },
        {
          "indexed": false,
          "internalType": "int24",
          "name": "tickSpacing",
          "type": "int24"
        },
        {
          "indexed": false,
          "internalType": "address",
          "name": "pool",
          "type": "address"
        }
      ],
      "name": "PoolCreated",
      "type": "event"
    },
    {
      "inputs": [
        {
          "internalType": "uint24",
          "name": "",
          "type": "uint24"
        }
      ],
      "name": "feeAmountTickSpacing",
      "outputs": [
        {
          "internalType": "int24",
          "name": "",
          "type": "int24"
        }
      ],
      "stateMutability": "view",
      "type": "function",
      "constant": true
    },
    {
      "inputs": [
        {
          "internalType": "address",
          "name": "",
          "type": "address"
        },
        {
          "internalType": "address",
          "name": "",
          "type": "address"
        },
        {
          "internalType": "uint24",
          "name": "",
          "type": "uint24"
        }
      ],
      "name": "getPool",
      "outputs": [
        {
          "internalType": "address",
          "name": "",
          "type": "address"
        }
      ],
      "stateMutability": "view",
      "type": "function",
      "constant": true
    },
    {
      "inputs": [],
      "name": "owner",
      "outputs": [
        {
          "internalType": "address",
          "name": "",
          "type": "address"
        }
      ],
      "stateMutability": "view",
      "type": "function",
      "constant": true
    },
    {
      "inputs": [],
      "name": "parameters",
      "outputs": [
        {
          "internalType": "address",
          "name": "factory",
          "type": "address"
        },
        {
          "internalType": "address",
          "name": "token0",
          "type": "address"
        },
        {
          "internalType": "address",
          "name": "token1",
          "type": "address"
        },
        {
          "internalType": "uint24",
          "name": "fee",
          "type": "uint24"
        },
        {
          "internalType": "int24",
          "name": "tickSpacing",
          "type": "int24"
        }
      ],
      "stateMutability": "view",
      "type": "function",
      "constant": true
    },
    {
      "inputs": [
        {
          "internalType": "address",
          "name": "tokenA",
          "type": "address"
        },
        {
          "internalType": "address",
          "name": "tokenB",
          "type": "address"
        },
        {
          "internalType": "uint24",
          "name": "fee",
          "type": "uint24"
        }
      ],
      "name": "createPool",
      "outputs": [
        {
          "internalType": "address",
          "name": "pool",
          "type": "address"
        }
      ],
      "stateMutability": "nonpayable",
      "type": "function"
    },
    {
      "inputs": [
        {
          "internalType": "address",
          "name": "_owner",
          "type": "address"
        }
      ],
      "name": "setOwner",
      "outputs": [],
      "stateMutability": "nonpayable",
      "type": "function"
    },
    {
      "inputs": [
        {
          "internalType": "uint24",
          "name": "fee",
          "type": "uint24"
        },
        {
          "internalType": "int24",
          "name": "tickSpacing",
          "type": "int24"
        }
      ],
      "name": "enableFeeAmount",
      "outputs": [],
      "stateMutability": "nonpayable",
      "type": "function"
    }
  ],
  "bytecode": "0x60a060405234801561001057600080fd5b503060601b608052600380546001600160a01b031916339081179091556040516000907fb532073b38c83145e3e5135377a08bf9aab55bc0fd7c1179cd4fb995d2a5159c908290a36101f4600081815260046020527ffb8cf1d12598d1a039dd1d106665851a96aadf67d0d9ed76fceea282119208b7805462ffffff1916600a908117909155604051909291600080516020615fce83398151915291a3610bb8600081815260046020527f72dffa9b822156d9cf4b0090fa0b656bcb9cc2b2c60eb6acfc20a34f54b31743805462ffffff1916603c908117909155604051909291600080516020615fce83398151915291a3612710600081815260046020527f8cc740d51daa94ff54f33bd779c2d20149f524c340519b49181be5a08615f829805462ffffff191660c8908117909155604051909291600080516020615fce83398151915291a360805160601c615e5a610174600039806104725250615e5a6000f3fe608060405234801561001057600080fd5b506004361061006d5760003560e01c806313af4035146100725780631698ee821461008757806322afcccb146100b057806389035730146100d05780638a7c195f146100e95780638da5cb5b146100fc578063a167129514610104575b600080fd5b610085610080366004610608565b610117565b005b61009a610095366004610629565b61018a565b6040516100a791906106c0565b60405180910390f35b6100c36100be36600461066b565b6101b6565b6040516100a7919061070f565b6100d86101cb565b6040516100a79594939291906106d4565b6100856100f7366004610685565b610201565b61009a6102c4565b61009a610112366004610629565b6102d3565b6003546001600160a01b0316331461012e57600080fd5b6003546040516001600160a01b038084169216907fb532073b38c83145e3e5135377a08bf9aab55bc0fd7c1179cd4fb995d2a5159c90600090a3600380546001600160a01b0319166001600160a01b0392909216919091179055565b60056020908152600093845260408085208252928452828420905282529020546001600160a01b031681565b60046020526000908152604090205460020b81565b600054600154600280546001600160a01b03938416939283169281169162ffffff600160a01b83041691600160b81b9004900b85565b6003546001600160a01b0316331461021857600080fd5b620f42408262ffffff161061022c57600080fd5b60008160020b13801561024357506140008160020b125b61024c57600080fd5b62ffffff8216600090815260046020526040902054600290810b900b1561027257600080fd5b62ffffff828116600081815260046020526040808220805462ffffff1916600287900b958616179055517fc66a3fdf07232cdd185febcc6579d408c241b47ae2f9907d84be655141eeaecc9190a35050565b6003546001600160a01b031681565b60006102dd610467565b826001600160a01b0316846001600160a01b031614156102fc57600080fd5b600080846001600160a01b0316866001600160a01b03161061031f578486610322565b85855b90925090506001600160a01b03821661033a57600080fd5b62ffffff8416600090815260046020526040902054600290810b9081900b61036157600080fd5b6001600160a01b0383811660009081526005602090815260408083208685168452825280832062ffffff8a16845290915290205416156103a057600080fd5b6103ad308484888561049e565b6001600160a01b03808516600081815260056020818152604080842089871680865290835281852062ffffff8e168087529084528286208054988a166001600160a01b0319998a16811790915582875294845282862087875284528286208187529093529381902080549096169092179094555193975091927f783cca1c0412dd0d695e784568c96da2e9c22ff989357a2e8b1d9b2b4e6b7118906104559086908a9061071d565b60405180910390a45050509392505050565b306001600160a01b037f0000000000000000000000000000000000000000000000000000000000000000161461049c57600080fd5b565b6040805160a0810182526001600160a01b03878116808352878216602080850182905292881684860181905262ffffff888116606080880182905260028a810b6080998a01819052600080546001600160a01b03199081169099178155600180548a16891790558254909816861762ffffff60a01b1916600160a01b85021762ffffff60b81b1916600160b81b91830b9095160293909317909255875180870194909452838801929092528281019190915285518083039091018152930193849052825192909101919091209091610575906105cc565b8190604051809103906000f5905080158015610595573d6000803e3d6000fd5b50600080546001600160a01b0319908116909155600180549091169055600280546001600160d01b03191690559695505050505050565b6156eb8061073a83390190565b80356001600160a01b03811681146105f057600080fd5b919050565b803562ffffff811681146105f057600080fd5b600060208284031215610619578081fd5b610622826105d9565b9392505050565b60008060006060848603121561063d578182fd5b610646846105d9565b9250610654602085016105d9565b9150610662604085016105f5565b90509250925092565b60006020828403121561067c578081fd5b610622826105f5565b60008060408385031215610697578182fd5b6106a0836105f5565b915060208301358060020b81146106b5578182fd5b809150509250929050565b6001600160a01b0391909116815260200190565b6001600160a01b039586168152938516602085015291909316604083015262ffffff909216606082015260029190910b608082015260a00190565b60029190910b815260200190565b60029290920b82526001600160a01b031660208201526040019056fe6101606040523480156200001257600080fd5b503060601b60805260408051630890357360e41b81529051600091339163890357309160048082019260a092909190829003018186803b1580156200005657600080fd5b505afa1580156200006b573d6000803e3d6000fd5b505050506040513d60a08110156200008257600080fd5b508051602080830151604084015160608086015160809096015160e896871b6001600160e81b0319166101005291811b6001600160601b031990811660e05292811b831660c0529390931b1660a052600282810b900b90921b610120529150620000f79082906200010f811b62002a8b17901c565b60801b6001600160801b03191661014052506200017d565b60008082600281900b620d89e719816200012557fe5b05029050600083600281900b620d89e8816200013d57fe5b0502905060008460020b83830360020b816200015557fe5b0560010190508062ffffff166001600160801b038016816200017357fe5b0495945050505050565b60805160601c60a05160601c60c05160601c60e05160601c6101005160e81c6101205160e81c6101405160801c6154a16200024a60003980611f5b52806149a052806149d7525080610b8852806128475280614a0b5280614a3d525080610c775280611938528061196f528061288f52508061113552806119f25280611e615280612396528061286b5280613cdc52508061085a528061126352806119c15280611dfb52806123105280613b93525080611fe852806121cf5280612823525080612b0252506154a16000f3fe608060405234801561001057600080fd5b506004361061013e5760003560e01c80630dfe168114610143578063128acb08146101675780631a686502146102145780631ad8b03b14610238578063252c09d71461026f57806332148f67146102c65780633850c7bd146102e95780633c8a7d8d1461034257806346141319146103e2578063490e6cbc146103fc5780634f1eb3d814610486578063514ea4bf146104d75780635339c2961461053057806370cf754a146105505780638206a4d11461055857806385b6672914610580578063883bdbfd146105bd578063a34123a7146106c4578063a38807f2146106fe578063c45a015514610759578063d0c93a7c14610761578063d21220a714610780578063ddca3f4314610788578063f3058399146107a8578063f30dba93146107b0578063f637731d14610832575b600080fd5b61014b610858565b604080516001600160a01b039092168252519081900360200190f35b6101fb600480360360a081101561017d57600080fd5b6001600160a01b0382358116926020810135151592604082013592606083013516919081019060a081016080820135600160201b8111156101bd57600080fd5b8201836020820111156101cf57600080fd5b803590602001918460018302840111600160201b831117156101f057600080fd5b50909250905061087c565b6040805192835260208301919091528051918290030190f35b61021c61141b565b604080516001600160801b039092168252519081900360200190f35b61024061142a565b60405180836001600160801b03168152602001826001600160801b031681526020019250505060405180910390f35b61028c6004803603602081101561028557600080fd5b5035611444565b6040805163ffffffff909516855260069390930b60208501526001600160a01b039091168383015215156060830152519081900360800190f35b6102e7600480360360208110156102dc57600080fd5b503561ffff16611489565b005b6102f1611583565b604080516001600160a01b03909816885260029690960b602088015261ffff9485168787015292841660608701529216608085015260ff90911660a0840152151560c0830152519081900360e00190f35b6101fb600480360360a081101561035857600080fd5b6001600160a01b03823516916020810135600290810b92604083013590910b916001600160801b036060820135169181019060a081016080820135600160201b8111156103a457600080fd5b8201836020820111156103b657600080fd5b803590602001918460018302840111600160201b831117156103d757600080fd5b5090925090506115d3565b6103ea61188f565b60408051918252519081900360200190f35b6102e76004803603608081101561041257600080fd5b6001600160a01b038235169160208101359160408201359190810190608081016060820135600160201b81111561044857600080fd5b82018360208201111561045a57600080fd5b803590602001918460018302840111600160201b8311171561047b57600080fd5b509092509050611895565b610240600480360360a081101561049c57600080fd5b506001600160a01b03813516906020810135600290810b91604081013590910b906001600160801b0360608201358116916080013516611cf0565b6104f4600480360360208110156104ed57600080fd5b5035611f0a565b604080516001600160801b0396871681526020810195909552848101939093529084166060840152909216608082015290519081900360a00190f35b6103ea6004803603602081101561054657600080fd5b503560010b611f47565b61021c611f59565b6102e76004803603604081101561056e57600080fd5b5060ff81358116916020013516611f7d565b6102406004803603606081101561059657600080fd5b506001600160a01b03813516906001600160801b0360208201358116916040013516612161565b61062b600480360360208110156105d357600080fd5b810190602081018135600160201b8111156105ed57600080fd5b8201836020820111156105ff57600080fd5b803590602001918460208302840111600160201b8311171561062057600080fd5b50909250905061242e565b604051808060200180602001838103835285818151815260200191508051906020019060200280838360005b8381101561066f578181015183820152602001610657565b50505050905001838103825284818151815260200191508051906020019060200280838360005b838110156106ae578181015183820152602001610696565b5050505090500194505050505060405180910390f35b6101fb600480360360608110156106da57600080fd5b508035600290810b91602081013590910b90604001356001600160801b03166124bb565b6107286004803603604081101561071457600080fd5b508035600290810b9160200135900b612632565b6040805160069490940b84526001600160a01b03909216602084015263ffffffff1682820152519081900360600190f35b61014b612821565b610769612845565b6040805160029290920b8252519081900360200190f35b61014b612869565b61079061288d565b6040805162ffffff9092168252519081900360200190f35b6103ea6128b1565b6107d0600480360360208110156107c657600080fd5b503560020b6128b7565b604080516001600160801b039099168952600f9790970b602089015287870195909552606087019390935260069190910b60808601526001600160a01b031660a085015263ffffffff1660c0840152151560e083015251908190036101000190f35b6102e76004803603602081101561084857600080fd5b50356001600160a01b0316612921565b7f000000000000000000000000000000000000000000000000000000000000000081565b600080610887612af7565b856108be576040805162461bcd60e51b8152602060048201526002602482015261415360f01b604482015290519081900360640190fd5b6040805160e0810182526000546001600160a01b0381168252600160a01b8104600290810b810b900b602083015261ffff600160b81b8204811693830193909352600160c81b810483166060830152600160d81b8104909216608082015260ff600160e81b8304811660a0830152600160f01b909204909116151560c08201819052610977576040805162461bcd60e51b81526020600482015260036024820152624c4f4b60e81b604482015290519081900360640190fd5b876109c25780600001516001600160a01b0316866001600160a01b03161180156109bd575073fffd8963efd1fc6a506488495d951d5263988d266001600160a01b038716105b6109f4565b80600001516001600160a01b0316866001600160a01b03161080156109f457506401000276a36001600160a01b038716115b610a2b576040805162461bcd60e51b815260206004820152600360248201526214d41360ea1b604482015290519081900360640190fd5b6000805460ff60f01b191681556040805160c08101909152808a610a5a5760048460a0015160ff16901c610a6d565b60108460a0015160ff1681610a6b57fe5b065b60ff1681526004546001600160801b03166020820152604001610a8e612b2e565b63ffffffff168152602001600060060b815260200160006001600160a01b031681526020016000151581525090506000808913905060006040518060e001604052808b81526020016000815260200185600001516001600160a01b03168152602001856020015160020b81526020018c610b0a57600254610b0e565b6001545b815260200160006001600160801b0316815260200184602001516001600160801b031681525090505b805115801590610b5d5750886001600160a01b031681604001516001600160a01b031614155b15610f2757610b6a615408565b60408201516001600160a01b031681526060820151610bad906006907f00000000000000000000000000000000000000000000000000000000000000008f612b32565b15156040830152600290810b810b60208301819052620d89e719910b1215610bde57620d89e7196020820152610bfd565b6020810151620d89e860029190910b1315610bfd57620d89e860208201525b610c0a8160200151612c74565b6001600160a01b031660608201526040820151610c9b908d610c44578b6001600160a01b031683606001516001600160a01b031611610c5e565b8b6001600160a01b031683606001516001600160a01b0316105b610c6c578260600151610c6e565b8b5b60c085015185517f0000000000000000000000000000000000000000000000000000000000000000612f9b565b60c085015260a084015260808301526001600160a01b031660408301528215610cfd57610cd18160c0015182608001510161318d565b825103825260a0810151610cf390610ce89061318d565b6020840151906131a3565b6020830152610d38565b610d0a8160a0015161318d565b825101825260c08101516080820151610d3291610d27910161318d565b6020840151906131bf565b60208301525b835160ff1615610d7e576000846000015160ff168260c0015181610d5857fe5b60c0840180519290910491829003905260a0840180519091016001600160801b03169052505b60c08201516001600160801b031615610dbd57610db18160c00151600160801b8460c001516001600160801b03166131d5565b60808301805190910190525b80606001516001600160a01b031682604001516001600160a01b03161415610ee657806040015115610ebd578360a00151610e4757610e25846040015160008760200151886040015188602001518a606001516008613285909695949392919063ffffffff16565b6001600160a01b03166080860152600690810b900b6060850152600160a08501525b6000610e9382602001518e610e5e57600154610e64565b84608001515b8f610e73578560800151610e77565b6002545b608089015160608a015160408b01516005959493929190613417565b90508c15610e9f576000035b610ead8360c00151826134d1565b6001600160801b031660c0840152505b8b610ecc578060200151610ed5565b60018160200151035b600290810b900b6060830152610f21565b80600001516001600160a01b031682604001516001600160a01b031614610f2157610f148260400151613587565b600290810b900b60608301525b50610b37565b836020015160020b816060015160020b14610ff557600080610f7586604001518660400151886020015188602001518a606001518b608001516008613872909695949392919063ffffffff16565b604085015160608601516000805461ffff60c81b1916600160c81b61ffff958616021761ffff60b81b1916600160b81b95909416949094029290921762ffffff60a01b1916600160a01b62ffffff60029490940b9390931692909202919091176001600160a01b0319166001600160a01b039091161790555061101a9050565b6040810151600080546001600160a01b0319166001600160a01b039092169190911790555b8060c001516001600160801b031683602001516001600160801b0316146110605760c0810151600480546001600160801b0319166001600160801b039092169190911790555b8a156110b057608081015160015560a08101516001600160801b0316156110ab5760a0810151600380546001600160801b031981166001600160801b03918216909301169190911790555b6110f6565b608081015160025560a08101516001600160801b0316156110f65760a0810151600380546001600160801b03808216600160801b92839004821690940116029190911790555b8115158b15151461110f57602081015181518b0361111c565b80600001518a0381602001515b90965094508a1561125557600085121561115e5761115e7f00000000000000000000000000000000000000000000000000000000000000008d876000036139f7565b6000611168613b45565b9050336001600160a01b031663fa461e3388888c8c6040518563ffffffff1660e01b815260040180858152602001848152602001806020018281038252848482818152602001925080828437600081840152601f19601f82011690508083019250505095505050505050600060405180830381600087803b1580156111ec57600080fd5b505af1158015611200573d6000803e3d6000fd5b5050505061120c613b45565b6112168289613c7e565b111561124f576040805162461bcd60e51b815260206004820152600360248201526249494160e81b604482015290519081900360640190fd5b5061137f565b600086121561128c5761128c7f00000000000000000000000000000000000000000000000000000000000000008d886000036139f7565b6000611296613c8e565b9050336001600160a01b031663fa461e3388888c8c6040518563ffffffff1660e01b815260040180858152602001848152602001806020018281038252848482818152602001925080828437600081840152601f19601f82011690508083019250505095505050505050600060405180830381600087803b15801561131a57600080fd5b505af115801561132e573d6000803e3d6000fd5b5050505061133a613c8e565b6113448288613c7e565b111561137d576040805162461bcd60e51b815260206004820152600360248201526249494160e81b604482015290519081900360640190fd5b505b60408082015160c083015160608085015184518b8152602081018b90526001600160a01b03948516818701526001600160801b039093169183019190915260020b60808201529151908e169133917fc42079f94a6350d7e6235f29174924f928cc2ac818eb64fed8004e115fbcca679181900360a00190a350506000805460ff60f01b1916600160f01b17905550919890975095505050505050565b6004546001600160801b031681565b6003546001600160801b0380821691600160801b90041682565b60088161ffff811061145557600080fd5b015463ffffffff81169150600160201b810460060b90600160581b81046001600160a01b031690600160f81b900460ff1684565b600054600160f01b900460ff166114cd576040805162461bcd60e51b81526020600482015260036024820152624c4f4b60e81b604482015290519081900360640190fd5b6000805460ff60f01b191690556114e2612af7565b60008054600160d81b900461ffff16906114fe60088385613d26565b6000805461ffff808416600160d81b810261ffff60d81b199093169290921790925591925083161461156b576040805161ffff80851682528316602082015281517fac49e518f90a358f652e4400164f05a5d8f7e35e7747279bc3a93dbf584e125a929181900390910190a15b50506000805460ff60f01b1916600160f01b17905550565b6000546001600160a01b03811690600160a01b810460020b9061ffff600160b81b8204811691600160c81b8104821691600160d81b8204169060ff600160e81b8204811691600160f01b90041687565b600080548190600160f01b900460ff1661161a576040805162461bcd60e51b81526020600482015260036024820152624c4f4b60e81b604482015290519081900360640190fd5b6000805460ff60f01b191690556001600160801b03851661163a57600080fd5b60008061168860405180608001604052808c6001600160a01b031681526020018b60020b81526020018a60020b815260200161167e8a6001600160801b0316613dc9565b600f0b9052613dda565b925092505081935080925060008060008611156116aa576116a7613b45565b91505b84156116bb576116b8613c8e565b90505b336001600160a01b031663d348799787878b8b6040518563ffffffff1660e01b815260040180858152602001848152602001806020018281038252848482818152602001925080828437600081840152601f19601f82011690508083019250505095505050505050600060405180830381600087803b15801561173d57600080fd5b505af1158015611751573d6000803e3d6000fd5b5050505060008611156117a857611766613b45565b6117708388613c7e565b11156117a8576040805162461bcd60e51b815260206004820152600260248201526104d360f41b604482015290519081900360640190fd5b84156117f8576117b6613c8e565b6117c08287613c7e565b11156117f8576040805162461bcd60e51b81526020600482015260026024820152614d3160f01b604482015290519081900360640190fd5b8960020b8b60020b8d6001600160a01b03167f7a53080ba414158be7ec69b987b5fb7d07dee101fe85488f0853ae16239d0bde338d8b8b60405180856001600160a01b03168152602001846001600160801b0316815260200183815260200182815260200194505050505060405180910390a450506000805460ff60f01b1916600160f01b17905550919890975095505050505050565b60025481565b600054600160f01b900460ff166118d9576040805162461bcd60e51b81526020600482015260036024820152624c4f4b60e81b604482015290519081900360640190fd5b6000805460ff60f01b191690556118ee612af7565b6004546001600160801b031680611930576040805162461bcd60e51b81526020600482015260016024820152601360fa1b604482015290519081900360640190fd5b6000611965867f000000000000000000000000000000000000000000000000000000000000000062ffffff16620f424061401a565b9050600061199c867f000000000000000000000000000000000000000000000000000000000000000062ffffff16620f424061401a565b905060006119a8613b45565b905060006119b4613c8e565b905088156119e7576119e77f00000000000000000000000000000000000000000000000000000000000000008b8b6139f7565b8715611a1857611a187f00000000000000000000000000000000000000000000000000000000000000008b8a6139f7565b336001600160a01b031663e9cbafb085858a8a6040518563ffffffff1660e01b815260040180858152602001848152602001806020018281038252848482818152602001925080828437600081840152601f19601f82011690508083019250505095505050505050600060405180830381600087803b158015611a9a57600080fd5b505af1158015611aae573d6000803e3d6000fd5b505050506000611abc613b45565b90506000611ac8613c8e565b905081611ad58588613c7e565b1115611b0d576040805162461bcd60e51b8152602060048201526002602482015261046360f41b604482015290519081900360640190fd5b80611b188487613c7e565b1115611b50576040805162461bcd60e51b8152602060048201526002602482015261463160f01b604482015290519081900360640190fd5b8382038382038115611bdf5760008054600160e81b9004600f16908115611b83578160ff168481611b7d57fe5b04611b86565b60005b90506001600160801b03811615611bb957600380546001600160801b038082168401166001600160801b03199091161790555b611bd3818503600160801b8d6001600160801b03166131d5565b60018054909101905550505b8015611c6a5760008054600160e81b900460041c600f16908115611c0f578160ff168381611c0957fe5b04611c12565b60005b90506001600160801b03811615611c4457600380546001600160801b03600160801b8083048216850182160291161790555b611c5e818403600160801b8d6001600160801b03166131d5565b60028054909101905550505b8d6001600160a01b0316336001600160a01b03167fbdbdb71d7860376ba52b25a5028beea23581364a40522f6bcfb86bb1f2dca6338f8f86866040518085815260200184815260200183815260200182815260200194505050505060405180910390a350506000805460ff60f01b1916600160f01b179055505050505050505050505050565b600080548190600160f01b900460ff16611d37576040805162461bcd60e51b81526020600482015260036024820152624c4f4b60e81b604482015290519081900360640190fd5b6000805460ff60f01b19168155611d516007338989614054565b60038101549091506001600160801b0390811690861611611d725784611d81565b60038101546001600160801b03165b60038201549093506001600160801b03600160801b909104811690851611611da95783611dbf565b6003810154600160801b90046001600160801b03165b91506001600160801b03831615611e24576003810180546001600160801b031981166001600160801b03918216869003821617909155611e24907f0000000000000000000000000000000000000000000000000000000000000000908a9086166139f7565b6001600160801b03821615611e8a576003810180546001600160801b03600160801b808304821686900382160291811691909117909155611e8a907f0000000000000000000000000000000000000000000000000000000000000000908a9085166139f7565b604080516001600160a01b038a1681526001600160801b0380861660208301528416818301529051600288810b92908a900b9133917f70935338e69775456a85ddef226c395fb668b63fa0115f5f20610b388e6ca9c0919081900360600190a4506000805460ff60f01b1916600160f01b17905590969095509350505050565b60076020526000908152604090208054600182015460028301546003909301546001600160801b0392831693919281811691600160801b90041685565b60066020526000908152604090205481565b7f000000000000000000000000000000000000000000000000000000000000000081565b600054600160f01b900460ff16611fc1576040805162461bcd60e51b81526020600482015260036024820152624c4f4b60e81b604482015290519081900360640190fd5b6000805460ff60f01b1916905560408051638da5cb5b60e01b815290516001600160a01b037f00000000000000000000000000000000000000000000000000000000000000001691638da5cb5b916004808301926020929190829003018186803b15801561202e57600080fd5b505afa158015612042573d6000803e3d6000fd5b505050506040513d602081101561205857600080fd5b50516001600160a01b0316331461206e57600080fd5b60ff82161580612091575060048260ff16101580156120915750600a8260ff1611155b80156120bb575060ff811615806120bb575060048160ff16101580156120bb5750600a8160ff1611155b6120c457600080fd5b60008054610ff0600484901b16840160ff908116600160e81b90810260ff60e81b19841617909355919004167f973d8d92bb299f4af6ce49b52a8adb85ae46b9f214c4c4fc06ac77401237b1336010826040805160ff9390920683168252600f600486901c16602083015286831682820152918516606082015290519081900360800190a150506000805460ff60f01b1916600160f01b17905550565b600080548190600160f01b900460ff166121a8576040805162461bcd60e51b81526020600482015260036024820152624c4f4b60e81b604482015290519081900360640190fd5b6000805460ff60f01b1916905560408051638da5cb5b60e01b815290516001600160a01b037f00000000000000000000000000000000000000000000000000000000000000001691638da5cb5b916004808301926020929190829003018186803b15801561221557600080fd5b505afa158015612229573d6000803e3d6000fd5b505050506040513d602081101561223f57600080fd5b50516001600160a01b0316331461225557600080fd5b6003546001600160801b0390811690851611612271578361227e565b6003546001600160801b03165b6003549092506001600160801b03600160801b9091048116908416116122a457826122b8565b600354600160801b90046001600160801b03165b90506001600160801b03821615612339576003546001600160801b03838116911614156122e757600019909101905b600380546001600160801b031981166001600160801b03918216859003821617909155612339907f000000000000000000000000000000000000000000000000000000000000000090879085166139f7565b6001600160801b038116156123bf576003546001600160801b03828116600160801b90920416141561236a57600019015b600380546001600160801b03600160801b8083048216859003821602918116919091179091556123bf907f000000000000000000000000000000000000000000000000000000000000000090879084166139f7565b604080516001600160801b0380851682528316602082015281516001600160a01b0388169233927f596b573906218d3411850b26a6b437d6c4522fdb43d2d2386263f86d50b8b151929081900390910190a36000805460ff60f01b1916600160f01b1790559094909350915050565b606080612439612af7565b6124b0612444612b2e565b858580806020026020016040519081016040528093929190818152602001838360200280828437600092018290525054600454600896959450600160a01b820460020b935061ffff600160b81b8304811693506001600160801b0390911691600160c81b9004166140b3565b915091509250929050565b600080548190600160f01b900460ff16612502576040805162461bcd60e51b81526020600482015260036024820152624c4f4b60e81b604482015290519081900360640190fd5b6000805460ff60f01b1916815560408051608081018252338152600288810b602083015287900b918101919091528190819061255b906060810161254e6001600160801b038a16613dc9565b600003600f0b9052613dda565b925092509250816000039450806000039350600085118061257c5750600084115b156125bb576003830180546001600160801b038082168089018216600160801b93849004831689019092169092029091176001600160801b0319161790555b604080516001600160801b0388168152602081018790528082018690529051600289810b92908b900b9133917f0c396cd989a39f4459b5fa1aed6a9a8dcdbc45908acfd67e028cd568da98982c919081900360600190a450506000805460ff60f01b1916600160f01b179055509094909350915050565b600080600061263f612af7565b612649858561420b565b600285810b810b60009081526005602052604080822087840b90930b825281206003830154600681900b93600160381b82046001600160a01b0316928492600160d81b810463ffffffff169284929091600160f81b900460ff16806126ad57600080fd5b6003820154600681900b9850600160381b81046001600160a01b03169650600160d81b810463ffffffff169450600160f81b900460ff16806126ee57600080fd5b50506040805160e0810182526000546001600160a01b0381168252600160a01b8104600290810b810b810b6020840181905261ffff600160b81b8404811695850195909552600160c81b830485166060850152600160d81b8304909416608084015260ff600160e81b8304811660a0850152600160f01b909204909116151560c08301529093508e810b91900b121590506127975750939094039650900393509003905061281a565b8a60020b816020015160020b121561280b5760006127b3612b2e565b60208301516040840151600454606086015193945060009384936127e9936008938893879392916001600160801b031690613285565b9a9003989098039b50509490960392909203965090910303925061281a915050565b50949093039650039350900390505b9250925092565b7f000000000000000000000000000000000000000000000000000000000000000081565b7f000000000000000000000000000000000000000000000000000000000000000081565b7f000000000000000000000000000000000000000000000000000000000000000081565b7f000000000000000000000000000000000000000000000000000000000000000081565b60015481565b60056020526000908152604090208054600182015460028301546003909301546001600160801b03831693600160801b909304600f0b9290600681900b90600160381b81046001600160a01b031690600160d81b810463ffffffff1690600160f81b900460ff1688565b6000546001600160a01b031615612964576040805162461bcd60e51b8152602060048201526002602482015261414960f01b604482015290519081900360640190fd5b600061296f82613587565b905060008061298761297f612b2e565b6008906142d4565b6040805160e0810182526001600160a01b038816808252600288810b6020808501829052600085870181905261ffff898116606088018190529089166080880181905260a08801839052600160c0909801979097528154600160f01b6001600160a01b0319909116871762ffffff60a01b1916600160a01b62ffffff9787900b97909716969096029590951763ffffffff60b81b1916600160c81b9091021761ffff60d81b1916600160d81b9096029590951761ffff60e81b191692909217909355835191825281019190915281519395509193507f98636036cb66a9c19a37435efc1e90142190214e8abeb821bdba3f2990dd4c9592918290030190a150505050565b60008082600281900b620d89e71981612aa057fe5b05029050600083600281900b620d89e881612ab757fe5b0502905060008460020b83830360020b81612ace57fe5b0560010190508062ffffff166001600160801b03801681612aeb57fe5b0493505050505b919050565b306001600160a01b037f00000000000000000000000000000000000000000000000000000000000000001614612b2c57600080fd5b565b4290565b60008060008460020b8660020b81612b4657fe5b05905060008660020b128015612b6d57508460020b8660020b81612b6657fe5b0760020b15155b15612b7757600019015b8315612bec57600080612b8983614320565b600182810b810b600090815260208d9052604090205460ff83169190911b80016000190190811680151597509294509092509085612bce57888360ff16860302612be1565b88612bd882614332565b840360ff168603025b965050505050612c6a565b600080612bfb83600101614320565b91509150600060018260ff166001901b031990506000818b60008660010b60010b8152602001908152602001600020541690508060001415955085612c4d57888360ff0360ff16866001010102612c63565b8883612c58836143cc565b0360ff168660010101025b9650505050505b5094509492505050565b60008060008360020b12612c8b578260020b612c93565b8260020b6000035b9050620d89e8811115612cd1576040805162461bcd60e51b81526020600482015260016024820152601560fa1b604482015290519081900360640190fd5b600060018216612ce557600160801b612cf7565b6ffffcb933bd6fad37aa2d162d1a5940015b6001600160881b031690506002821615612d21576ffff97272373d413259a46990580e213a0260801c5b6004821615612d40576ffff2e50f5f656932ef12357cf3c7fdcc0260801c5b6008821615612d5f576fffe5caca7e10e4e61c3624eaa0941cd00260801c5b6010821615612d7e576fffcb9843d60f6159c9db58835c9266440260801c5b6020821615612d9d576fff973b41fa98c081472e6896dfb254c00260801c5b6040821615612dbc576fff2ea16466c96a3843ec78b326b528610260801c5b6080821615612ddb576ffe5dee046a99a2a811c461f1969c30530260801c5b610100821615612dfb576ffcbe86c7900a88aedcffc83b479aa3a40260801c5b610200821615612e1b576ff987a7253ac413176f2b074cf7815e540260801c5b610400821615612e3b576ff3392b0822b70005940c7a398e4b70f30260801c5b610800821615612e5b576fe7159475a2c29b7443b29c7fa6e889d90260801c5b611000821615612e7b576fd097f3bdfd2022b8845ad8f792aa58250260801c5b612000821615612e9b576fa9f746462d870fdf8a65dc1f90e061e50260801c5b614000821615612ebb576f70d869a156d2a1b890bb3df62baf32f70260801c5b618000821615612edb576f31be135f97d08fd981231505542fcfa60260801c5b62010000821615612efc576f09aa508b5b7a84e1c677de54f3e99bc90260801c5b62020000821615612f1c576e5d6af8dedb81196699c329225ee6040260801c5b62040000821615612f3b576d2216e584f5fa1ea926041bedfe980260801c5b62080000821615612f58576b048a170391f7dc42444e8fa20260801c5b60008460020b1315612f73578060001981612f6f57fe5b0490505b600160201b810615612f86576001612f89565b60005b60ff16602082901c0192505050919050565b60008080806001600160a01b03808916908a161015818712801590613020576000612fd48989620f42400362ffffff16620f42406131d5565b905082612fed57612fe88c8c8c60016144b5565b612ffa565b612ffa8b8d8c6001614530565b955085811061300b578a965061301a565b6130178c8b83866145db565b96505b5061306a565b81613037576130328b8b8b6000614530565b613044565b6130448a8c8b60006144b5565b93508388600003106130585789955061306a565b6130678b8a8a60000385614627565b95505b6001600160a01b038a81169087161482156130cd578080156130895750815b61309f5761309a878d8c6001614530565b6130a1565b855b95508080156130ae575081155b6130c4576130bf878d8c60006144b5565b6130c6565b845b9450613117565b8080156130d75750815b6130ed576130e88c888c60016144b5565b6130ef565b855b95508080156130fc575081155b6131125761310d8c888c6000614530565b613114565b845b94505b8115801561312757508860000385115b15613133578860000394505b81801561315257508a6001600160a01b0316876001600160a01b031614155b1561316157858903935061317e565b61317b868962ffffff168a620f42400362ffffff1661401a565b93505b50505095509550955095915050565b6000600160ff1b821061319f57600080fd5b5090565b808203828113156000831215146131b957600080fd5b92915050565b818101828112156000831215146131b957600080fd5b600080806000198587098686029250828110908390030390508061320b576000841161320057600080fd5b50829004905061327e565b80841161321757600080fd5b6000848688096000868103871696879004966002600389028118808a02820302808a02820302808a02820302808a02820302808a02820302808a02909103029181900381900460010186841190950394909402919094039290920491909117919091029150505b9392505050565b60008063ffffffff871661332b576000898661ffff1661ffff81106132a657fe5b60408051608081018252919092015463ffffffff808216808452600160201b8304600690810b810b900b6020850152600160581b83046001600160a01b031694840194909452600160f81b90910460ff16151560608301529092508a161461331757613314818a8988614673565b90505b80602001518160400151925092505061340b565b8688036000806133408c8c858c8c8c8c614716565b91509150816000015163ffffffff168363ffffffff16141561337257816020015182604001519450945050505061340b565b805163ffffffff8481169116141561339a57806020015181604001519450945050505061340b565b8151815160208085015190840151918390039286039163ffffffff80841692908516910360060b816133c857fe5b05028460200151018263ffffffff168263ffffffff1686604001518660400151036001600160a01b031602816133fa57fe5b048560400151019650965050505050505b97509795505050505050565b600295860b860b60009081526020979097526040909620600181018054909503909455938301805490920390915560038201805463ffffffff600160d81b6001600160a01b03600160381b808504821690960316909402600160381b600160d81b031990921691909117600681810b90960390950b66ffffffffffffff1666ffffffffffffff199095169490941782810485169095039093160263ffffffff60d81b1990931692909217905554600160801b9004600f0b90565b60008082600f0b121561353657826001600160801b03168260000384039150816001600160801b031610613531576040805162461bcd60e51b81526020600482015260026024820152614c5360f01b604482015290519081900360640190fd5b6131b9565b826001600160801b03168284019150816001600160801b031610156131b9576040805162461bcd60e51b81526020600482015260026024820152614c4160f01b604482015290519081900360640190fd5b60006401000276a36001600160a01b038316108015906135c3575073fffd8963efd1fc6a506488495d951d5263988d266001600160a01b038316105b6135f8576040805162461bcd60e51b81526020600482015260016024820152602960f91b604482015290519081900360640190fd5b600160201b600160c01b03602083901b166001600160801b03811160071b81811c6001600160401b03811160061b90811c63ffffffff811160051b90811c61ffff811160041b90811c60ff8111600390811b91821c600f811160021b90811c918211600190811b92831c9790881196179094179092171790911717176080811061368a57607f810383901c9150613694565b80607f0383901b91505b908002607f81811c60ff83811c9190911c800280831c81831c1c800280841c81841c1c800280851c81851c1c800280861c81861c1c800280871c81871c1c800280881c81881c1c800280891c81891c1c8002808a1c818a1c1c8002808b1c818b1c1c8002808c1c818c1c1c8002808d1c818d1c1c8002808e1c9c81901c9c909c1c80029c8d901c9e9d607f198f0160401b60c09190911c6001603f1b161760c19b909b1c6001603e1b169a909a1760c29990991c6001603d1b169890981760c39790971c6001603c1b169690961760c49590951c6001603b1b169490941760c59390931c6001603a1b169290921760c69190911c600160391b161760c79190911c600160381b161760c89190911c600160371b161760c99190911c600160361b161760ca9190911c600160351b161760cb9190911c600160341b161760cc9190911c600160331b161760cd9190911c600160321b1617693627a301d71055774c8581026f028f6481ab7f045a5af012a19d003aa9198101608090811d906fdb2df09e81959a81455e260799a0632f8301901d600281810b9083900b1461386357886001600160a01b031661384782612c74565b6001600160a01b0316111561385c578161385e565b805b613865565b815b9998505050505050505050565b6000806000898961ffff1661ffff811061388857fe5b60408051608081018252919092015463ffffffff808216808452600160201b8304600690810b810b900b6020850152600160581b83046001600160a01b031694840194909452600160f81b90910460ff1615156060830152909250891614156138f7578885925092505061340b565b8461ffff168461ffff1611801561391857506001850361ffff168961ffff16145b1561392557839150613929565b8491505b8161ffff168960010161ffff168161393d57fe5b06925061394c81898989614673565b8a8461ffff1661ffff811061395d57fe5b825191018054602084015160408501516060909501511515600160f81b026001600160f81b036001600160a01b03909616600160581b02600160581b600160f81b031960069390930b66ffffffffffffff16600160201b0266ffffffffffffff60201b1963ffffffff90971663ffffffff199095169490941795909516929092171692909217929092161790555097509795505050505050565b604080516001600160a01b038481166024830152604480830185905283518084039091018152606490920183526020820180516001600160e01b031663a9059cbb60e01b1781529251825160009485949389169392918291908083835b60208310613a735780518252601f199092019160209182019101613a54565b6001836020036101000a0380198251168184511680821785525050505050509050019150506000604051808303816000865af19150503d8060008114613ad5576040519150601f19603f3d011682016040523d82523d6000602084013e613ada565b606091505b5091509150818015613b08575080511580613b085750808060200190516020811015613b0557600080fd5b50515b613b3e576040805162461bcd60e51b81526020600482015260026024820152612a2360f11b604482015290519081900360640190fd5b5050505050565b604080513060248083019190915282518083039091018152604490910182526020810180516001600160e01b03166370a0823160e01b17815291518151600093849384936001600160a01b037f00000000000000000000000000000000000000000000000000000000000000001693919290918291908083835b60208310613bde5780518252601f199092019160209182019101613bbf565b6001836020036101000a038019825116818451168082178552505050505050905001915050600060405180830381855afa9150503d8060008114613c3e576040519150601f19603f3d011682016040523d82523d6000602084013e613c43565b606091505b5091509150818015613c5757506020815110155b613c6057600080fd5b808060200190516020811015613c7557600080fd5b50519250505090565b808201828110156131b957600080fd5b604080513060248083019190915282518083039091018152604490910182526020810180516001600160e01b03166370a0823160e01b17815291518151600093849384936001600160a01b037f000000000000000000000000000000000000000000000000000000000000000016939192909182919080838360208310613bde5780518252601f199092019160209182019101613bbf565b6000808361ffff1611613d64576040805162461bcd60e51b81526020600482015260016024820152604960f81b604482015290519081900360640190fd5b8261ffff168261ffff1611613d7a57508161327e565b825b8261ffff168161ffff161015613dc0576001858261ffff1661ffff8110613d9f57fe5b01805463ffffffff191663ffffffff92909216919091179055600101613d7c565b50909392505050565b80600f81900b8114612af257600080fd5b6000806000613de7612af7565b613df98460200151856040015161420b565b6040805160e0810182526000546001600160a01b0381168252600160a01b8104600290810b810b900b602080840182905261ffff600160b81b8404811685870152600160c81b84048116606080870191909152600160d81b8504909116608086015260ff600160e81b8504811660a0870152600160f01b909404909316151560c085015288519089015194890151928901519394613e9d9491939092909190614910565b93508460600151600f0b60001461401257846020015160020b816020015160020b1215613ef257613eeb613ed48660200151612c74565b613ee18760400151612c74565b8760600151614ac5565b9250614012565b846040015160020b816020015160020b1215613fe85760045460408201516001600160801b0390911690613f4490613f28612b2e565b6020850151606086015160808701516008949392918791613872565b6000805461ffff60c81b1916600160c81b61ffff938416021761ffff60b81b1916600160b81b939092169290920217905581516040870151613f949190613f8a90612c74565b8860600151614ac5565b9350613fb2613fa68760200151612c74565b83516060890151614b09565b9250613fc28187606001516134d1565b600480546001600160801b0319166001600160801b039290921691909117905550614012565b61400f613ff88660200151612c74565b6140058760400151612c74565b8760600151614b09565b91505b509193909250565b60006140278484846131d5565b90506000828061403357fe5b848609111561327e57600019811061404a57600080fd5b6001019392505050565b6040805160609490941b6001600160601b031916602080860191909152600293840b60e890811b60348701529290930b90911b60378401528051808403601a018152603a90930181528251928201929092206000908152929052902090565b60608060008361ffff16116140f3576040805162461bcd60e51b81526020600482015260016024820152604960f81b604482015290519081900360640190fd5b86516001600160401b038111801561410a57600080fd5b50604051908082528060200260200182016040528015614134578160200160208202803683370190505b50915086516001600160401b038111801561414e57600080fd5b50604051908082528060200260200182016040528015614178578160200160208202803683370190505b50905060005b87518110156141fe576141a98a8a8a848151811061419857fe5b60200260200101518a8a8a8a613285565b8483815181106141b557fe5b602002602001018484815181106141c857fe5b60200260200101826001600160a01b03166001600160a01b03168152508260060b60060b8152505050808060010191505061417e565b5097509795505050505050565b8060020b8260020b1261424b576040805162461bcd60e51b8152602060048201526003602482015262544c5560e81b604482015290519081900360640190fd5b620d89e719600283900b121561428e576040805162461bcd60e51b8152602060048201526003602482015262544c4d60e81b604482015290519081900360640190fd5b620d89e8600282900b13156142d0576040805162461bcd60e51b815260206004820152600360248201526254554d60e81b604482015290519081900360640190fd5b5050565b6040805160808101825263ffffffff9283168082526000602083018190529282019290925260016060909101819052835463ffffffff1916909117909116600160f81b17909155908190565b60020b600881901d9161010090910790565b600080821161434057600080fd5b600160801b821061435357608091821c91015b600160401b821061436657604091821c91015b600160201b821061437957602091821c91015b62010000821061438b57601091821c91015b610100821061439c57600891821c91015b601082106143ac57600491821c91015b600482106143bc57600291821c91015b60028210612af257600101919050565b60008082116143da57600080fd5b5060ff6001600160801b038216156143f557607f19016143fd565b608082901c91505b6001600160401b0382161561441557603f190161441d565b604082901c91505b63ffffffff82161561443257601f190161443a565b602082901c91505b61ffff82161561444d57600f1901614455565b601082901c91505b60ff821615614467576007190161446f565b600882901c91505b600f8216156144815760031901614489565b600482901c91505b600382161561449b57600119016144a3565b600282901c91505b6001821615612af25760001901919050565b6000836001600160a01b0316856001600160a01b031611156144d5579293925b81614502576144fd836001600160801b03168686036001600160a01b0316600160601b6131d5565b614525565b614525836001600160801b03168686036001600160a01b0316600160601b61401a565b90505b949350505050565b6000836001600160a01b0316856001600160a01b03161115614550579293925b600160601b600160e01b03606084901b166001600160a01b03868603811690871661457a57600080fd5b836145aa57866001600160a01b031661459d8383896001600160a01b03166131d5565b816145a457fe5b046145d0565b6145d06145c18383896001600160a01b031661401a565b886001600160a01b0316614b38565b979650505050505050565b600080856001600160a01b0316116145f257600080fd5b6000846001600160801b03161161460857600080fd5b8161461a576144fd8585856001614b43565b6145258585856001614c24565b600080856001600160a01b03161161463e57600080fd5b6000846001600160801b03161161465457600080fd5b81614666576144fd8585856000614c24565b6145258585856000614b43565b61467b615444565b600085600001518503905060405180608001604052808663ffffffff1681526020018263ffffffff168660020b0288602001510160060b81526020016000856001600160801b0316116146cf5760016146d1565b845b6001600160801b031663ffffffff60801b608085901b16816146ef57fe5b048860400151016001600160a01b0316815260200160011515815250915050949350505050565b61471e615444565b614726615444565b888561ffff1661ffff811061473757fe5b60408051608081018252919092015463ffffffff8116808352600160201b8204600690810b810b900b6020840152600160581b82046001600160a01b031693830193909352600160f81b900460ff1615156060820152925061479b90899089614d07565b156147d3578663ffffffff16826000015163ffffffff1614156147bd5761340b565b816147ca83898988614673565b9150915061340b565b888361ffff168660010161ffff16816147e857fe5b0661ffff1661ffff81106147f857fe5b60408051608081018252929091015463ffffffff81168352600160201b8104600690810b810b900b60208401526001600160a01b03600160581b8204169183019190915260ff600160f81b909104161515606082018190529092506148ad57604080516080810182528a5463ffffffff81168252600160201b8104600690810b810b900b6020830152600160581b81046001600160a01b031692820192909252600160f81b90910460ff161515606082015291505b6148bc88836000015189614d07565b6148f3576040805162461bcd60e51b815260206004820152600360248201526213d31160ea1b604482015290519081900360640190fd5b6149008989898887614dc8565b9150915097509795505050505050565b600061491f6007878787614054565b60015460025491925090600080600f87900b15614a65576000614940612b2e565b600080546004549293509091829161498a9160089186918591600160a01b810460020b9161ffff600160b81b83048116926001600160801b0390921691600160c81b900416613285565b90925090506149c460058d8b8d8b8b87898b60007f0000000000000000000000000000000000000000000000000000000000000000614f66565b94506149fb60058c8b8d8b8b87898b60017f0000000000000000000000000000000000000000000000000000000000000000614f66565b93508415614a2f57614a2f60068d7f000000000000000000000000000000000000000000000000000000000000000061511f565b8315614a6157614a6160068c7f000000000000000000000000000000000000000000000000000000000000000061511f565b5050505b600080614a7760058c8c8b8a8a615185565b9092509050614a88878a8484615231565b600089600f0b1215614ab6578315614aa557614aa560058c6153c6565b8215614ab657614ab660058b6153c6565b50505050505095945050505050565b60008082600f0b12614aeb57614ae6614ae18585856001614530565b61318d565b614528565b614afe614ae18585856000036000614530565b600003949350505050565b60008082600f0b12614b2557614ae6614ae185858560016144b5565b614afe614ae185858560000360006144b5565b808204910615150190565b60008115614bb65760006001600160a01b03841115614b7957614b7484600160601b876001600160801b03166131d5565b614b91565b6001600160801b038516606085901b81614b8f57fe5b045b9050614bae614ba96001600160a01b03881683613c7e565b6153f2565b915050614528565b60006001600160a01b03841115614be457614bdf84600160601b876001600160801b031661401a565b614bfb565b614bfb606085901b6001600160801b038716614b38565b905080866001600160a01b031611614c1257600080fd5b6001600160a01b038616039050614528565b600082614c32575083614528565b600160601b600160e01b03606085901b168215614cc0576001600160a01b03861684810290858281614c6057fe5b041415614c9157818101828110614c8f57614c8583896001600160a01b03168361401a565b9350505050614528565b505b614cb782614cb2878a6001600160a01b03168681614cab57fe5b0490613c7e565b614b38565b92505050614528565b6001600160a01b03861684810290858281614cd757fe5b04148015614ce457508082115b614ced57600080fd5b808203614c85614ba9846001600160a01b038b168461401a565b60008363ffffffff168363ffffffff1611158015614d3157508363ffffffff168263ffffffff1611155b15614d4d578163ffffffff168363ffffffff161115905061327e565b60008463ffffffff168463ffffffff1611614d74578363ffffffff16600160201b01614d7c565b8363ffffffff165b64ffffffffff16905060008563ffffffff168463ffffffff1611614dac578363ffffffff16600160201b01614db4565b8363ffffffff165b64ffffffffff169091111595945050505050565b614dd0615444565b614dd8615444565b60008361ffff168560010161ffff1681614dee57fe5b0661ffff169050600060018561ffff16830103905060005b506002818301048961ffff87168281614e1b57fe5b0661ffff8110614e2757fe5b60408051608081018252929091015463ffffffff81168352600160201b8104600690810b810b900b60208401526001600160a01b03600160581b8204169183019190915260ff600160f81b90910416151560608201819052909550614e9157806001019250614e06565b898661ffff168260010181614ea257fe5b0661ffff8110614eae57fe5b60408051608081018252929091015463ffffffff81168352600160201b8104600690810b810b900b60208401526001600160a01b03600160581b8204169183019190915260ff600160f81b90910416151560608201528551909450600090614f18908b908b614d07565b9050808015614f315750614f318a8a8760000151614d07565b15614f3c5750614f59565b80614f4c57600182039250614f53565b8160010193505b50614e06565b5050509550959350505050565b60028a810b900b600090815260208c90526040812080546001600160801b031682614f91828d6134d1565b9050846001600160801b0316816001600160801b03161115614fdf576040805162461bcd60e51b81526020600482015260026024820152614c4f60f01b604482015290519081900360640190fd5b6001600160801b038281161590821615811415945015615084578c60020b8e60020b1361506c57600183018b9055600283018a9055600383018054600160381b600160d81b031916600160381b6001600160a01b038c16021766ffffffffffffff191666ffffffffffffff60068b900b161763ffffffff60d81b1916600160d81b63ffffffff8a16021790555b6003830180546001600160f81b0316600160f81b1790555b82546001600160801b0319166001600160801b038216178355856150cd5782546150c8906150c390600160801b9004600f90810b810b908f900b6131bf565b613dc9565b6150ee565b82546150ee906150c390600160801b9004600f90810b810b908f900b6131a3565b8354600f9190910b6001600160801b03908116600160801b0291161790925550909c9b505050505050505050505050565b8060020b8260020b8161512e57fe5b0760020b1561513c57600080fd5b6000806151578360020b8560020b8161515157fe5b05614320565b600191820b820b60009081526020979097526040909620805460ff9097169190911b90951890945550505050565b600285810b80820b60009081526020899052604080822088850b850b83529082209193849391929184918291908a900b126151cb575050600182015460028301546151de565b8360010154880391508360020154870390505b6000808b60020b8b60020b121561520057505060018301546002840154615213565b84600101548a0391508460020154890390505b92909803979097039b96909503949094039850939650505050505050565b6040805160a08101825285546001600160801b0390811682526001870154602083015260028701549282019290925260038601548083166060830152600160801b900490911660808201526000600f85900b6152d05781516001600160801b03166152c8576040805162461bcd60e51b815260206004820152600260248201526104e560f41b604482015290519081900360640190fd5b5080516152df565b81516152dc90866134d1565b90505b60006153038360200151860384600001516001600160801b0316600160801b6131d5565b905060006153298460400151860385600001516001600160801b0316600160801b6131d5565b905086600f0b6000146153505787546001600160801b0319166001600160801b0384161788555b60018801869055600288018590556001600160801b03821615158061537e57506000816001600160801b0316115b156153bc576003880180546001600160801b031981166001600160801b039182168501821617808216600160801b9182900483168501909216021790555b5050505050505050565b600290810b810b6000908152602092909252604082208281556001810183905590810182905560030155565b806001600160a01b0381168114612af257600080fd5b6040805160e081018252600080825260208201819052918101829052606081018290526080810182905260a0810182905260c081019190915290565b6040805160808101825260008082526020820181905291810182905260608101919091529056fea2646970667358221220973322e6fab6821c8a0c6c9b053d753a3802932c8e5afcd22a3bbcdaa5704a5f64736f6c63430007060033a264697066735822122069aac2091c002513185726155a7a2566bf6ba191b9af3ba489c164f11d94d5ed64736f6c63430007060033c66a3fdf07232cdd185febcc6579d408c241b47ae2f9907d84be655141eeaecc",
  "immutableReferences": {
    "38": [
      {
        "length": 32,
        "start": 1138
      }
    ]
  },
  "source": "// SPDX-License-Identifier: BUSL-1.1\npragma solidity =0.7.6;\npragma abicoder v2;\n\nimport './interfaces/IUniswapV3Factory.sol';\n\nimport './UniswapV3PoolDeployer.sol';\nimport './NoDelegateCall.sol';\n\nimport './UniswapV3Pool.sol';\n\n/// @title Canonical Uniswap V3 factory\n/// @notice Deploys Uniswap V3 pools and manages ownership and control over pool protocol fees\ncontract UniswapV3Factory is IUniswapV3Factory, UniswapV3PoolDeployer, NoDelegateCall {\n    /// @inheritdoc IUniswapV3Factory\n    address public override owner;\n\n    /// @inheritdoc IUniswapV3Factory\n    mapping(uint24 => int24) public override feeAmountTickSpacing;\n    /// @inheritdoc IUniswapV3Factory\n    mapping(address => mapping(address => mapping(uint24 => address))) public override getPool;\n\n    constructor() {\n        owner = msg.sender;\n        emit OwnerChanged(address(0), msg.sender);\n\n        feeAmountTickSpacing[500] = 10;\n        emit FeeAmountEnabled(500, 10);\n        feeAmountTickSpacing[3000] = 60;\n        emit FeeAmountEnabled(3000, 60);\n        feeAmountTickSpacing[10000] = 200;\n        emit FeeAmountEnabled(10000, 200);\n    }\n\n    /// @inheritdoc IUniswapV3Factory\n    function createPool(\n        address tokenA,\n        address tokenB,\n        uint24 fee\n    ) external override noDelegateCall returns (address pool) {\n        require(tokenA != tokenB);\n        (address token0, address token1) = tokenA < tokenB ? (tokenA, tokenB) : (tokenB, tokenA);\n        require(token0 != address(0));\n        int24 tickSpacing = feeAmountTickSpacing[fee];\n        require(tickSpacing != 0);\n        require(getPool[token0][token1][fee] == address(0));\n        pool = deploy(address(this), token0, token1, fee, tickSpacing);\n        getPool[token0][token1][fee] = pool;\n        // populate mapping in the reverse direction, deliberate choice to avoid the cost of comparing addresses\n        getPool[token1][token0][fee] = pool;\n        emit PoolCreated(token0, token1, fee, tickSpacing, pool);\n    }\n\n    /// @inheritdoc IUniswapV3Factory\n    function setOwner(address _owner) external override {\n        require(msg.sender == owner);\n        emit OwnerChanged(owner, _owner);\n        owner = _owner;\n    }\n\n    /// @inheritdoc IUniswapV3Factory\n    function enableFeeAmount(uint24 fee, int24 tickSpacing) public override {\n        require(msg.sender == owner);\n        require(fee < 1000000);\n        // tick spacing is capped at 16384 to prevent the situation where tickSpacing is so large that\n        // TickBitmap#nextInitializedTickWithinOneWord overflows int24 container from a valid tick\n        // 16384 ticks represents a >5x price change with ticks of 1 bips\n        require(tickSpacing > 0 && tickSpacing < 16384);\n        require(feeAmountTickSpacing[fee] == 0);\n\n        feeAmountTickSpacing[fee] = tickSpacing;\n        emit FeeAmountEnabled(fee, tickSpacing);\n    }\n}\n",
  "sourcePath": "/home/gtbc/blockchain/ethereum/uniswap/v3-core/contracts/UniswapV3Factory.sol",
  "compiler": {
    "name": "solc",
    "version": "0.7.6+commit.7338295f.Emscripten.clang"
  },
  "schemaVersion": "3.4.10",
  "updatedAt": "2023-07-05T18:45:41.488Z",
  "networkType": "ethereum",
  "devdoc": {
    "kind": "dev",
    "methods": {
      "createPool(address,address,uint24)": {
        "details": "tokenA and tokenB may be passed in either order: token0/token1 or token1/token0. tickSpacing is retrieved from the fee. The call will revert if the pool already exists, the fee is invalid, or the token arguments are invalid.",
        "params": {
          "fee": "The desired fee for the pool",
          "tokenA": "One of the two tokens in the desired pool",
          "tokenB": "The other of the two tokens in the desired pool"
        },
        "returns": {
          "pool": "The address of the newly created pool"
        }
      },
      "enableFeeAmount(uint24,int24)": {
        "details": "Fee amounts may never be removed once enabled",
        "params": {
          "fee": "The fee amount to enable, denominated in hundredths of a bip (i.e. 1e-6)",
          "tickSpacing": "The spacing between ticks to be enforced for all pools created with the given fee amount"
        }
      },
      "setOwner(address)": {
        "details": "Must be called by the current owner",
        "params": {
          "_owner": "The new owner of the factory"
        }
      }
    },
    "stateVariables": {
      "feeAmountTickSpacing": {
        "details": "A fee amount can never be removed, so this value should be hard coded or cached in the calling context",
        "params": {
          "fee": "The enabled fee, denominated in hundredths of a bip. Returns 0 in case of unenabled fee"
        },
        "return": "The tick spacing"
      },
      "getPool": {
        "details": "tokenA and tokenB may be passed in either token0/token1 or token1/token0 order",
        "params": {
          "fee": "The fee collected upon every swap in the pool, denominated in hundredths of a bip",
          "tokenA": "The contract address of either token0 or token1",
          "tokenB": "The contract address of the other token"
        },
        "return": "pool The pool address"
      },
      "owner": {
        "details": "Can be changed by the current owner via setOwner",
        "return": "The address of the factory owner"
      }
    },
    "title": "Canonical Uniswap V3 factory",
    "version": 1
  },
  "userdoc": {
    "events": {
      "FeeAmountEnabled(uint24,int24)": {
        "notice": "Emitted when a new fee amount is enabled for pool creation via the factory"
      },
      "OwnerChanged(address,address)": {
        "notice": "Emitted when the owner of the factory is changed"
      },
      "PoolCreated(address,address,uint24,int24,address)": {
        "notice": "Emitted when a pool is created"
      }
    },
    "kind": "user",
    "methods": {
      "createPool(address,address,uint24)": {
        "notice": "Creates a pool for the given two tokens and fee"
      },
      "enableFeeAmount(uint24,int24)": {
        "notice": "Enables a fee amount with the given tickSpacing"
      },
      "feeAmountTickSpacing(uint24)": {
        "notice": "Returns the tick spacing for a given fee amount, if enabled, or 0 if not enabled"
      },
      "getPool(address,address,uint24)": {
        "notice": "Returns the pool address for a given pair of tokens and a fee, or address 0 if it does not exist"
      },
      "owner()": {
        "notice": "Returns the current owner of the factory"
      },
      "parameters()": {
        "notice": "Get the parameters to be used in constructing the pool, set transiently during pool creation."
      },
      "setOwner(address)": {
        "notice": "Updates the owner of the factory"
      }
    },
    "notice": "Deploys Uniswap V3 pools and manages ownership and control over pool protocol fees",
    "version": 1
  }
}