{
  "contractName": "Logic",
  "abi": [
    {
      "inputs": [],
      "stateMutability": "payable",
      "type": "constructor",
      "payable": true
    },
    {
      "inputs": [],
      "name": "owner",
      "outputs": [
        {
          "internalType": "address",
          "name": "",
          "type": "address"
        }
      ],
      "stateMutability": "view",
      "type": "function",
      "constant": true
    },
    {
      "stateMutability": "payable",
      "type": "receive",
      "payable": true
    },
    {
      "inputs": [],
      "name": "withdraw",
      "outputs": [],
      "stateMutability": "nonpayable",
      "type": "function"
    },
    {
      "inputs": [
        {
          "internalType": "bytes32",
          "name": "_secret",
          "type": "bytes32"
        }
      ],
      "name": "claim",
      "outputs": [],
      "stateMutability": "payable",
      "type": "function",
      "payable": true
    }
  ],
  "bytecode": "0x60806040527f62347430315f356d3472375f636834316e5f6337665f49000000000000000000600155336000806101000a81548173ffffffffffffffffffffffffffffffffffffffff021916908373ffffffffffffffffffffffffffffffffffffffff16021790555061027a806100776000396000f3fe608060405260043610610055576000357c0100000000000000000000000000000000000000000000000000000000900480633ccfd60b146100615780638da5cb5b14610078578063bd66528a146100cf5761005c565b3661005c57005b600080fd5b34801561006d57600080fd5b506100766100fd565b005b34801561008457600080fd5b5061008d6101bc565b604051808273ffffffffffffffffffffffffffffffffffffffff1673ffffffffffffffffffffffffffffffffffffffff16815260200191505060405180910390f35b6100fb600480360360208110156100e557600080fd5b81019080803590602001909291905050506101e1565b005b6000809054906101000a900473ffffffffffffffffffffffffffffffffffffffff1673ffffffffffffffffffffffffffffffffffffffff163373ffffffffffffffffffffffffffffffffffffffff161461015657600080fd5b60003390508073ffffffffffffffffffffffffffffffffffffffff166108fc3073ffffffffffffffffffffffffffffffffffffffff16319081150290604051600060405180830381858888f193505050501580156101b8573d6000803e3d6000fd5b5050565b6000809054906101000a900473ffffffffffffffffffffffffffffffffffffffff1681565b66b1a2bc2ec50000341480156101f8575060015481145b61020157600080fd5b336000806101000a81548173ffffffffffffffffffffffffffffffffffffffff021916908373ffffffffffffffffffffffffffffffffffffffff1602179055505056fea2646970667358221220cb5435a4bcdb2ad6e7b30fdd9abacb600eba52f57c1628776169afc0f93954bc64736f6c63430006010033",
  "source": "// SPDX-License-Identifier: MIT\npragma solidity = 0.6.1;\n\ncontract Logic {\n    address public owner;\n    bytes32 private passphrase = \"b4t01_5m4r7_ch41n_c7f_I\";\n    \n    constructor() public payable {\n        owner = msg.sender;  \n    }\n\n    receive() external payable{    }\n    \n    function withdraw() public {\n        require(msg.sender == owner);\n        address payable imrich = payable(msg.sender);\n        imrich.transfer( address(this).balance );\n    }\n\n    function claim(bytes32 _secret) public payable {\n        require(msg.value == 0.05 ether && _secret == passphrase);\n        owner = msg.sender;\n    }\n}\n\n",
  "sourcePath": "/home/batoisc/ethereum/ctf1/contracts/Logic.sol",
  "compiler": {
    "name": "solc",
    "version": "0.6.1+commit.e6f7d5a4.Emscripten.clang"
  },
  "schemaVersion": "3.4.10",
  "updatedAt": "2023-03-09T13:21:32.873Z",
  "networkType": "ethereum",
  "devdoc": {
    "methods": {}
  },
  "userdoc": {
    "methods": {}
  }
}