{
  "contractName": "MixedRouteQuoterV1",
  "abi": [
    {
      "inputs": [
        {
          "internalType": "address",
          "name": "_factory",
          "type": "address"
        },
        {
          "internalType": "address",
          "name": "_factoryV2",
          "type": "address"
        },
        {
          "internalType": "address",
          "name": "_WETH9",
          "type": "address"
        }
      ],
      "stateMutability": "nonpayable",
      "type": "constructor"
    },
    {
      "inputs": [],
      "name": "WETH9",
      "outputs": [
        {
          "internalType": "address",
          "name": "",
          "type": "address"
        }
      ],
      "stateMutability": "view",
      "type": "function",
      "constant": true
    },
    {
      "inputs": [],
      "name": "factory",
      "outputs": [
        {
          "internalType": "address",
          "name": "",
          "type": "address"
        }
      ],
      "stateMutability": "view",
      "type": "function",
      "constant": true
    },
    {
      "inputs": [],
      "name": "factoryV2",
      "outputs": [
        {
          "internalType": "address",
          "name": "",
          "type": "address"
        }
      ],
      "stateMutability": "view",
      "type": "function",
      "constant": true
    },
    {
      "inputs": [
        {
          "internalType": "int256",
          "name": "amount0Delta",
          "type": "int256"
        },
        {
          "internalType": "int256",
          "name": "amount1Delta",
          "type": "int256"
        },
        {
          "internalType": "bytes",
          "name": "path",
          "type": "bytes"
        }
      ],
      "name": "uniswapV3SwapCallback",
      "outputs": [],
      "stateMutability": "view",
      "type": "function",
      "constant": true
    },
    {
      "inputs": [
        {
          "components": [
            {
              "internalType": "address",
              "name": "tokenIn",
              "type": "address"
            },
            {
              "internalType": "address",
              "name": "tokenOut",
              "type": "address"
            },
            {
              "internalType": "uint256",
              "name": "amountIn",
              "type": "uint256"
            },
            {
              "internalType": "uint24",
              "name": "fee",
              "type": "uint24"
            },
            {
              "internalType": "uint160",
              "name": "sqrtPriceLimitX96",
              "type": "uint160"
            }
          ],
          "internalType": "struct IMixedRouteQuoterV1.QuoteExactInputSingleV3Params",
          "name": "params",
          "type": "tuple"
        }
      ],
      "name": "quoteExactInputSingleV3",
      "outputs": [
        {
          "internalType": "uint256",
          "name": "amountOut",
          "type": "uint256"
        },
        {
          "internalType": "uint160",
          "name": "sqrtPriceX96After",
          "type": "uint160"
        },
        {
          "internalType": "uint32",
          "name": "initializedTicksCrossed",
          "type": "uint32"
        },
        {
          "internalType": "uint256",
          "name": "gasEstimate",
          "type": "uint256"
        }
      ],
      "stateMutability": "nonpayable",
      "type": "function"
    },
    {
      "inputs": [
        {
          "components": [
            {
              "internalType": "address",
              "name": "tokenIn",
              "type": "address"
            },
            {
              "internalType": "address",
              "name": "tokenOut",
              "type": "address"
            },
            {
              "internalType": "uint256",
              "name": "amountIn",
              "type": "uint256"
            }
          ],
          "internalType": "struct IMixedRouteQuoterV1.QuoteExactInputSingleV2Params",
          "name": "params",
          "type": "tuple"
        }
      ],
      "name": "quoteExactInputSingleV2",
      "outputs": [
        {
          "internalType": "uint256",
          "name": "amountOut",
          "type": "uint256"
        }
      ],
      "stateMutability": "view",
      "type": "function",
      "constant": true
    },
    {
      "inputs": [
        {
          "internalType": "bytes",
          "name": "path",
          "type": "bytes"
        },
        {
          "internalType": "uint256",
          "name": "amountIn",
          "type": "uint256"
        }
      ],
      "name": "quoteExactInput",
      "outputs": [
        {
          "internalType": "uint256",
          "name": "amountOut",
          "type": "uint256"
        },
        {
          "internalType": "uint160[]",
          "name": "v3SqrtPriceX96AfterList",
          "type": "uint160[]"
        },
        {
          "internalType": "uint32[]",
          "name": "v3InitializedTicksCrossedList",
          "type": "uint32[]"
        },
        {
          "internalType": "uint256",
          "name": "v3SwapGasEstimate",
          "type": "uint256"
        }
      ],
      "stateMutability": "nonpayable",
      "type": "function"
    }
  ],
  "bytecode": "0x60e06040523480156200001157600080fd5b5060405162001d1138038062001d11833981016040819052620000349162000078565b6001600160601b0319606093841b811660805290831b811660a052911b1660c052620000c1565b80516001600160a01b03811681146200007357600080fd5b919050565b6000806000606084860312156200008d578283fd5b62000098846200005b565b9250620000a8602085016200005b565b9150620000b8604085016200005b565b90509250925092565b60805160601c60a05160601c60c05160601c611c0b620001066000398061014152806106a352508061011d525080610318528061056052806106e95250611c0b6000f3fe608060405234801561001057600080fd5b506004361061006d5760003560e01c80634aa4a4fc1461007257806368e0d4e1146100905780638a49928614610098578063b174a0a7146100b8578063c45a0155146100db578063cdca1753146100e3578063fa461e3314610106575b600080fd5b61007a61011b565b6040516100879190611980565b60405180910390f35b61007a61013f565b6100ab6100a636600461175b565b610163565b6040516100879190611a53565b6100cb6100c63660046117be565b610182565b6040516100879493929190611af7565b61007a610316565b6100f66100f1366004611640565b61033a565b6040516100879493929190611a5c565b6101196101143660046116a5565b61052f565b005b7f000000000000000000000000000000000000000000000000000000000000000081565b7f000000000000000000000000000000000000000000000000000000000000000081565b600061017c826040015183600001518460200151610699565b92915050565b6020810151815160608301516000928392839283926001600160a01b03808216908416109284926101b392906106e2565b905060005a9050816001600160a01b031663128acb0830856101d88c60400151610720565b60808d01516001600160a01b0316156101f5578c6080015161021b565b876102145773fffd8963efd1fc6a506488495d951d5263988d2561021b565b6401000276a45b8d600001518e606001518f6020015160405160200161023c9392919061194a565b6040516020818303038152906040526040518663ffffffff1660e01b815260040161026b959493929190611994565b6040805180830381600087803b15801561028457600080fd5b505af19250505080156102b4575060408051601f3d908101601f191682019092526102b191810190611682565b60015b610309573d8080156102e2576040519150601f19603f3d011682016040523d82523d6000602084013e6102e7565b606091505b505a820394506102f8818487610770565b97509750975097505050505061030f565b50505050505b9193509193565b7f000000000000000000000000000000000000000000000000000000000000000081565b6000606080600061034a8661082a565b6001600160401b038111801561035f57600080fd5b50604051908082528060200260200182016040528015610389578160200160208202803683370190505b5092506103958661082a565b6001600160401b03811180156103aa57600080fd5b506040519080825280602002602001820160405280156103d4578160200160208202803683370190505b50915060005b60008060006103e88a610837565b91945092509050628000008116156104365761042f6040518060600160405280856001600160a01b03168152602001846001600160a01b031681526020018b815250610163565b98506104ee565b60008060008061048c6040518060a00160405280896001600160a01b03168152602001886001600160a01b031681526020018f81526020018762ffffff16815260200160006001600160a01b0316815250610182565b9350935093509350828b89815181106104a157fe5b60200260200101906001600160a01b031690816001600160a01b031681525050818a89815181106104ce57fe5b63ffffffff90921660209283029190910190910152929b50505094909401935b6001909301926104fd8a610868565b156105125761050b8a610870565b995061051e565b88975050505050610526565b5050506103da565b92959194509250565b600083138061053e5750600082135b61054757600080fd5b600080600061055584610837565b9250925092506105877f0000000000000000000000000000000000000000000000000000000000000000848484610887565b50600080600088136105b157846001600160a01b0316846001600160a01b031610886000036105cb565b836001600160a01b0316856001600160a01b031610876000035b9150915060006105dc8686866106e2565b9050600080826001600160a01b0316633850c7bd6040518163ffffffff1660e01b815260040160e06040518083038186803b15801561061a57600080fd5b505afa15801561062e573d6000803e3d6000fd5b505050506040513d601f19601f82011682018060405250810190610652919061184a565b505050505091509150841561067857604051848152826020820152816040820152606081fd5b60405162461bcd60e51b815260040161069090611a1e565b60405180910390fd5b60008060006106c97f000000000000000000000000000000000000000000000000000000000000000086866108a6565b915091506106d886838361096d565b9695505050505050565b60006107187f0000000000000000000000000000000000000000000000000000000000000000610713868686610a25565b610a7b565b949350505050565b60006001600160ff1b038211156107685760405162461bcd60e51b8152600401808060200182810382526028815260200180611bae6028913960400191505060405180910390fd5b50805b919050565b600080600080600080876001600160a01b0316633850c7bd6040518163ffffffff1660e01b815260040160e06040518083038186803b1580156107b257600080fd5b505afa1580156107c6573d6000803e3d6000fd5b505050506040513d601f19601f820116820180604052508101906107ea919061184a565b509396506107ff94508d9350610b5a92505050565b9197509550905061081a6001600160a01b0389168383610bde565b9350869250505093509350935093565b5160176013199091010490565b600080806108458482611167565b9250610852846014611217565b905061085f846017611167565b91509193909250565b516042111590565b805160609061017c908390601790601619016112be565b600061089d85610898868686610a25565b61140f565b95945050505050565b60008060006108b58585611432565b5090506000806108c6888888611496565b6001600160a01b0316630902f1ac6040518163ffffffff1660e01b815260040160606040518083038186803b1580156108fe57600080fd5b505afa158015610912573d6000803e3d6000fd5b505050506040513d606081101561092857600080fd5b5080516020909101516001600160701b0391821693501690506001600160a01b038781169084161461095b57808261095e565b81815b90999098509650505050505050565b60008084116109bf576040805162461bcd60e51b8152602060048201526019602482015278125394d551919250d251539517d25394155517d05353d55395603a1b604482015290519081900360640190fd5b6000831180156109cf5750600082115b6109d857600080fd5b60006109e6856103e5611551565b905060006109f48285611551565b90506000610a0e83610a08886103e8611551565b90611575565b9050808281610a1957fe5b04979650505050505050565b610a2d6115a0565b826001600160a01b0316846001600160a01b03161115610a4b579192915b50604080516060810182526001600160a01b03948516815292909316602083015262ffffff169181019190915290565b600081602001516001600160a01b031682600001516001600160a01b031610610aa357600080fd5b50805160208083015160409384015184516001600160a01b0394851681850152939091168385015262ffffff166060808401919091528351808403820181526080840185528051908301206001600160f81b031960a085015294901b6001600160601b03191660a183015260b58201939093527ff352c39f96c2019023ab98477c72c7ebc04a4fe1d43a2bc84e3eec188c24b57160d5808301919091528251808303909101815260f5909101909152805191012090565b60008060008351606014610bbd57604484511015610b8a5760405162461bcd60e51b8152600401610690906119f4565b60048401935083806020019051810190610ba491906116f2565b60405162461bcd60e51b815260040161069091906119da565b83806020019051810190610bd191906118e1565b9250925092509193909250565b60008060008060008060008060088b6001600160a01b031663d0c93a7c6040518163ffffffff1660e01b815260040160206040518083038186803b158015610c2557600080fd5b505afa158015610c39573d6000803e3d6000fd5b505050506040513d6020811015610c4f57600080fd5b5051600290810b908c900b81610c6157fe5b0560020b901d905060006101008c6001600160a01b031663d0c93a7c6040518163ffffffff1660e01b815260040160206040518083038186803b158015610ca757600080fd5b505afa158015610cbb573d6000803e3d6000fd5b505050506040513d6020811015610cd157600080fd5b5051600290810b908d900b81610ce357fe5b0560020b81610cee57fe5b079050600060088d6001600160a01b031663d0c93a7c6040518163ffffffff1660e01b815260040160206040518083038186803b158015610d2e57600080fd5b505afa158015610d42573d6000803e3d6000fd5b505050506040513d6020811015610d5857600080fd5b5051600290810b908d900b81610d6a57fe5b0560020b901d905060006101008e6001600160a01b031663d0c93a7c6040518163ffffffff1660e01b815260040160206040518083038186803b158015610db057600080fd5b505afa158015610dc4573d6000803e3d6000fd5b505050506040513d6020811015610dda57600080fd5b5051600290810b908e900b81610dec57fe5b0560020b81610df757fe5b07905060008160ff166001901b8f6001600160a01b0316635339c296856040518263ffffffff1660e01b8152600401808260010b815260200191505060206040518083038186803b158015610e4b57600080fd5b505afa158015610e5f573d6000803e3d6000fd5b505050506040513d6020811015610e7557600080fd5b505116118015610efb57508d6001600160a01b031663d0c93a7c6040518163ffffffff1660e01b815260040160206040518083038186803b158015610eb957600080fd5b505afa158015610ecd573d6000803e3d6000fd5b505050506040513d6020811015610ee357600080fd5b5051600290810b908d900b81610ef557fe5b0760020b155b8015610f0c57508b60020b8d60020b135b945060008360ff166001901b8f6001600160a01b0316635339c296876040518263ffffffff1660e01b8152600401808260010b815260200191505060206040518083038186803b158015610f5f57600080fd5b505afa158015610f73573d6000803e3d6000fd5b505050506040513d6020811015610f8957600080fd5b50511611801561100f57508d6001600160a01b031663d0c93a7c6040518163ffffffff1660e01b815260040160206040518083038186803b158015610fcd57600080fd5b505afa158015610fe1573d6000803e3d6000fd5b505050506040513d6020811015610ff757600080fd5b5051600290810b908e900b8161100957fe5b0760020b155b801561102057508b60020b8d60020b125b95508160010b8460010b128061104c57508160010b8460010b14801561104c57508060ff168360ff1611155b156110625783995082975081985080965061106f565b8199508097508398508296505b505060001960ff87161b9150505b8560010b8760010b1361113f578560010b8760010b14156110a45760001960ff858103161c165b6000818c6001600160a01b0316635339c2968a6040518263ffffffff1660e01b8152600401808260010b815260200191505060206040518083038186803b1580156110ee57600080fd5b505afa158015611102573d6000803e3d6000fd5b505050506040513d602081101561111857600080fd5b505116905061112681611585565b61ffff169890980197505060019095019460001961107d565b811561114c576001880397505b8215611159576001880397505b505050505050509392505050565b6000818260140110156111b6576040805162461bcd60e51b8152602060048201526012602482015271746f416464726573735f6f766572666c6f7760701b604482015290519081900360640190fd5b8160140183511015611207576040805162461bcd60e51b8152602060048201526015602482015274746f416464726573735f6f75744f66426f756e647360581b604482015290519081900360640190fd5b500160200151600160601b900490565b600081826003011015611265576040805162461bcd60e51b8152602060048201526011602482015270746f55696e7432345f6f766572666c6f7760781b604482015290519081900360640190fd5b81600301835110156112b5576040805162461bcd60e51b8152602060048201526014602482015273746f55696e7432345f6f75744f66426f756e647360601b604482015290519081900360640190fd5b50016003015190565b60608182601f011015611309576040805162461bcd60e51b815260206004820152600e60248201526d736c6963655f6f766572666c6f7760901b604482015290519081900360640190fd5b828284011015611351576040805162461bcd60e51b815260206004820152600e60248201526d736c6963655f6f766572666c6f7760901b604482015290519081900360640190fd5b8183018451101561139d576040805162461bcd60e51b8152602060048201526011602482015270736c6963655f6f75744f66426f756e647360781b604482015290519081900360640190fd5b6060821580156113bc5760405191506000825260208201604052611406565b6040519150601f8416801560200281840101858101878315602002848b0101015b818310156113f55780518352602092830192016113dd565b5050858452601f01601f1916604052505b50949350505050565b600061141b8383610a7b565b9050336001600160a01b0382161461017c57600080fd5b600080826001600160a01b0316846001600160a01b0316141561145457600080fd5b826001600160a01b0316846001600160a01b031610611474578284611477565b83835b90925090506001600160a01b03821661148f57600080fd5b9250929050565b60008060006114a58585611432565b604080516001600160601b0319606094851b811660208084019190915293851b81166034830152825160288184030181526048830184528051908501206001600160f81b031960688401529a90941b9093166069840152607d8301989098527f39508270e57a7b0c1d470bd64db67ef1e8a221c9ef76e08d2a87edd691ce92db609d808401919091528851808403909101815260bd909201909752805196019590952095945050505050565b600082158061156c5750508181028183828161156957fe5b04145b61017c57600080fd5b8082018281101561017c57600080fd5b6000805b821561017c57600019830190921691600101611589565b604080516060810182526000808252602082018190529181019190915290565b600082601f8301126115d0578081fd5b81356115e36115de82611b44565b611b21565b8181528460208386010111156115f7578283fd5b816020850160208301379081016020019190915292915050565b8051600281900b811461076b57600080fd5b803561076b81611b95565b805161ffff8116811461076b57600080fd5b60008060408385031215611652578182fd5b82356001600160401b03811115611667578283fd5b611673858286016115c0565b95602094909401359450505050565b60008060408385031215611694578182fd5b505080516020909101519092909150565b6000806000606084860312156116b9578081fd5b833592506020840135915060408401356001600160401b038111156116dc578182fd5b6116e8868287016115c0565b9150509250925092565b600060208284031215611703578081fd5b81516001600160401b03811115611718578182fd5b8201601f81018413611728578182fd5b80516117366115de82611b44565b81815285602083850101111561174a578384fd5b61089d826020830160208601611b65565b60006060828403121561176c578081fd5b604051606081018181106001600160401b038211171561178857fe5b604052823561179681611b95565b815260208301356117a681611b95565b60208201526040928301359281019290925250919050565b600060a082840312156117cf578081fd5b60405160a081018181106001600160401b03821117156117eb57fe5b60405282356117f981611b95565b8152602083013561180981611b95565b602082015260408381013590820152606083013562ffffff8116811461182d578283fd5b606082015261183e60808401611623565b60808201529392505050565b600080600080600080600060e0888a031215611864578283fd5b875161186f81611b95565b965061187d60208901611611565b955061188b6040890161162e565b94506118996060890161162e565b93506118a76080890161162e565b925060a088015160ff811681146118bc578283fd5b60c089015190925080151581146118d1578182fd5b8091505092959891949750929550565b6000806000606084860312156118f5578081fd5b83519250602084015161190781611b95565b915061191560408501611611565b90509250925092565b60008151808452611936816020860160208601611b65565b601f01601f19169290920160200192915050565b606093841b6001600160601b0319908116825260e89390931b6001600160e81b0319166014820152921b166017820152602b0190565b6001600160a01b0391909116815260200190565b6001600160a01b0386811682528515156020830152604082018590528316606082015260a0608082018190526000906119cf9083018461191e565b979650505050505050565b6000602082526119ed602083018461191e565b9392505050565b60208082526010908201526f2ab732bc3832b1ba32b21032b93937b960811b604082015260600190565b6020808252818101527f4578616374206f75747075742071756f7465206e6f7420737570706f72746564604082015260600190565b90815260200190565b600060808201868352602060808185015281875180845260a0860191508289019350845b81811015611aa55784516001600160a01b031683529383019391830191600101611a80565b505084810360408601528651808252908201925081870190845b81811015611ae157825163ffffffff1685529383019391830191600101611abf565b5050505060609290920192909252949350505050565b9384526001600160a01b0392909216602084015263ffffffff166040830152606082015260800190565b6040518181016001600160401b0381118282101715611b3c57fe5b604052919050565b60006001600160401b03821115611b5757fe5b50601f01601f191660200190565b60005b83811015611b80578181015183820152602001611b68565b83811115611b8f576000848401525b50505050565b6001600160a01b0381168114611baa57600080fd5b5056fe53616665436173743a2076616c756520646f65736e27742066697420696e20616e20696e74323536a26469706673582212201b2fb00dae3ed1bf686b592dd9b6f16ddecac1fbb2fb939a0306edbe7708db3a64736f6c63430007060033",
  "immutableReferences": {
    "7440": [
      {
        "length": 32,
        "start": 792
      },
      {
        "length": 32,
        "start": 1376
      },
      {
        "length": 32,
        "start": 1769
      }
    ],
    "7444": [
      {
        "length": 32,
        "start": 285
      }
    ],
    "10804": [
      {
        "length": 32,
        "start": 321
      },
      {
        "length": 32,
        "start": 1699
      }
    ]
  },
  "source": "// SPDX-License-Identifier: GPL-2.0-or-later\npragma solidity =0.7.6;\npragma abicoder v2;\n\nimport '../base/PeripheryImmutableState.sol';\nimport '../libraries/SafeCast.sol';\nimport '../libraries/TickMath.sol';\nimport '../libraries/TickBitmap.sol';\nimport '../interfaces/IUniswapV3Pool.sol';\nimport '../interfaces/callback/IUniswapV3SwapCallback.sol';\nimport '../libraries/Path.sol';\nimport '../libraries/PoolAddress.sol';\nimport '../libraries/CallbackValidation.sol';\nimport '../interfaces/IUniswapV2Pair.sol';\n\nimport '../base/ImmutableState.sol';\nimport '../interfaces/IMixedRouteQuoterV1.sol';\nimport '../libraries/PoolTicksCounter.sol';\nimport '../libraries/UniswapV2Library.sol';\n\n/// @title Provides on chain quotes for V3, V2, and MixedRoute exact input swaps\n/// @notice Allows getting the expected amount out for a given swap without executing the swap\n/// @notice Does not support exact output swaps since using the contract balance between exactOut swaps is not supported\n/// @dev These functions are not gas efficient and should _not_ be called on chain. Instead, optimistically execute\n/// the swap and check the amounts in the callback.\ncontract MixedRouteQuoterV1 is IMixedRouteQuoterV1, IUniswapV3SwapCallback, PeripheryImmutableState {\n    using Path for bytes;\n    using SafeCast for uint256;\n    using PoolTicksCounter for IUniswapV3Pool;\n    address public immutable factoryV2;\n    /// @dev Value to bit mask with path fee to determine if V2 or V3 route\n    // max V3 fee:           000011110100001001000000 (24 bits)\n    // mask:       1 << 23 = 100000000000000000000000 = decimal value 8388608\n    uint24 private constant flagBitmask = 8388608;\n\n    /// @dev Transient storage variable used to check a safety condition in exact output swaps.\n    uint256 private amountOutCached;\n\n    constructor(\n        address _factory,\n        address _factoryV2,\n        address _WETH9\n    ) PeripheryImmutableState(_factory, _WETH9) {\n        factoryV2 = _factoryV2;\n    }\n\n    function getPool(\n        address tokenA,\n        address tokenB,\n        uint24 fee\n    ) private view returns (IUniswapV3Pool) {\n        return IUniswapV3Pool(PoolAddress.computeAddress(factory, PoolAddress.getPoolKey(tokenA, tokenB, fee)));\n    }\n\n    /// @dev Given an amountIn, fetch the reserves of the V2 pair and get the amountOut\n    function getPairAmountOut(\n        uint256 amountIn,\n        address tokenIn,\n        address tokenOut\n    ) private view returns (uint256) {\n        (uint256 reserveIn, uint256 reserveOut) = UniswapV2Library.getReserves(factoryV2, tokenIn, tokenOut);\n        return UniswapV2Library.getAmountOut(amountIn, reserveIn, reserveOut);\n    }\n\n    /// @inheritdoc IUniswapV3SwapCallback\n    function uniswapV3SwapCallback(\n        int256 amount0Delta,\n        int256 amount1Delta,\n        bytes memory path\n    ) external view override {\n        require(amount0Delta > 0 || amount1Delta > 0); // swaps entirely within 0-liquidity regions are not supported\n        (address tokenIn, address tokenOut, uint24 fee) = path.decodeFirstPool();\n        CallbackValidation.verifyCallback(factory, tokenIn, tokenOut, fee);\n\n        (bool isExactInput, uint256 amountReceived) =\n            amount0Delta > 0\n                ? (tokenIn < tokenOut, uint256(-amount1Delta))\n                : (tokenOut < tokenIn, uint256(-amount0Delta));\n\n        IUniswapV3Pool pool = getPool(tokenIn, tokenOut, fee);\n        (uint160 v3SqrtPriceX96After, int24 tickAfter, , , , , ) = pool.slot0();\n\n        if (isExactInput) {\n            assembly {\n                let ptr := mload(0x40)\n                mstore(ptr, amountReceived)\n                mstore(add(ptr, 0x20), v3SqrtPriceX96After)\n                mstore(add(ptr, 0x40), tickAfter)\n                revert(ptr, 0x60)\n            }\n        } else {\n            /// since we don't support exactOutput, revert here\n            revert('Exact output quote not supported');\n        }\n    }\n\n    /// @dev Parses a revert reason that should contain the numeric quote\n    function parseRevertReason(bytes memory reason)\n        private\n        pure\n        returns (\n            uint256 amount,\n            uint160 sqrtPriceX96After,\n            int24 tickAfter\n        )\n    {\n        if (reason.length != 0x60) {\n            if (reason.length < 0x44) revert('Unexpected error');\n            assembly {\n                reason := add(reason, 0x04)\n            }\n            revert(abi.decode(reason, (string)));\n        }\n        return abi.decode(reason, (uint256, uint160, int24));\n    }\n\n    function handleV3Revert(\n        bytes memory reason,\n        IUniswapV3Pool pool,\n        uint256 gasEstimate\n    )\n        private\n        view\n        returns (\n            uint256 amount,\n            uint160 sqrtPriceX96After,\n            uint32 initializedTicksCrossed,\n            uint256\n        )\n    {\n        int24 tickBefore;\n        int24 tickAfter;\n        (, tickBefore, , , , , ) = pool.slot0();\n        (amount, sqrtPriceX96After, tickAfter) = parseRevertReason(reason);\n\n        initializedTicksCrossed = pool.countInitializedTicksCrossed(tickBefore, tickAfter);\n\n        return (amount, sqrtPriceX96After, initializedTicksCrossed, gasEstimate);\n    }\n\n    /// @dev Fetch an exactIn quote for a V3 Pool on chain\n    function quoteExactInputSingleV3(QuoteExactInputSingleV3Params memory params)\n        public\n        override\n        returns (\n            uint256 amountOut,\n            uint160 sqrtPriceX96After,\n            uint32 initializedTicksCrossed,\n            uint256 gasEstimate\n        )\n    {\n        bool zeroForOne = params.tokenIn < params.tokenOut;\n        IUniswapV3Pool pool = getPool(params.tokenIn, params.tokenOut, params.fee);\n\n        uint256 gasBefore = gasleft();\n        try\n            pool.swap(\n                address(this), // address(0) might cause issues with some tokens\n                zeroForOne,\n                params.amountIn.toInt256(),\n                params.sqrtPriceLimitX96 == 0\n                    ? (zeroForOne ? TickMath.MIN_SQRT_RATIO + 1 : TickMath.MAX_SQRT_RATIO - 1)\n                    : params.sqrtPriceLimitX96,\n                abi.encodePacked(params.tokenIn, params.fee, params.tokenOut)\n            )\n        {} catch (bytes memory reason) {\n            gasEstimate = gasBefore - gasleft();\n            return handleV3Revert(reason, pool, gasEstimate);\n        }\n    }\n\n    /// @dev Fetch an exactIn quote for a V2 pair on chain\n    function quoteExactInputSingleV2(QuoteExactInputSingleV2Params memory params)\n        public\n        view\n        override\n        returns (uint256 amountOut)\n    {\n        amountOut = getPairAmountOut(params.amountIn, params.tokenIn, params.tokenOut);\n    }\n\n    /// @dev Get the quote for an exactIn swap between an array of V2 and/or V3 pools\n    /// @notice To encode a V2 pair within the path, use 0x800000 (hex value of 8388608) for the fee between the two token addresses\n    function quoteExactInput(bytes memory path, uint256 amountIn)\n        public\n        override\n        returns (\n            uint256 amountOut,\n            uint160[] memory v3SqrtPriceX96AfterList,\n            uint32[] memory v3InitializedTicksCrossedList,\n            uint256 v3SwapGasEstimate\n        )\n    {\n        v3SqrtPriceX96AfterList = new uint160[](path.numPools());\n        v3InitializedTicksCrossedList = new uint32[](path.numPools());\n\n        uint256 i = 0;\n        while (true) {\n            (address tokenIn, address tokenOut, uint24 fee) = path.decodeFirstPool();\n\n            if (fee & flagBitmask != 0) {\n                amountIn = quoteExactInputSingleV2(\n                    QuoteExactInputSingleV2Params({tokenIn: tokenIn, tokenOut: tokenOut, amountIn: amountIn})\n                );\n            } else {\n                /// the outputs of prior swaps become the inputs to subsequent ones\n                (\n                    uint256 _amountOut,\n                    uint160 _sqrtPriceX96After,\n                    uint32 _initializedTicksCrossed,\n                    uint256 _gasEstimate\n                ) =\n                    quoteExactInputSingleV3(\n                        QuoteExactInputSingleV3Params({\n                            tokenIn: tokenIn,\n                            tokenOut: tokenOut,\n                            fee: fee,\n                            amountIn: amountIn,\n                            sqrtPriceLimitX96: 0\n                        })\n                    );\n                v3SqrtPriceX96AfterList[i] = _sqrtPriceX96After;\n                v3InitializedTicksCrossedList[i] = _initializedTicksCrossed;\n                v3SwapGasEstimate += _gasEstimate;\n                amountIn = _amountOut;\n            }\n            i++;\n\n            /// decide whether to continue or terminate\n            if (path.hasMultiplePools()) {\n                path = path.skipToken();\n            } else {\n                return (amountIn, v3SqrtPriceX96AfterList, v3InitializedTicksCrossedList, v3SwapGasEstimate);\n            }\n        }\n    }\n}\n",
  "sourcePath": "/home/jerry/ethereum/uniswap/smart-router-ctr/contracts/lens/MixedRouteQuoterV1.sol",
  "compiler": {
    "name": "solc",
    "version": "0.7.6+commit.7338295f.Emscripten.clang"
  },
  "schemaVersion": "3.4.10",
  "updatedAt": "2023-06-04T12:34:52.227Z",
  "networkType": "ethereum",
  "devdoc": {
    "details": "These functions are not gas efficient and should _not_ be called on chain. Instead, optimistically execute the swap and check the amounts in the callback.",
    "kind": "dev",
    "methods": {
      "quoteExactInput(bytes,uint256)": {
        "details": "Get the quote for an exactIn swap between an array of V2 and/or V3 pools"
      },
      "quoteExactInputSingleV2((address,address,uint256))": {
        "details": "Fetch an exactIn quote for a V2 pair on chain"
      },
      "quoteExactInputSingleV3((address,address,uint256,uint24,uint160))": {
        "details": "Fetch an exactIn quote for a V3 Pool on chain"
      },
      "uniswapV3SwapCallback(int256,int256,bytes)": {
        "details": "In the implementation you must pay the pool tokens owed for the swap. The caller of this method must be checked to be a UniswapV3Pool deployed by the canonical UniswapV3Factory. amount0Delta and amount1Delta can both be 0 if no tokens were swapped.",
        "params": {
          "amount0Delta": "The amount of token0 that was sent (negative) or must be received (positive) by the pool by the end of the swap. If positive, the callback must send that amount of token0 to the pool.",
          "amount1Delta": "The amount of token1 that was sent (negative) or must be received (positive) by the pool by the end of the swap. If positive, the callback must send that amount of token1 to the pool.",
          "data": "Any data passed through by the caller via the IUniswapV3PoolActions#swap call"
        }
      }
    },
    "stateVariables": {
      "amountOutCached": {
        "details": "Transient storage variable used to check a safety condition in exact output swaps."
      },
      "flagBitmask": {
        "details": "Value to bit mask with path fee to determine if V2 or V3 route"
      }
    },
    "title": "Provides on chain quotes for V3, V2, and MixedRoute exact input swaps",
    "version": 1
  },
  "userdoc": {
    "kind": "user",
    "methods": {
      "quoteExactInput(bytes,uint256)": {
        "notice": "To encode a V2 pair within the path, use 0x800000 (hex value of 8388608) for the fee between the two token addresses"
      },
      "uniswapV3SwapCallback(int256,int256,bytes)": {
        "notice": "Called to `msg.sender` after executing a swap via IUniswapV3Pool#swap."
      }
    },
    "notice": "Allows getting the expected amount out for a given swap without executing the swapDoes not support exact output swaps since using the contract balance between exactOut swaps is not supported",
    "version": 1
  }
}