{
  "contractName": "NFTDescriptor",
  "abi": [
    {
      "inputs": [
        {
          "components": [
            {
              "internalType": "uint256",
              "name": "tokenId",
              "type": "uint256"
            },
            {
              "internalType": "address",
              "name": "quoteTokenAddress",
              "type": "address"
            },
            {
              "internalType": "address",
              "name": "baseTokenAddress",
              "type": "address"
            },
            {
              "internalType": "string",
              "name": "quoteTokenSymbol",
              "type": "string"
            },
            {
              "internalType": "string",
              "name": "baseTokenSymbol",
              "type": "string"
            },
            {
              "internalType": "uint8",
              "name": "quoteTokenDecimals",
              "type": "uint8"
            },
            {
              "internalType": "uint8",
              "name": "baseTokenDecimals",
              "type": "uint8"
            },
            {
              "internalType": "bool",
              "name": "flipRatio",
              "type": "bool"
            },
            {
              "internalType": "int24",
              "name": "tickLower",
              "type": "int24"
            },
            {
              "internalType": "int24",
              "name": "tickUpper",
              "type": "int24"
            },
            {
              "internalType": "int24",
              "name": "tickCurrent",
              "type": "int24"
            },
            {
              "internalType": "int24",
              "name": "tickSpacing",
              "type": "int24"
            },
            {
              "internalType": "uint24",
              "name": "fee",
              "type": "uint24"
            },
            {
              "internalType": "address",
              "name": "poolAddress",
              "type": "address"
            }
          ],
          "internalType": "struct NFTDescriptor.ConstructTokenURIParams",
          "name": "params",
          "type": "tuple"
        }
      ],
      "name": "constructTokenURI",
      "outputs": [
        {
          "internalType": "string",
          "name": "",
          "type": "string"
        }
      ],
      "stateMutability": "pure",
      "type": "function"
    }
  ],
  "bytecode": "0x615d66610026600b82828239805160001a60731461001957fe5b30600052607381538281f3fe73000000000000000000000000000000000000000030146080604052600436106100355760003560e01c8063c49917d71461003a575b600080fd5b61004d610048366004613d9a565b610063565b60405161005a91906143cf565b60405180910390f35b6060600061007e83610079856101800151610176565b6103bc565b905060006100b26100928560600151610477565b61009f8660800151610477565b6100ad876101a001516105e2565b610600565b905060006101006100c68660000151610631565b6100d38760800151610477565b6100e088602001516105e2565b6100ed89604001516105e2565b6100fb8a6101800151610176565b610702565b9050600061010d86610738565b9050600061011a82610973565b905061014a858585846040516020016101369493929190614113565b604051602081830303815290604052610973565b60405160200161015a919061438a565b604051602081830303815290604052955050505050505b919050565b606062ffffff82166101a15750604080518082019091526002815261302560f01b6020820152610171565b816000805b62ffffff8316156101f15760ff8116156101c2576001016101db565b600a62ffffff84160662ffffff166000146101db576001015b600190910190600a62ffffff84160492506101a6565b6101f9613c95565b6000600584106102ee57600060046102148660ff8716610bea565b1015610221576001610224565b60005b60ff90811691506102389085166001610bea565b610243866005610bea565b1061026f5761026a61025960ff86166001610bea565b610264876005610bea565b90610bea565b610272565b60005b60ff851660808501819052909250610291906001906102649085610c2c565b60ff90811660a085015260808401516102b89183916102b291166001610bea565b90610c2c565b60ff90811660408501526102e09082906102b2906102d99088166001610c2c565b8590610c2c565b60ff1660208401525061035e565b6102f9600585610bea565b60026080840181905290915061031790600190610264908490610c2c565b60ff90811660a0840152610339906103329085166002610c2c565b8290610c2c565b60ff166020830181905261034e906002610bea565b60ff166040830152600160c08301525b61037d61036e8560ff8616610bea565b62ffffff891690600a0a610c84565b8252600160e0830152600484116103955760006103a0565b6103a0846004610bea565b60ff1660608301526103b182610cc3565b979650505050505050565b6060816103cc8460600151610477565b6103d98560800151610477565b6104128660e00151156103f1578661012001516103f8565b8661010001515b8761016001518860c001518960a001518a60e00151610ed2565b61044b8760e001511561042a57876101000151610431565b8761012001515b8861016001518960c001518a60a001518b60e00151610ed2565b60405160200161045f9594939291906141ee565b60405160208183030381529060405290505b92915050565b6060816000805b82518160ff1610156104c357828160ff168151811061049957fe5b6020910101516001600160f81b031916601160f91b14156104bb576001909101905b60010161047e565b5060ff8116156105da5760008160ff168351016001600160401b03811180156104eb57600080fd5b506040519080825280601f01601f191660200182016040528015610516576020820181803683370190505b5090506000805b84518160ff1610156105cd57848160ff168151811061053857fe5b6020910101516001600160f81b031916601160f91b141561058257601760fa1b83838060010194508151811061056a57fe5b60200101906001600160f81b031916908160001a9053505b848160ff168151811061059157fe5b602001015160f81c60f81b8383806001019450815181106105ae57fe5b60200101906001600160f81b031916908160001a90535060010161051d565b5081945050505050610171565b509192915050565b60606001600160a01b0382166105f9816014610fe7565b9392505050565b6060838383866040516020016106199493929190613ff1565b60405160208183030381529060405290509392505050565b60608161065657506040805180820190915260018152600360fc1b6020820152610171565b8160005b811561066e57600101600a8204915061065a565b6000816001600160401b038111801561068657600080fd5b506040519080825280601f01601f1916602001820160405280156106b1576020820181803683370190505b5090505b84156106fa5760001990910190600a850660300160f81b8183815181106106d857fe5b60200101906001600160f81b031916908160001a905350600a850494506106b5565b949350505050565b6060838584848960405160200161071d9594939291906142a7565b60405160208183030381529060405290505b95945050505050565b60606000604051806102a0016040528061075585602001516105e2565b815260200161076785604001516105e2565b8152602001846101a001516001600160a01b0316815260200184606001518152602001846080015181526020016107a2856101800151610176565b815260200184610100015160020b815260200184610120015160020b815260200184610160015160020b81526020016107eb856101000151866101200151876101400151611145565b60000b81526020018460000151815260200161081585602001516001600160a01b0316608861117c565b815260200161083285604001516001600160a01b0316608861117c565b815260200161084f85602001516001600160a01b0316600061117c565b815260200161086c85604001516001600160a01b0316600061117c565b815260200161089f61089186602001516001600160a01b03166010886000015161118b565b600060ff60106101126111ab565b81526020016108d26108c486604001516001600160a01b03166010886000015161118b565b600060ff60646101e46111ab565b81526020016108f761089186602001516001600160a01b03166020886000015161118b565b815260200161091c6108c486604001516001600160a01b03166020886000015161118b565b815260200161094161089186602001516001600160a01b03166030886000015161118b565b81526020016109666108c486604001516001600160a01b03166030886000015161118b565b905290506105f9816111f3565b606060008290506000600382518161098757fe5b069050600060038281030660038451600201816109a057fe5b046004020390506000816001600160401b03811180156109bf57600080fd5b506040519080825280601f01601f1916602001820160405280156109ea576020820181803683370190505b5090506000805b85518260030111610af457610a58868381518110610a0b57fe5b602001015160f81c60f81b60f81c60ff16878460010181518110610a2b57fe5b602001015160f81c60f81b60f81c60ff16888560020181518110610a4b57fe5b016020015160f81c61146b565b868581518110610a6457fe5b60200101878660010181518110610a7757fe5b60200101888760020181518110610a8a57fe5b60200101898860030181518110610a9d57fe5b6001600160f81b0319861660001a9101602001536001600160f81b0319851660001a90536001600160f81b0319851660001a90536001600160f81b0319851660001a905350505060039290920191506004016109f1565b8415610bde576000868688510381518110610b0b57fe5b016020015160f81c905060006002871415610b3b5787600189510381518110610b3057fe5b016020015160f81c90505b600080600080610b538660ff168660ff16600061146b565b935093509350935083898881518110610b6857fe5b60200101906001600160f81b031916908160001a90535082898860010181518110610b8f57fe5b60200101906001600160f81b031916908160001a9053508a60021415610bd75781898860020181518110610bbf57fe5b60200101906001600160f81b031916908160001a9053505b5050505050505b50909695505050505050565b60006105f983836040518060400160405280601e81526020017f536166654d6174683a207375627472616374696f6e206f766572666c6f77000081525061156e565b6000828201838110156105f9576040805162461bcd60e51b815260206004820152601b60248201527a536166654d6174683a206164646974696f6e206f766572666c6f7760281b604482015290519081900360640190fd5b60006105f983836040518060400160405280601a815260200179536166654d6174683a206469766973696f6e206279207a65726f60301b815250611605565b60606000826020015160ff166001600160401b0381118015610ce457600080fd5b506040519080825280601f01601f191660200182016040528015610d0f576020820181803683370190505b5090508260e0015115610d4957602560f81b81600183510381518110610d3157fe5b60200101906001600160f81b031916908160001a9053505b8260c0015115610da657600360fc1b81600081518110610d6557fe5b60200101906001600160f81b031916908160001a905350601760f91b81600181518110610d8e57fe5b60200101906001600160f81b031916908160001a9053505b608083015160ff165b60a0840151610dc29060ff166001610c2c565b811015610df957603060f81b828281518110610dda57fe5b60200101906001600160f81b031916908160001a905350600101610daf565b505b825115610471576000836060015160ff16118015610e265750826060015160ff16836040015160ff16145b15610e695760408301805160ff600019820181169092528251601760f91b92849216908110610e5157fe5b60200101906001600160f81b031916908160001a9053505b8251610e7b90603090600a9006610c2c565b60f81b818460400180518091906001900360ff1660ff1681525060ff1681518110610ea257fe5b60200101906001600160f81b031916908160001a905350600a8360000181815181610ec957fe5b04905250610dfb565b606084600281900b620d89e71981610ee657fe5b050260020b8660020b1415610f40578115610f1c576040518060400160405280600381526020016209a82b60eb1b815250610f39565b6040518060400160405280600381526020016226a4a760e91b8152505b905061072f565b84600281900b620d89e881610f5157fe5b050260020b8660020b1415610fa7578115610f87576040518060400160405280600381526020016226a4a760e91b815250610f39565b5060408051808201909152600381526209a82b60eb1b602082015261072f565b6000610fb28761166a565b90508215610fd457610fd1600160c01b6001600160a01b038316610c84565b90505b610fdf818686611991565b91505061072f565b60606000826002026002016001600160401b038111801561100757600080fd5b506040519080825280601f01601f191660200182016040528015611032576020820181803683370190505b509050600360fc1b8160008151811061104757fe5b60200101906001600160f81b031916908160001a905350600f60fb1b8160018151811061107057fe5b60200101906001600160f81b031916908160001a905350600160028402015b60018111156110f1576f181899199a1a9b1b9c1cb0b131b232b360811b85600f16601081106110ba57fe5b1a60f81b8282815181106110ca57fe5b60200101906001600160f81b031916908160001a90535060049490941c936000190161108f565b5083156105f9576040805162461bcd60e51b815260206004820181905260248201527f537472696e67733a20686578206c656e67746820696e73756666696369656e74604482015290519081900360640190fd5b60008360020b8260020b121561115e57506000196105f9565b8260020b8260020b1315611174575060016105f9565b5060006105f9565b60606105f983831c6003611b4e565b600060ff8261119a8686611c07565b02816111a257fe5b06949350505050565b60606111e96111e4846102b26111c1888a610bea565b6111de6111ce888a610bea565b6111d88d8d610bea565b90611c0e565b90610c84565b610631565b9695505050505050565b60606111fe82611c67565b61121a83600001518460200151856060015186608001516122c6565b611231846060015185608001518660a001516125f1565b61124f8560c001518660e00151876101000151886101200151612741565b61126f611260876101400151610631565b8760c001518860e00151612a24565b6112828761014001518860400151612e3c565b6040516020018087805190602001908083835b602083106112b45780518252601f199092019160209182019101611295565b51815160209384036101000a600019018019909216911617905289519190930192890191508083835b602083106112fc5780518252601f1990920191602091820191016112dd565b51815160209384036101000a600019018019909216911617905288519190930192880191508083835b602083106113445780518252601f199092019160209182019101611325565b51815160209384036101000a600019018019909216911617905287519190930192870191508083835b6020831061138c5780518252601f19909201916020918201910161136d565b51815160209384036101000a600019018019909216911617905286519190930192860191508083835b602083106113d45780518252601f1990920191602091820191016113b5565b51815160209384036101000a600019018019909216911617905285519190930192850191508083835b6020831061141c5780518252601f1990920191602091820191016113fd565b5181516020939093036101000a6000190180199091169216919091179052651e17b9bb339f60d11b92019182525060408051808303601919018152600690920190529998505050505050505050565b60408051606081018252818152600091829182918291601089901b600889901b17871791603f601284901c811692600c85901c821692600686901c83169286169190614dc8602083013984815181106114c057fe5b602001015160f81c60f81b9850604051806060016040528060408152602001614dc86040913983815181106114f157fe5b602001015160f81c60f81b9750604051806060016040528060408152602001614dc860409139828151811061152257fe5b602001015160f81c60f81b9650604051806060016040528060408152602001614dc860409139818151811061155357fe5b602001015160f81c60f81b9550505050505093509350935093565b600081848411156115fd5760405162461bcd60e51b81526004018080602001828103825283818151815260200191508051906020019080838360005b838110156115c25781810151838201526020016115aa565b50505050905090810190601f1680156115ef5780820380516001836020036101000a031916815260200191505b509250505060405180910390fd5b505050900390565b600081836116545760405162461bcd60e51b81526020600482018181528351602484015283519092839260449091019190850190808383600083156115c25781810151838201526020016115aa565b50600083858161166057fe5b0495945050505050565b60008060008360020b12611681578260020b611689565b8260020b6000035b9050620d89e88111156116c7576040805162461bcd60e51b81526020600482015260016024820152601560fa1b604482015290519081900360640190fd5b6000600182166116db57600160801b6116ed565b6ffffcb933bd6fad37aa2d162d1a5940015b6001600160881b031690506002821615611717576ffff97272373d413259a46990580e213a0260801c5b6004821615611736576ffff2e50f5f656932ef12357cf3c7fdcc0260801c5b6008821615611755576fffe5caca7e10e4e61c3624eaa0941cd00260801c5b6010821615611774576fffcb9843d60f6159c9db58835c9266440260801c5b6020821615611793576fff973b41fa98c081472e6896dfb254c00260801c5b60408216156117b2576fff2ea16466c96a3843ec78b326b528610260801c5b60808216156117d1576ffe5dee046a99a2a811c461f1969c30530260801c5b6101008216156117f1576ffcbe86c7900a88aedcffc83b479aa3a40260801c5b610200821615611811576ff987a7253ac413176f2b074cf7815e540260801c5b610400821615611831576ff3392b0822b70005940c7a398e4b70f30260801c5b610800821615611851576fe7159475a2c29b7443b29c7fa6e889d90260801c5b611000821615611871576fd097f3bdfd2022b8845ad8f792aa58250260801c5b612000821615611891576fa9f746462d870fdf8a65dc1f90e061e50260801c5b6140008216156118b1576f70d869a156d2a1b890bb3df62baf32f70260801c5b6180008216156118d1576f31be135f97d08fd981231505542fcfa60260801c5b620100008216156118f2576f09aa508b5b7a84e1c677de54f3e99bc90260801c5b62020000821615611912576e5d6af8dedb81196699c329225ee6040260801c5b62040000821615611931576d2216e584f5fa1ea926041bedfe980260801c5b6208000082161561194e576b048a170391f7dc42444e8fa20260801c5b60008460020b131561196957806000198161196557fe5b0490505b600160201b81061561197c57600161197f565b60005b60ff16602082901c0192505050919050565b606060006119a0858585612eb4565b905060006119b38283600160401b612fb6565b9050600160601b821080156119e8576119e1826c47bf19673df52e37f2410011d1602c1b600160801b612fb6565b91506119fd565b6119fa82620186a0600160801b612fb6565b91505b8160005b8115611a1557600101600a82049150611a01565b60001901600080611a268684613065565b915091508015611a37576001909201915b611a3f613c95565b8515611aac57611a5e611a56602b60ff8716610bea565b600790610c2c565b60ff908116602083015260026080830152611a84906001906102b290602b908816610bea565b60ff90811660a08301526020820151611a9f91166001610bea565b60ff166040820152611b23565b60098460ff1610611af557611ac560ff85166004610bea565b60ff166020820181905260056080830152611ae1906001610bea565b60ff1660a082015260046040820152611b23565b60066020820152600560408201819052611b1a906001906102b29060ff881690610bea565b60ff1660608201525b82815285151560c0820152600060e0820152611b3e81610cc3565b9c9b505050505050505050505050565b60606000826002026001600160401b0381118015611b6b57600080fd5b506040519080825280601f01601f191660200182016040528015611b96576020820181803683370190505b5080519091505b8015611bff576f181899199a1a9b1b9c1cb0b131b232b360811b85600f1660108110611bc557fe5b1a60f81b826001830381518110611bd857fe5b60200101906001600160f81b031916908160001a90535060049490941c9360001901611b9d565b509392505050565b1c60ff1690565b600082611c1d57506000610471565b82820282848281611c2a57fe5b04146105f95760405162461bcd60e51b815260040180806020018281038252602181526020018061520e6021913960400191505060405180910390fd5b6060611cfc8261016001516040516020018080614e086081913960810182805190602001908083835b60208310611caf5780518252601f199092019160209182019101611c90565b6001836020036101000a038019825116818451168082178552505050505050905001806813979f1e17b9bb339f60b91b815250600901915050604051602081830303815290604052610973565b611e5e836101e0015184610200015185610180015160405160200180806149056063913960630184805190602001908083835b60208310611d4e5780518252601f199092019160209182019101611d2f565b51815160209384036101000a600019018019909216911617905265272063793d2760d01b919093019081528551600690910192860191508083835b60208310611da85780518252601f199092019160209182019101611d89565b51815160209384036101000a6000190180199092169116179052722720723d273132307078272066696c6c3d272360681b919093019081528451601390910192850191508083835b60208310611e0f5780518252601f199092019160209182019101611df0565b6001836020036101000a038019825116818451168082178552505050505050905001806813979f1e17b9bb339f60b91b8152506009019350505050604051602081830303815290604052610973565b611eaf846102200151856102400151866101a00151604051602001808061490560639139606301848051906020019080838360208310611d4e5780518252601f199092019160209182019101611d2f565b611fc4856102600151866102800151876101c0015160405160200180806149056063913960630184805190602001908083835b60208310611f015780518252601f199092019160209182019101611ee2565b51815160209384036101000a600019018019909216911617905265272063793d2760d01b919093019081528551600690910192860191508083835b60208310611f5b5780518252601f199092019160209182019101611f3c565b51815160001960209485036101000a01908116901991909116179052722720723d273130307078272066696c6c3d272360681b939091019283528451601390930192908501915080838360208310611e0f5780518252601f199092019160209182019101611df0565b6101608601516040516020018060566146808239605601602c61502f8239651e3232b3399f60d11b602c820152603201604b614d7d8239604b0186805190602001908083835b602083106120295780518252601f19909201916020918201910161200a565b6001836020036101000a038019825116818451168082178552505050505050905001806158b5603e9139603e0185805190602001908083835b602083106120815780518252601f199092019160209182019101612062565b6001836020036101000a03801982511681845116808217855250505050505090500180614e89603e9139603e0184805190602001908083835b602083106120d95780518252601f1990920191602091820191016120ba565b5181516020939093036101000a6000190180199091169216919091179052631110179f60e11b920191825250600401603b6145788239603b0183805190602001908083835b6020831061213d5780518252601f19909201916020918201910161211e565b6001836020036101000a038019825116818451168082178552505050505050905001806149c560999139609901607f6154668239607f01608861582d82396088016041614a5e8239604101605d6159ed8239605d016072615512823960720160496144e1823960490160be614cbf823960be016071614791823960710160756153a982396075016066614a9f823960660160a461505b823960a40160856158f382397f3c6720636c69702d706174683d2275726c2823636f726e65727329223e00000060858201526b1e3932b1ba103334b6361e9160a11b60a2820152825160ae9091019060208401908083835b6020831061224a5780518252601f19909201916020918201910161222b565b6001836020036101000a03801982511681845116808217855250505050505090500180614b0560319139603101604e61452a8239604e01605d6149688239605d016041614fee82396041016052614ec7823960520160756159788239607501955050505050506040516020818303038152906040529050919050565b60608382858488878a896040516020018080615ad060259139602501607d614c428239607d0189805190602001908083835b602083106123175780518252601f1990920191602091820191016122f8565b51815160209384036101000a600019018019909216911617905264010714051160dd1b919093019081528a516005909101928b0191508083835b602083106123705780518252601f199092019160209182019101612351565b6001836020036101000a03801982511681845116808217855250505050505090500180614b36607991396079016086615a4a823960860187805190602001908083835b602083106123d25780518252601f1990920191602091820191016123b3565b51815160209384036101000a600019018019909216911617905264010714051160dd1b919093019081528851600590910192890191508083835b6020831061242b5780518252601f19909201916020918201910161240c565b6001836020036101000a0380198251168184511680821785525050505050509050018061470c60859139608501607b61569b8239607b0185805190602001908083835b6020831061248d5780518252601f19909201916020918201910161246e565b51815160209384036101000a600019018019909216911617905264010714051160dd1b919093019081528651600590910192870191508083835b602083106124e65780518252601f1990920191602091820191016124c7565b6001836020036101000a03801982511681845116808217855250505050505090500180614856605d9139605d0160a3615306823960a30183805190602001908083835b602083106125485780518252601f199092019160209182019101612529565b51815160209384036101000a600019018019909216911617905264010714051160dd1b919093019081528451600590910192850191508083835b602083106125a15780518252601f199092019160209182019101612582565b6001836020036101000a03801982511681845116808217855250505050505090500180614456608b9139608b01985050505050505050506040516020818303038152906040529050949350505050565b606083838360405160200180806145b360cd913960cd0184805190602001908083835b602083106126335780518252601f199092019160209182019101612614565b6001836020036101000a03801982511681845116808217855250505050505090500180602f60f81b81525060010183805190602001908083835b6020831061268c5780518252601f19909201916020918201910161266d565b6001836020036101000a03801982511681845116808217855250505050505090500180615c556077913960770182805190602001908083835b602083106126e45780518252601f1990920191602091820191016126c5565b5181516020939093036101000a60001901801990911692169190911790526a1e17ba32bc3a1f1e17b39f60a91b920191825250600b016073615af58239607301935050505060405160208183030381529060405290509392505050565b606060008260000b6001146127a8578260000b6000191461277f5760405180604001604052806005815260200164236e6f6e6560d81b8152506127a3565b6040518060400160405280600a81526020016911b330b23296b237bbb760b11b8152505b6127ca565b60405180604001604052806008815260200167023666164652d75760c41b8152505b905060006127d98787876130d6565b9050818183836127e888613304565b60405160200180806c078ce40dac2e6d67a44eae4d85609b1b815250600d0186805190602001908083835b602083106128325780518252601f199092019160209182019101612813565b5181516020939093036101000a600019018019909116921691909117905261149160f11b92019182525060020160776150ff823960770185805190602001908083835b602083106128945780518252601f199092019160209182019101612875565b6001836020036101000a038019825116818451168082178552505050505050905001806148026054913960540180700785ece7c78ce40dac2e6d67a44eae4d85607b1b81525060110184805190602001908083835b602083106129085780518252601f1990920191602091820191016128e9565b5181516020939093036101000a600019018019909116921691909117905261149160f11b9201918252506002016029615176823960290160456151c9823960450180681e3830ba3410321e9160b91b81525060090183805190602001908083835b602083106129885780518252601f199092019160209182019101612969565b6001836020036101000a0380198251168184511680821785525050505050509050018061541e6048913960480182805190602001908083835b602083106129e05780518252601f1990920191602091820191016129c1565b6001836020036101000a0380198251168184511680821785525050505050509050019550505050505060405160208183030381529060405292505050949350505050565b60606000612a318461376b565b90506000612a3e8461376b565b865183518251929350600490910191600a9182019101600080612a618a8a613875565b91509150612a7485600401600702610631565b8b612a8486600401600702610631565b89612a9487600401600702610631565b8a878760405160200180806154e5602d9139602d01806c1e3932b1ba103bb4b23a341e9160991b815250600d0189805190602001908083835b60208310612aec5780518252601f199092019160209182019101612acd565b6001836020036101000a03801982511681845116808217855250505050505090500180614f19603d9139603d01608d615b688239608d0188805190602001908083835b60208310612b4e5780518252601f199092019160209182019101612b2f565b5181516020939093036101000a60001901801990911692169190911790526a1e17ba32bc3a1f1e17b39f60a91b920191825250600b01602d615d048239602d01806c1e3932b1ba103bb4b23a341e9160991b815250600d0187805190602001908083835b60208310612bd15780518252601f199092019160209182019101612bb2565b6001836020036101000a03801982511681845116808217855250505050505090500180614f19603d9139603d016093614baf823960930186805190602001908083835b60208310612c335780518252601f199092019160209182019101612c14565b5181516020939093036101000a60001901801990911692169190911790526a1e17ba32bc3a1f1e17b39f60a91b920191825250600b01602d6148b38239602d01806c1e3932b1ba103bb4b23a341e9160991b815250600d0185805190602001908083835b60208310612cb65780518252601f199092019160209182019101612c97565b6001836020036101000a03801982511681845116808217855250505050505090500180614f19603d9139603d016093615716823960930184805190602001908083835b60208310612d185780518252601f199092019160209182019101612cf9565b6001836020036101000a03801982511681845116808217855250505050505090500180615ccc603891396038016060615bf5823960600160646152a2823960640160256148e0823960250183805190602001908083835b60208310612d8e5780518252601f199092019160209182019101612d6f565b51815160209384036101000a6000190180199092169116179052630383c16160e51b919093019081528451600490910192850191508083835b60208310612de65780518252601f199092019160209182019101612dc7565b6001836020036101000a038019825116818451168082178552505050505050905001806146d660369139603601985050505050505050506040516020818303038152906040529750505050505050509392505050565b6060612e488383613b81565b15612e9e5760405160200180608d61560e8239608d01607361522f82396073016071614f7d8239607101608a6155848239608a0160846157a9823960840190506040516020818303038152906040529050610471565b5060408051602081019091526000815292915050565b600080612ecf612eca60ff868116908616613bdf565b613be4565b9050600081118015612ee2575060128111155b15612fa3578260ff168460ff161115612f4c57612f16612f03826002610c84565b6001600160a01b03871690600a0a611c0e565b91506002810660011415612f4757612f44827003298b075b4b6a5240945790619b37fd4a600160801b612fb6565b91505b612f9e565b612f6d612f5a826002610c84565b6001600160a01b03871690600a0a610c84565b91506002810660011415612f9e57612f9b82600160801b7003298b075b4b6a5240945790619b37fd4a612fb6565b91505b611bff565b50506001600160a01b0390921692915050565b6000808060001985870986860292508281109083900303905080612fec5760008411612fe157600080fd5b5082900490506105f9565b808411612ff857600080fd5b6000848688096000868103871696879004966002600389028118808a02820302808a02820302808a02820302808a02820302808a02820302808a02909103029181900381900460010186841190950394909402919094039290920491909117919091029150509392505050565b600080600060058460ff16111561308d5761308a8560ff600419870116600a0a610c84565b94505b60006004600a87061190506130a386600a610c84565b955080156130b2578560010195505b85620186a014156130c857600a86049550600191505b5084925090505b9250929050565b606060008260020b85850360020b816130eb57fe5b05905060048160020b13613133576040518060400160405280601a8152602001794d3120314334312034312031303520313035203134352031343560301b8152509150611bff565b60088160020b1361317757604051806040016040528060198152602001784d31203143333320343920393720313133203134352031343560381b8152509150611bff565b60108160020b136131bb57604051806040016040528060198152602001784d31203143333320353720383920313133203134352031343560381b8152509150611bff565b60208160020b136131ff57604051806040016040528060198152602001784d31203143323520363520383120313231203134352031343560381b8152509150611bff565b60408160020b1361324357604051806040016040528060198152602001784d31203143313720373320373320313239203134352031343560381b8152509150611bff565b60808160020b1361328657604051806040016040528060188152602001774d312031433920383120363520313337203134352031343560401b8152509150611bff565b6101008160020b136132cc576040518060400160405280601a8152602001794d31203143312038392035372e3520313435203134352031343560301b8152509150611bff565b50506040805180820190915260188152774d312031433120393720343920313435203134352031343560401b60208201529392505050565b6040805180820182526002815261373360f01b6020808301919091528251808401845260038082526203139360ec1b82840152845180860186528181526232313760e81b818501528551808701909652908552620ccccd60ea1b928501929092526060939091906001600087900b148061338257508560000b600019145b15613579578560000b60001914613399578161339b565b835b8660000b600019146133ad57816133af565b835b8760000b600019146133c157836133c3565b855b8860000b600019146133d557836133d7565b855b60405160200180806b1e31b4b931b6329031bc1e9160a11b815250600c0185805190602001908083835b602083106134205780518252601f199092019160209182019101613401565b51815160209384036101000a600019018019909216911617905267383c111031bc9e9160c11b919093019081528651600890910192870191508083835b6020831061347c5780518252601f19909201916020918201910161345d565b6001836020036101000a03801982511681845116808217855250505050505090500180614f566027913960270183805190602001908083835b602083106134d45780518252601f1990920191602091820191016134b5565b51815160209384036101000a600019018019909216911617905267383c111031bc9e9160c11b919093019081528451600890910192850191508083835b602083106135305780518252601f199092019160209182019101613511565b6001836020036101000a0380198251168184511680821785525050505050509050018061519f602a9139602a019450505050506040516020818303038152906040529450613762565b8383838360405160200180806b1e31b4b931b6329031bc1e9160a11b815250600c0185805190602001908083835b602083106135c65780518252601f1990920191602091820191016135a7565b51815160209384036101000a600019018019909216911617905267383c111031bc9e9160c11b919093019081528651600890910192870191508083835b602083106136225780518252601f199092019160209182019101613603565b51815160209384036101000a60001901801990921691161790527a383c1110391e911a383c11103334b6361e913bb434ba329110179f60291b919093019081526b1e31b4b931b6329031bc1e9160a11b601b8201528551602790910192860191508083835b602083106136a65780518252601f199092019160209182019101613687565b51815160209384036101000a600019018019909216911617905267383c111031bc9e9160c11b919093019081528451600890910192850191508083835b602083106137025780518252601f1990920191602091820191016136e3565b6001836020036101000a038019825116818451168082178552505050505050905001807a383c1110391e911a383c11103334b6361e913bb434ba329110179f60291b815250601b0194505050505060405160208183030381529060405294505b50505050919050565b6060600060405180602001604052806000815250905060008360020b12156137b15782600019029250604051806040016040528060018152602001602d60f81b81525090505b806137be8460020b610631565b6040516020018083805190602001908083835b602083106137f05780518252601f1990920191602091820191016137d1565b51815160209384036101000a600019018019909216911617905285519190930192850191508083835b602083106138385780518252601f199092019160209182019101613819565b6001836020036101000a03801982511681845116808217855250505050505090500192505050604051602081830303815290604052915050919050565b60608060006002858501810b0590506201e847198160020b12156138d157604051806040016040528060018152602001600760fb1b815250604051806040016040528060018152602001603760f81b81525092509250506130cf565b620124f7198160020b121561392157604051806040016040528060018152602001600760fb1b8152506040518060400160405280600481526020016331302e3560e01b81525092509250506130cf565b6161a7198160020b121561397157604051806040016040528060018152602001600760fb1b8152506040518060400160405280600581526020016431342e323560d81b81525092509250506130cf565b611387198160020b12156139bf5760405180604001604052806002815260200161031360f41b81525060405180604001604052806002815260200161062760f31b81525092509250506130cf565b60008160020b1215613a0b5760405180604001604052806002815260200161313160f01b81525060405180604001604052806002815260200161323160f01b81525092509250506130cf565b6113888160020b1215613a585760405180604001604052806002815260200161313360f01b81525060405180604001604052806002815260200161323360f01b81525092509250506130cf565b6161a88160020b1215613aa55760405180604001604052806002815260200161313560f01b81525060405180604001604052806002815260200161323560f01b81525092509250506130cf565b620124f88160020b1215613af35760405180604001604052806002815260200161062760f31b81525060405180604001604052806002815260200161191b60f11b81525092509250506130cf565b6201e8488160020b1215613b415760405180604001604052806002815260200161323160f01b81525060405180604001604052806002815260200161323760f01b81525092509250506130cf565b604051806040016040528060028152602001610c8d60f21b81525060405180604001604052806002815260200161323760f01b81525092509250506130cf565b6040805160208082018590526001600160601b0319606085901b16828401528251603481840301815260549092019092528051910120600090613bc384613bfb565b60020260010160ff1660001981613bd657fe5b04119392505050565b900390565b600080821215613bf75781600003610471565b5090565b6000808211613c0957600080fd5b600160801b8210613c1c57608091821c91015b600160401b8210613c2f57604091821c91015b600160201b8210613c4257602091821c91015b620100008210613c5457601091821c91015b6101008210613c6557600891821c91015b60108210613c7557600491821c91015b60048210613c8557600291821c91015b6002821061017157600101919050565b6040805161010081018252600080825260208201819052918101829052606081018290526080810182905260a0810182905260c0810182905260e081019190915290565b80356001600160a01b038116811461017157600080fd5b8035801515811461017157600080fd5b8035600281900b811461017157600080fd5b600082601f830112613d22578081fd5b81356001600160401b03811115613d3557fe5b613d48601f8201601f1916602001614402565b818152846020838601011115613d5c578283fd5b816020850160208301379081016020019190915292915050565b803562ffffff8116811461017157600080fd5b803560ff8116811461017157600080fd5b600060208284031215613dab578081fd5b81356001600160401b0380821115613dc1578283fd5b81840191506101c0808387031215613dd7578384fd5b613de081614402565b905082358152613df260208401613cd9565b6020820152613e0360408401613cd9565b6040820152606083013582811115613e19578485fd5b613e2587828601613d12565b606083015250608083013582811115613e3c578485fd5b613e4887828601613d12565b608083015250613e5a60a08401613d89565b60a0820152613e6b60c08401613d89565b60c0820152613e7c60e08401613cf0565b60e08201526101009150613e91828401613d00565b828201526101209150613ea5828401613d00565b828201526101409150613eb9828401613d00565b828201526101609150613ecd828401613d00565b828201526101809150613ee1828401613d76565b828201526101a09150613ef5828401613cd9565b91810191909152949350505050565b60008151613f16818560208601614425565b9290920192915050565b7fe29aa0efb88f20444953434c41494d45523a204475652064696c6967656e636581527f20697320696d7065726174697665207768656e20617373657373696e6720746860208201527f6973204e46542e204d616b65207375726520746f6b656e20616464726573736560408201527f73206d617463682074686520657870656374656420746f6b656e732c2061732060608201527f746f6b656e2073796d626f6c73206d617920626520696d6974617465642e00006080820152609e0190565b632e372e3760e11b815260040190565b60007f54686973204e465420726570726573656e74732061206c69717569646974792082527803837b9b4ba34b7b71034b71030902ab734b9bbb0b8102b199603d1b6020830152855161404b816039850160208a01614425565b602d60f81b603991840191820152855161406c81603a840160208a01614425565b660103837b7b617160cd1b603a92909101918201527f546865206f776e6572206f662074686973204e46542063616e206d6f646966796041820152791037b9103932b232b2b6903a3432903837b9b4ba34b7b7172e3760311b60618201526f02e372837b7b61020b2323932b9b99d160851b607b82015284516140f681608b840160208901614425565b612e3760f11b608b92909101918201526103b1608d820185613f04565b683d913730b6b2911d1160b91b81528451600090614138816009850160208a01614425565b71111610113232b9b1b934b83a34b7b7111d1160711b600991840191820152855161416a81601b840160208a01614425565b855191019061418081601b840160208901614425565b6c1116101134b6b0b3b2911d101160991b601b92909101918201527919185d184e9a5b5859d94bdcdd99cade1b5b0ed8985cd94d8d0b60321b602882015283516141d1816042840160208801614425565b61227d60f01b604292909101918201526044019695505050505050565b60006902ab734b9bbb0b81016960b51b8252865161421381600a850160208b01614425565b80830190506201016960ed1b80600a830152875161423881600d850160208c01614425565b602f60f81b600d9390910192830152865161425a81600e850160208b01614425565b600e9201918201528451614275816011840160208901614425565b611e1f60f11b601192909101918201528351614298816013840160208801614425565b01601301979650505050505050565b60006901020b2323932b9b99d160b51b80835287516142cd81600a860160208c01614425565b612e3760f11b600a9185019182015287516142ef81600c840160208c01614425565b01600c81019190915285519061430c826016830160208a01614425565b8181019150506b02e372332b2902a34b2b91d160a51b6016820152845161433a816022840160208901614425565b6b02e372a37b5b2b71024a21d160a51b60229290910191820152835161436781602e840160208801614425565b61437d614378602e83850101613fe1565b613f20565b9998505050505050505050565b60007f646174613a6170706c69636174696f6e2f6a736f6e3b6261736536342c000000825282516143c281601d850160208701614425565b91909101601d0192915050565b60006020825282518060208401526143ee816040850160208701614425565b601f01601f19169190910160400192915050565b6040518181016001600160401b038111828210171561441d57fe5b604052919050565b60005b83811015614440578181015183820152602001614428565b8381111561444f576000848401525b5050505056fe203c616e696d6174652061646469746976653d2273756d22206174747269627574654e616d653d2273746172744f6666736574222066726f6d3d2230252220746f3d22313030252220626567696e3d22307322206475723d223330732220726570656174436f756e743d22696e646566696e69746522202f3e3c2f74657874506174683e3c2f746578743e3c73746f70206f66667365743d222e39222073746f702d636f6c6f723d227768697465222073746f702d6f7061636974793d223022202f3e3c2f6c696e6561724772616469656e743e3c72656374207374796c653d2266696c7465723a2075726c28236631292220783d223070782220793d22307078222077696474683d22323930707822206865696768743d22353030707822202f3e3c6665496d61676520726573756c743d2270332220786c696e6b3a687265663d22646174613a696d6167652f7376672b786d6c3b6261736536342c3c67206d61736b3d2275726c2823666164652d73796d626f6c29223e3c726563742066696c6c3d226e6f6e652220783d223070782220793d22307078222077696474683d22323930707822206865696768743d22323030707822202f3e203c7465787420793d22373070782220783d2233327078222066696c6c3d2277686974652220666f6e742d66616d696c793d2227436f7572696572204e6577272c206d6f6e6f73706163652220666f6e742d7765696768743d223230302220666f6e742d73697a653d2233367078223e3c7376672077696474683d2232393022206865696768743d22353030222076696577426f783d2230203020323930203530302220786d6c6e733d22687474703a2f2f7777772e77332e6f72672f323030302f7376672270782c2030707829222063783d22307078222063793d223070782220723d22347078222066696c6c3d227768697465222f3e3c2f673e203c616e696d6174652061646469746976653d2273756d22206174747269627574654e616d653d2273746172744f6666736574222066726f6d3d2230252220746f3d22313030252220626567696e3d22307322206475723d223330732220726570656174436f756e743d22696e646566696e69746522202f3e203c2f74657874506174683e3c6d61736b2069643d22666164652d757022206d61736b436f6e74656e74556e6974733d226f626a656374426f756e64696e67426f78223e3c726563742077696474683d223122206865696768743d2231222066696c6c3d2275726c2823677261642d75702922202f3e3c2f6d61736b3e22207374726f6b653d227267626128302c302c302c302e332922207374726f6b652d77696474683d2233327078222066696c6c3d226e6f6e6522207374726f6b652d6c696e656361703d22726f756e6422202f3e203c616e696d6174652061646469746976653d2273756d22206174747269627574654e616d653d2273746172744f6666736574222066726f6d3d2230252220746f3d22313030252220626567696e3d22307322206475723d2233307322203c67207374796c653d227472616e73666f726d3a7472616e736c61746528323970782c20343434707829223e3c636972636c65207374796c653d227472616e73666f726d3a7472616e736c6174653364283c7376672077696474683d2732393027206865696768743d27353030272076696577426f783d2730203020323930203530302720786d6c6e733d27687474703a2f2f7777772e77332e6f72672f323030302f737667273e3c636972636c652063783d27203c67207374796c653d2266696c7465723a75726c2823746f702d726567696f6e2d626c7572293b207472616e73666f726d3a7363616c6528312e35293b207472616e73666f726d2d6f726967696e3a63656e74657220746f703b223e22202f3e3c6665426c656e64206d6f64653d226f7665726c61792220696e3d2270302220696e323d22703122202f3e3c6665426c656e64206d6f64653d226578636c7573696f6e2220696e323d22703222202f3e3c6665426c656e64206d6f64653d226f7665726c61792220696e323d2270332220726573756c743d22626c656e644f757422202f3e3c6665476175737369616e426c7572203c706174682069643d226d696e696d61702220643d224d3233342034343443323334203435372e393439203234322e323120343633203235332034363322202f3e3c6d61736b2069643d226e6f6e6522206d61736b436f6e74656e74556e6974733d226f626a656374426f756e64696e67426f78223e3c726563742077696474683d223122206865696768743d2231222066696c6c3d22776869746522202f3e3c2f6d61736b3e2220783d223070782220793d22307078222077696474683d22323930707822206865696768743d22353030707822202f3e203c616e696d6174652061646469746976653d2273756d22206174747269627574654e616d653d2273746172744f6666736574222066726f6d3d2230252220746f3d22313030252220626567696e3d22307322206475723d223330732220726570656174436f756e743d22696e646566696e69746522202f3e3c7465787420783d22313270782220793d22313770782220666f6e742d66616d696c793d2227436f7572696572204e6577272c206d6f6e6f73706163652220666f6e742d73697a653d2231327078222066696c6c3d227768697465223e3c747370616e2066696c6c3d2272676261283235352c3235352c3235352c302e3629223e4d696e205469636b3a203c2f747370616e3e3c74657874506174682073746172744f66667365743d222d31303025222066696c6c3d2277686974652220666f6e742d66616d696c793d2227436f7572696572204e6577272c206d6f6e6f73706163652220666f6e742d73697a653d22313070782220786c696e6b3a687265663d2223746578742d706174682d61223e3c6c696e6561724772616469656e742069643d22677261642d646f776e222078313d2230222078323d2231222079313d2230222079323d2231223e3c73746f70206f66667365743d22302e30222073746f702d636f6c6f723d227768697465222073746f702d6f7061636974793d223122202f3e3c73746f70206f66667365743d22302e39222073746f702d636f6c6f723d227768697465222073746f702d6f7061636974793d223022202f3e3c2f6c696e6561724772616469656e743e3c66696c7465722069643d226631223e3c6665496d61676520726573756c743d2270302220786c696e6b3a687265663d22646174613a696d6167652f7376672b786d6c3b6261736536342c4142434445464748494a4b4c4d4e4f505152535455565758595a6162636465666768696a6b6c6d6e6f707172737475767778797a303132333435363738392d5f3c7376672077696474683d2732393027206865696768743d27353030272076696577426f783d2730203020323930203530302720786d6c6e733d27687474703a2f2f7777772e77332e6f72672f323030302f737667273e3c726563742077696474683d27323930707827206865696768743d273530307078272066696c6c3d2723222f3e3c6665496d61676520726573756c743d2270322220786c696e6b3a687265663d22646174613a696d6167652f7376672b786d6c3b6261736536342c3c656c6c697073652063783d22353025222063793d22307078222072783d223138307078222072793d223132307078222066696c6c3d222330303022206f7061636974793d22302e383522202f3e3c2f673e707822206865696768743d2232367078222072783d22387078222072793d22387078222066696c6c3d227267626128302c302c302c302e362922202f3e70782220723d22347078222066696c6c3d22776869746522202f3e3c636972636c652063783d2231312e333437384c32342031324c31342e343334312031322e363532324c32322e333932332031384c31332e373831392031332e373831394c31382032322e333932334c31322e363532322031342e343334314c31322032344c31312e333437382031342e343334314c362032322e33393c726563742066696c6c3d226e6f6e652220783d223070782220793d22307078222077696474683d22323930707822206865696768743d22353030707822202f3e20786d6c6e733a786c696e6b3d27687474703a2f2f7777772e77332e6f72672f313939392f786c696e6b273e3c6c696e6561724772616469656e742069643d22677261642d73796d626f6c223e3c73746f70206f66667365743d22302e37222073746f702d636f6c6f723d227768697465222073746f702d6f7061636974793d223122202f3e3c73746f70206f66667365743d222e3935222073746f702d636f6c6f723d227768697465222073746f702d6f7061636974793d223022202f3e3c2f6c696e6561724772616469656e743e207374796c653d227472616e73666f726d3a7472616e736c61746528373270782c313839707829223e3c7265637420783d222d313670782220793d222d31367078222077696474683d22313830707822206865696768743d223138307078222066696c6c3d226e6f6e6522202f3e3c7061746820643d22207374796c653d227472616e73666f726d3a7472616e736c61746528373270782c313839707829223e70782220723d2232347078222066696c6c3d226e6f6e6522207374726f6b653d22776869746522202f3e3c7265637420783d222d313670782220793d222d31367078222077696474683d22313830707822206865696768743d223138307078222066696c6c3d226e6f6e6522202f3e536166654d6174683a206d756c7469706c69636174696f6e206f766572666c6f773c673e3c70617468207374796c653d227472616e73666f726d3a7472616e736c617465283670782c367078292220643d224d313220304c31322e3635323220392e35363538374c313820312e363037374c31332e373831392031302e323138314c32322e3339323320364c31342e34333431203c70617468207374726f6b652d6c696e656361703d22726f756e642220643d224d38203943382e30303030342032322e393439342031362e32303939203238203237203238222066696c6c3d226e6f6e6522207374726f6b653d22776869746522202f3e20726570656174436f756e743d22696e646566696e69746522202f3e3c2f74657874506174683e3c74657874506174682073746172744f66667365743d222d353025222066696c6c3d2277686974652220666f6e742d66616d696c793d2227436f7572696572204e6577272c206d6f6e6f73706163652220666f6e742d73697a653d22313070782220786c696e6b3a687265663d2223746578742d706174682d61223e3c6d61736b2069643d22666164652d646f776e22206d61736b436f6e74656e74556e6974733d226f626a656374426f756e64696e67426f78223e3c726563742077696474683d223122206865696768743d2231222066696c6c3d2275726c2823677261642d646f776e2922202f3e3c2f6d61736b3e22207374726f6b653d2272676261283235352c3235352c3235352c3129222066696c6c3d226e6f6e6522207374726f6b652d6c696e656361703d22726f756e6422202f3e3c2f673e696e3d22626c656e644f75742220737464446576696174696f6e3d22343222202f3e3c2f66696c7465723e203c636c6970506174682069643d22636f726e657273223e3c726563742077696474683d2232393022206865696768743d22353030222072783d223432222072793d22343222202f3e3c2f636c6970506174683e203c67207374796c653d227472616e73666f726d3a7472616e736c61746528323970782c20333834707829223e3c6c696e6561724772616469656e742069643d22677261642d7570222078313d2231222078323d2230222079313d2231222079323d2230223e3c73746f70206f66667365743d22302e30222073746f702d636f6c6f723d227768697465222073746f702d6f7061636974793d223122202f3e32334c31302e323138312031332e373831394c312e363037372031384c392e35363538372031322e363532324c302031324c392e35363538372031312e333437384c312e3630373720364c31302e323138312031302e323138314c3620312e363037374c31312e3334373820392e35363538374c313220305a222066696c6c3d22776869746522202f3e3c67207374796c653d227472616e73666f726d3a7472616e736c6174652832323670782c20333932707829223e3c726563742077696474683d223336707822206865696768743d2233367078222072783d22387078222072793d22387078222066696c6c3d226e6f6e6522207374726f6b653d2272676261283235352c3235352c3235352c302e322922202f3e3c74657874506174682073746172744f66667365743d22353025222066696c6c3d2277686974652220666f6e742d66616d696c793d2227436f7572696572204e6577272c206d6f6e6f73706163652220666f6e742d73697a653d22313070782220786c696e6b3a687265663d2223746578742d706174682d61223e3c7465787420783d22313270782220793d22313770782220666f6e742d66616d696c793d2227436f7572696572204e6577272c206d6f6e6f73706163652220666f6e742d73697a653d2231327078222066696c6c3d227768697465223e3c747370616e2066696c6c3d2272676261283235352c3235352c3235352c302e3629223e4d6178205469636b3a203c2f747370616e3e3c616e696d6174655472616e73666f726d206174747269627574654e616d653d227472616e73666f726d2220747970653d22726f74617465222066726f6d3d22302031382031382220746f3d2233363020313820313822206475723d223130732220726570656174436f756e743d22696e646566696e697465222f3e3c2f673e3c2f673e3c706174682069643d22746578742d706174682d612220643d224d34302031322048323530204132382032382030203020312032373820343020563436302041323820323820302030203120323530203438382048343020413238203238203020302031203132203436302056343020413238203238203020302031203430203132207a22202f3e222f3e3c6665496d61676520726573756c743d2270312220786c696e6b3a687265663d22646174613a696d6167652f7376672b786d6c3b6261736536342c3c6d61736b2069643d22666164652d73796d626f6c22206d61736b436f6e74656e74556e6974733d227573657253706163654f6e557365223e3c726563742077696474683d22323930707822206865696768743d223230307078222066696c6c3d2275726c2823677261642d73796d626f6c2922202f3e3c2f6d61736b3e3c2f646566733e3c7265637420783d22302220793d2230222077696474683d2232393022206865696768743d22353030222072783d223432222072793d223432222066696c6c3d227267626128302c302c302c302922207374726f6b653d2272676261283235352c3235352c3235352c302e322922202f3e3c2f673e3c66696c7465722069643d22746f702d726567696f6e2d626c7572223e3c6665476175737369616e426c757220696e3d22536f75726365477261706869632220737464446576696174696f6e3d22323422202f3e3c2f66696c7465723e3c2f74657874506174683e203c74657874506174682073746172744f66667365743d223025222066696c6c3d2277686974652220666f6e742d66616d696c793d2227436f7572696572204e6577272c206d6f6e6f73706163652220666f6e742d73697a653d22313070782220786c696e6b3a687265663d2223746578742d706174682d61223e3c7465787420746578742d72656e646572696e673d226f7074696d697a655370656564223e3c7265637420783d2231362220793d223136222077696474683d2232353822206865696768743d22343638222072783d223236222072793d223236222066696c6c3d227267626128302c302c302c302922207374726f6b653d2272676261283235352c3235352c3235352c302e322922202f3e3c7465787420783d22313270782220793d22313770782220666f6e742d66616d696c793d2227436f7572696572204e6577272c206d6f6e6f73706163652220666f6e742d73697a653d2231327078222066696c6c3d227768697465223e3c747370616e2066696c6c3d2272676261283235352c3235352c3235352c302e3629223e49443a203c2f747370616e3e3c726563742077696474683d223336707822206865696768743d2233367078222072783d22387078222072793d22387078222066696c6c3d226e6f6e6522207374726f6b653d2272676261283235352c3235352c3235352c302e322922202f3e3c2f746578743e3c7465787420793d2231313570782220783d2233327078222066696c6c3d2277686974652220666f6e742d66616d696c793d2227436f7572696572204e6577272c206d6f6e6f73706163652220666f6e742d7765696768743d223230302220666f6e742d73697a653d2233367078223e3c2f746578743e3c2f673e3c67207374796c653d227472616e73666f726d3a7472616e736c6174652832323670782c20343333707829223e203c67207374796c653d227472616e73666f726d3a7472616e736c61746528323970782c20343134707829223ea26469706673582212208f654011aaeb7c1aa5294e6acab8e4ddd89dc80f71a87034eb401088a2a5325e64736f6c63430007060033",
  "immutableReferences": {},
  "source": "// SPDX-License-Identifier: GPL-2.0-or-later\npragma solidity >=0.7.0;\npragma abicoder v2;\n\nimport '../interfaces/IUniswapV3Pool.sol';\nimport './TickMath.sol';\nimport './BitMath.sol';\nimport './FullMath.sol';\nimport '../Strings.sol';\nimport './SafeMath.sol';\nimport './SignedSafeMath.sol';\nimport '../Base64.sol';\nimport './HexStrings.sol';\nimport './NFTSVG.sol';\n\nlibrary NFTDescriptor {\n    using TickMath for int24;\n    using Strings for uint256;\n    using SafeMath for uint256;\n    using SafeMath for uint160;\n    using SafeMath for uint8;\n    using SignedSafeMath for int256;\n    using HexStrings for uint256;\n\n    uint256 constant sqrt10X128 = 1076067327063303206878105757264492625226;\n\n    struct ConstructTokenURIParams {\n        uint256 tokenId;\n        address quoteTokenAddress;\n        address baseTokenAddress;\n        string quoteTokenSymbol;\n        string baseTokenSymbol;\n        uint8 quoteTokenDecimals;\n        uint8 baseTokenDecimals;\n        bool flipRatio;\n        int24 tickLower;\n        int24 tickUpper;\n        int24 tickCurrent;\n        int24 tickSpacing;\n        uint24 fee;\n        address poolAddress;\n    }\n\n    function constructTokenURI(ConstructTokenURIParams memory params) public pure returns (string memory) {\n        string memory name = generateName(params, feeToPercentString(params.fee));\n        string memory descriptionPartOne =\n            generateDescriptionPartOne(\n                escapeQuotes(params.quoteTokenSymbol),\n                escapeQuotes(params.baseTokenSymbol),\n                addressToString(params.poolAddress)\n            );\n        string memory descriptionPartTwo =\n            generateDescriptionPartTwo(\n                params.tokenId.toString(),\n                escapeQuotes(params.baseTokenSymbol),\n                addressToString(params.quoteTokenAddress),\n                addressToString(params.baseTokenAddress),\n                feeToPercentString(params.fee)\n            );\n        string memory buff = string(generateSVGImage(params));\n        string memory image = Base64.encode(buff);\n\n        return\n            string(\n                abi.encodePacked(\n                    'data:application/json;base64,',\n                    Base64.encode(\n                        string(\n                            abi.encodePacked(\n                                '{\"name\":\"',\n                                name,\n                                '\", \"description\":\"',\n                                descriptionPartOne,\n                                descriptionPartTwo,\n                                '\", \"image\": \"',\n                                'data:image/svg+xml;base64,',\n                                image,\n                                '\"}'\n                            )\n                        )\n                    )\n                )\n            );\n    }\n\n    function escapeQuotes(string memory symbol) internal pure returns (string memory) {\n        bytes memory symbolBytes = bytes(symbol);\n        uint8 quotesCount = 0;\n        for (uint8 i = 0; i < symbolBytes.length; i++) {\n            if (symbolBytes[i] == '\"') {\n                quotesCount++;\n            }\n        }\n        if (quotesCount > 0) {\n            bytes memory escapedBytes = new bytes(symbolBytes.length + (quotesCount));\n            uint256 index;\n            for (uint8 i = 0; i < symbolBytes.length; i++) {\n                if (symbolBytes[i] == '\"') {\n                    escapedBytes[index++] = '\\\\';\n                }\n                escapedBytes[index++] = symbolBytes[i];\n            }\n            return string(escapedBytes);\n        }\n        return symbol;\n    }\n\n    function generateDescriptionPartOne(\n        string memory quoteTokenSymbol,\n        string memory baseTokenSymbol,\n        string memory poolAddress\n    ) private pure returns (string memory) {\n        return\n            string(\n                abi.encodePacked(\n                    'This NFT represents a liquidity position in a Uniswap V3 ',\n                    quoteTokenSymbol,\n                    '-',\n                    baseTokenSymbol,\n                    ' pool. ',\n                    'The owner of this NFT can modify or redeem the position.\\\\n',\n                    '\\\\nPool Address: ',\n                    poolAddress,\n                    '\\\\n',\n                    quoteTokenSymbol\n                )\n            );\n    }\n\n    function generateDescriptionPartTwo(\n        string memory tokenId,\n        string memory baseTokenSymbol,\n        string memory quoteTokenAddress,\n        string memory baseTokenAddress,\n        string memory feeTier\n    ) private pure returns (string memory) {\n        return\n            string(\n                abi.encodePacked(\n                    ' Address: ',\n                    quoteTokenAddress,\n                    '\\\\n',\n                    baseTokenSymbol,\n                    ' Address: ',\n                    baseTokenAddress,\n                    '\\\\nFee Tier: ',\n                    feeTier,\n                    '\\\\nToken ID: ',\n                    tokenId,\n                    '\\\\n\\\\n',\n                    unicode' DISCLAIMER: Due diligence is imperative when assessing this NFT. Make sure token addresses match the expected tokens, as token symbols may be imitated.'\n                )\n            );\n    }\n\n    function generateName(ConstructTokenURIParams memory params, string memory feeTier)\n        private\n        pure\n        returns (string memory)\n    {\n        return\n            string(\n                abi.encodePacked(\n                    'Uniswap - ',\n                    feeTier,\n                    ' - ',\n                    escapeQuotes(params.quoteTokenSymbol),\n                    '/',\n                    escapeQuotes(params.baseTokenSymbol),\n                    ' - ',\n                    tickToDecimalString(\n                        !params.flipRatio ? params.tickLower : params.tickUpper,\n                        params.tickSpacing,\n                        params.baseTokenDecimals,\n                        params.quoteTokenDecimals,\n                        params.flipRatio\n                    ),\n                    '<>',\n                    tickToDecimalString(\n                        !params.flipRatio ? params.tickUpper : params.tickLower,\n                        params.tickSpacing,\n                        params.baseTokenDecimals,\n                        params.quoteTokenDecimals,\n                        params.flipRatio\n                    )\n                )\n            );\n    }\n\n    struct DecimalStringParams {\n        // significant figures of decimal\n        uint256 sigfigs;\n        // length of decimal string\n        uint8 bufferLength;\n        // ending index for significant figures (funtion works backwards when copying sigfigs)\n        uint8 sigfigIndex;\n        // index of decimal place (0 if no decimal)\n        uint8 decimalIndex;\n        // start index for trailing/leading 0's for very small/large numbers\n        uint8 zerosStartIndex;\n        // end index for trailing/leading 0's for very small/large numbers\n        uint8 zerosEndIndex;\n        // true if decimal number is less than one\n        bool isLessThanOne;\n        // true if string should include \"%\"\n        bool isPercent;\n    }\n\n    function generateDecimalString(DecimalStringParams memory params) private pure returns (string memory) {\n        bytes memory buffer = new bytes(params.bufferLength);\n        if (params.isPercent) {\n            buffer[buffer.length - 1] = '%';\n        }\n        if (params.isLessThanOne) {\n            buffer[0] = '0';\n            buffer[1] = '.';\n        }\n\n        // add leading/trailing 0's\n        for (uint256 zerosCursor = params.zerosStartIndex; zerosCursor < params.zerosEndIndex.add(1); zerosCursor++) {\n            buffer[zerosCursor] = bytes1(uint8(48));\n        }\n        // add sigfigs\n        while (params.sigfigs > 0) {\n            if (params.decimalIndex > 0 && params.sigfigIndex == params.decimalIndex) {\n                buffer[params.sigfigIndex--] = '.';\n            }\n            buffer[params.sigfigIndex--] = bytes1(uint8(uint256(48).add(params.sigfigs % 10)));\n            params.sigfigs /= 10;\n        }\n        return string(buffer);\n    }\n\n    function tickToDecimalString(\n        int24 tick,\n        int24 tickSpacing,\n        uint8 baseTokenDecimals,\n        uint8 quoteTokenDecimals,\n        bool flipRatio\n    ) internal pure returns (string memory) {\n        if (tick == (TickMath.MIN_TICK / tickSpacing) * tickSpacing) {\n            return !flipRatio ? 'MIN' : 'MAX';\n        } else if (tick == (TickMath.MAX_TICK / tickSpacing) * tickSpacing) {\n            return !flipRatio ? 'MAX' : 'MIN';\n        } else {\n            uint160 sqrtRatioX96 = TickMath.getSqrtRatioAtTick(tick);\n            if (flipRatio) {\n                sqrtRatioX96 = uint160(uint256(1 << 192).div(sqrtRatioX96));\n            }\n            return fixedPointToDecimalString(sqrtRatioX96, baseTokenDecimals, quoteTokenDecimals);\n        }\n    }\n\n    function sigfigsRounded(uint256 value, uint8 digits) private pure returns (uint256, bool) {\n        bool extraDigit;\n        if (digits > 5) {\n            value = value.div((10**(digits - 5)));\n        }\n        bool roundUp = value % 10 > 4;\n        value = value.div(10);\n        if (roundUp) {\n            value = value + 1;\n        }\n        // 99999 -> 100000 gives an extra sigfig\n        if (value == 100000) {\n            value /= 10;\n            extraDigit = true;\n        }\n        return (value, extraDigit);\n    }\n\n    function adjustForDecimalPrecision(\n        uint160 sqrtRatioX96,\n        uint8 baseTokenDecimals,\n        uint8 quoteTokenDecimals\n    ) private pure returns (uint256 adjustedSqrtRatioX96) {\n        uint256 difference = abs(int256(baseTokenDecimals).sub(int256(quoteTokenDecimals)));\n        if (difference > 0 && difference <= 18) {\n            if (baseTokenDecimals > quoteTokenDecimals) {\n                adjustedSqrtRatioX96 = sqrtRatioX96.mul(10**(difference.div(2)));\n                if (difference % 2 == 1) {\n                    adjustedSqrtRatioX96 = FullMath.mulDiv(adjustedSqrtRatioX96, sqrt10X128, 1 << 128);\n                }\n            } else {\n                adjustedSqrtRatioX96 = sqrtRatioX96.div(10**(difference.div(2)));\n                if (difference % 2 == 1) {\n                    adjustedSqrtRatioX96 = FullMath.mulDiv(adjustedSqrtRatioX96, 1 << 128, sqrt10X128);\n                }\n            }\n        } else {\n            adjustedSqrtRatioX96 = uint256(sqrtRatioX96);\n        }\n    }\n\n    function abs(int256 x) private pure returns (uint256) {\n        return uint256(x >= 0 ? x : -x);\n    }\n\n    // @notice Returns string that includes first 5 significant figures of a decimal number\n    // @param sqrtRatioX96 a sqrt price\n    function fixedPointToDecimalString(\n        uint160 sqrtRatioX96,\n        uint8 baseTokenDecimals,\n        uint8 quoteTokenDecimals\n    ) internal pure returns (string memory) {\n        uint256 adjustedSqrtRatioX96 = adjustForDecimalPrecision(sqrtRatioX96, baseTokenDecimals, quoteTokenDecimals);\n        uint256 value = FullMath.mulDiv(adjustedSqrtRatioX96, adjustedSqrtRatioX96, 1 << 64);\n\n        bool priceBelow1 = adjustedSqrtRatioX96 < 2**96;\n        if (priceBelow1) {\n            // 10 ** 43 is precision needed to retreive 5 sigfigs of smallest possible price + 1 for rounding\n            value = FullMath.mulDiv(value, 10**44, 1 << 128);\n        } else {\n            // leave precision for 4 decimal places + 1 place for rounding\n            value = FullMath.mulDiv(value, 10**5, 1 << 128);\n        }\n\n        // get digit count\n        uint256 temp = value;\n        uint8 digits;\n        while (temp != 0) {\n            digits++;\n            temp /= 10;\n        }\n        // don't count extra digit kept for rounding\n        digits = digits - 1;\n\n        // address rounding\n        (uint256 sigfigs, bool extraDigit) = sigfigsRounded(value, digits);\n        if (extraDigit) {\n            digits++;\n        }\n\n        DecimalStringParams memory params;\n        if (priceBelow1) {\n            // 7 bytes ( \"0.\" and 5 sigfigs) + leading 0's bytes\n            params.bufferLength = uint8(uint8(7).add(uint8(43).sub(digits)));\n            params.zerosStartIndex = 2;\n            params.zerosEndIndex = uint8(uint256(43).sub(digits).add(1));\n            params.sigfigIndex = uint8(params.bufferLength.sub(1));\n        } else if (digits >= 9) {\n            // no decimal in price string\n            params.bufferLength = uint8(digits.sub(4));\n            params.zerosStartIndex = 5;\n            params.zerosEndIndex = uint8(params.bufferLength.sub(1));\n            params.sigfigIndex = 4;\n        } else {\n            // 5 sigfigs surround decimal\n            params.bufferLength = 6;\n            params.sigfigIndex = 5;\n            params.decimalIndex = uint8(digits.sub(5).add(1));\n        }\n        params.sigfigs = sigfigs;\n        params.isLessThanOne = priceBelow1;\n        params.isPercent = false;\n\n        return generateDecimalString(params);\n    }\n\n    // @notice Returns string as decimal percentage of fee amount.\n    // @param fee fee amount\n    function feeToPercentString(uint24 fee) internal pure returns (string memory) {\n        if (fee == 0) {\n            return '0%';\n        }\n        uint24 temp = fee;\n        uint256 digits;\n        uint8 numSigfigs;\n        while (temp != 0) {\n            if (numSigfigs > 0) {\n                // count all digits preceding least significant figure\n                numSigfigs++;\n            } else if (temp % 10 != 0) {\n                numSigfigs++;\n            }\n            digits++;\n            temp /= 10;\n        }\n\n        DecimalStringParams memory params;\n        uint256 nZeros;\n        if (digits >= 5) {\n            // if decimal > 1 (5th digit is the ones place)\n            uint256 decimalPlace = digits.sub(numSigfigs) >= 4 ? 0 : 1;\n            nZeros = digits.sub(5) < (numSigfigs.sub(1)) ? 0 : digits.sub(5).sub(numSigfigs.sub(1));\n            params.zerosStartIndex = numSigfigs;\n            params.zerosEndIndex = uint8(params.zerosStartIndex.add(nZeros).sub(1));\n            params.sigfigIndex = uint8(params.zerosStartIndex.sub(1).add(decimalPlace));\n            params.bufferLength = uint8(nZeros.add(numSigfigs.add(1)).add(decimalPlace));\n        } else {\n            // else if decimal < 1\n            nZeros = uint256(5).sub(digits);\n            params.zerosStartIndex = 2;\n            params.zerosEndIndex = uint8(nZeros.add(params.zerosStartIndex).sub(1));\n            params.bufferLength = uint8(nZeros.add(numSigfigs.add(2)));\n            params.sigfigIndex = uint8((params.bufferLength).sub(2));\n            params.isLessThanOne = true;\n        }\n        params.sigfigs = uint256(fee).div(10**(digits.sub(numSigfigs)));\n        params.isPercent = true;\n        params.decimalIndex = digits > 4 ? uint8(digits.sub(4)) : 0;\n\n        return generateDecimalString(params);\n    }\n\n    function addressToString(address addr) internal pure returns (string memory) {\n        uint256 addStr = uint256(addr);\n        return (uint256(addr)).toHexString(20);\n    }\n\n    function generateSVGImage(ConstructTokenURIParams memory params) internal pure returns (string memory svg) {\n        NFTSVG.SVGParams memory svgParams =\n            NFTSVG.SVGParams({\n                quoteToken: addressToString(params.quoteTokenAddress),\n                baseToken: addressToString(params.baseTokenAddress),\n                poolAddress: params.poolAddress,\n                quoteTokenSymbol: params.quoteTokenSymbol,\n                baseTokenSymbol: params.baseTokenSymbol,\n                feeTier: feeToPercentString(params.fee),\n                tickLower: params.tickLower,\n                tickUpper: params.tickUpper,\n                tickSpacing: params.tickSpacing,\n                overRange: overRange(params.tickLower, params.tickUpper, params.tickCurrent),\n                tokenId: params.tokenId,\n                color0: tokenToColorHex(uint256(params.quoteTokenAddress), 136),\n                color1: tokenToColorHex(uint256(params.baseTokenAddress), 136),\n                color2: tokenToColorHex(uint256(params.quoteTokenAddress), 0),\n                color3: tokenToColorHex(uint256(params.baseTokenAddress), 0),\n                x1: scale(getCircleCoord(uint256(params.quoteTokenAddress), 16, params.tokenId), 0, 255, 16, 274),\n                y1: scale(getCircleCoord(uint256(params.baseTokenAddress), 16, params.tokenId), 0, 255, 100, 484),\n                x2: scale(getCircleCoord(uint256(params.quoteTokenAddress), 32, params.tokenId), 0, 255, 16, 274),\n                y2: scale(getCircleCoord(uint256(params.baseTokenAddress), 32, params.tokenId), 0, 255, 100, 484),\n                x3: scale(getCircleCoord(uint256(params.quoteTokenAddress), 48, params.tokenId), 0, 255, 16, 274),\n                y3: scale(getCircleCoord(uint256(params.baseTokenAddress), 48, params.tokenId), 0, 255, 100, 484)\n            });\n\n        return NFTSVG.generateSVG(svgParams);\n    }\n\n    function overRange(\n        int24 tickLower,\n        int24 tickUpper,\n        int24 tickCurrent\n    ) private pure returns (int8) {\n        if (tickCurrent < tickLower) {\n            return -1;\n        } else if (tickCurrent > tickUpper) {\n            return 1;\n        } else {\n            return 0;\n        }\n    }\n\n    function scale(\n        uint256 n,\n        uint256 inMn,\n        uint256 inMx,\n        uint256 outMn,\n        uint256 outMx\n    ) private pure returns (string memory) {\n        return (n.sub(inMn).mul(outMx.sub(outMn)).div(inMx.sub(inMn)).add(outMn)).toString();\n    }\n\n    function tokenToColorHex(uint256 token, uint256 offset) internal pure returns (string memory str) {\n        return string((token >> offset).toHexStringNoPrefix(3));\n    }\n\n    function getCircleCoord(\n        uint256 tokenAddress,\n        uint256 offset,\n        uint256 tokenId\n    ) internal pure returns (uint256) {\n        return (sliceTokenHex(tokenAddress, offset) * tokenId) % 255;\n    }\n\n    function sliceTokenHex(uint256 token, uint256 offset) internal pure returns (uint256) {\n        return uint256(uint8(token >> offset));\n    }\n}\n",
  "sourcePath": "/home/jerry/ethereum/uniswap/smart-router-ctr/contracts/libraries/NFTDescriptor.sol",
  "compiler": {
    "name": "solc",
    "version": "0.7.6+commit.7338295f.Emscripten.clang"
  },
  "schemaVersion": "3.4.10",
  "updatedAt": "2022-11-07T21:58:02.558Z",
  "devdoc": {
    "kind": "dev",
    "methods": {},
    "version": 1
  },
  "userdoc": {
    "kind": "user",
    "methods": {},
    "version": 1
  }
}