{
  "contractName": "SwapRouter02",
  "abi": [
    {
      "inputs": [
        {
          "internalType": "address",
          "name": "_factoryV2",
          "type": "address"
        },
        {
          "internalType": "address",
          "name": "factoryV3",
          "type": "address"
        },
        {
          "internalType": "address",
          "name": "_positionManager",
          "type": "address"
        },
        {
          "internalType": "address",
          "name": "_WETH9",
          "type": "address"
        }
      ],
      "stateMutability": "nonpayable",
      "type": "constructor"
    },
    {
      "inputs": [],
      "name": "WETH9",
      "outputs": [
        {
          "internalType": "address",
          "name": "",
          "type": "address"
        }
      ],
      "stateMutability": "view",
      "type": "function",
      "constant": true
    },
    {
      "inputs": [
        {
          "internalType": "address",
          "name": "token",
          "type": "address"
        }
      ],
      "name": "approveMax",
      "outputs": [],
      "stateMutability": "payable",
      "type": "function",
      "payable": true
    },
    {
      "inputs": [
        {
          "internalType": "address",
          "name": "token",
          "type": "address"
        }
      ],
      "name": "approveMaxMinusOne",
      "outputs": [],
      "stateMutability": "payable",
      "type": "function",
      "payable": true
    },
    {
      "inputs": [
        {
          "internalType": "address",
          "name": "token",
          "type": "address"
        }
      ],
      "name": "approveZeroThenMax",
      "outputs": [],
      "stateMutability": "payable",
      "type": "function",
      "payable": true
    },
    {
      "inputs": [
        {
          "internalType": "address",
          "name": "token",
          "type": "address"
        }
      ],
      "name": "approveZeroThenMaxMinusOne",
      "outputs": [],
      "stateMutability": "payable",
      "type": "function",
      "payable": true
    },
    {
      "inputs": [
        {
          "internalType": "bytes",
          "name": "data",
          "type": "bytes"
        }
      ],
      "name": "callPositionManager",
      "outputs": [
        {
          "internalType": "bytes",
          "name": "result",
          "type": "bytes"
        }
      ],
      "stateMutability": "payable",
      "type": "function",
      "payable": true
    },
    {
      "inputs": [
        {
          "internalType": "bytes[]",
          "name": "paths",
          "type": "bytes[]"
        },
        {
          "internalType": "uint128[]",
          "name": "amounts",
          "type": "uint128[]"
        },
        {
          "internalType": "uint24",
          "name": "maximumTickDivergence",
          "type": "uint24"
        },
        {
          "internalType": "uint32",
          "name": "secondsAgo",
          "type": "uint32"
        }
      ],
      "name": "checkOracleSlippage",
      "outputs": [],
      "stateMutability": "view",
      "type": "function",
      "constant": true
    },
    {
      "inputs": [
        {
          "internalType": "bytes",
          "name": "path",
          "type": "bytes"
        },
        {
          "internalType": "uint24",
          "name": "maximumTickDivergence",
          "type": "uint24"
        },
        {
          "internalType": "uint32",
          "name": "secondsAgo",
          "type": "uint32"
        }
      ],
      "name": "checkOracleSlippage",
      "outputs": [],
      "stateMutability": "view",
      "type": "function",
      "constant": true
    },
    {
      "inputs": [
        {
          "components": [
            {
              "internalType": "bytes",
              "name": "path",
              "type": "bytes"
            },
            {
              "internalType": "address",
              "name": "recipient",
              "type": "address"
            },
            {
              "internalType": "uint256",
              "name": "amountIn",
              "type": "uint256"
            },
            {
              "internalType": "uint256",
              "name": "amountOutMinimum",
              "type": "uint256"
            }
          ],
          "internalType": "struct IV3SwapRouter.ExactInputParams",
          "name": "params",
          "type": "tuple"
        }
      ],
      "name": "exactInput",
      "outputs": [
        {
          "internalType": "uint256",
          "name": "amountOut",
          "type": "uint256"
        }
      ],
      "stateMutability": "payable",
      "type": "function",
      "payable": true
    },
    {
      "inputs": [
        {
          "components": [
            {
              "internalType": "address",
              "name": "tokenIn",
              "type": "address"
            },
            {
              "internalType": "address",
              "name": "tokenOut",
              "type": "address"
            },
            {
              "internalType": "uint24",
              "name": "fee",
              "type": "uint24"
            },
            {
              "internalType": "address",
              "name": "recipient",
              "type": "address"
            },
            {
              "internalType": "uint256",
              "name": "amountIn",
              "type": "uint256"
            },
            {
              "internalType": "uint256",
              "name": "amountOutMinimum",
              "type": "uint256"
            },
            {
              "internalType": "uint160",
              "name": "sqrtPriceLimitX96",
              "type": "uint160"
            }
          ],
          "internalType": "struct IV3SwapRouter.ExactInputSingleParams",
          "name": "params",
          "type": "tuple"
        }
      ],
      "name": "exactInputSingle",
      "outputs": [
        {
          "internalType": "uint256",
          "name": "amountOut",
          "type": "uint256"
        }
      ],
      "stateMutability": "payable",
      "type": "function",
      "payable": true
    },
    {
      "inputs": [
        {
          "components": [
            {
              "internalType": "bytes",
              "name": "path",
              "type": "bytes"
            },
            {
              "internalType": "address",
              "name": "recipient",
              "type": "address"
            },
            {
              "internalType": "uint256",
              "name": "amountOut",
              "type": "uint256"
            },
            {
              "internalType": "uint256",
              "name": "amountInMaximum",
              "type": "uint256"
            }
          ],
          "internalType": "struct IV3SwapRouter.ExactOutputParams",
          "name": "params",
          "type": "tuple"
        }
      ],
      "name": "exactOutput",
      "outputs": [
        {
          "internalType": "uint256",
          "name": "amountIn",
          "type": "uint256"
        }
      ],
      "stateMutability": "payable",
      "type": "function",
      "payable": true
    },
    {
      "inputs": [
        {
          "components": [
            {
              "internalType": "address",
              "name": "tokenIn",
              "type": "address"
            },
            {
              "internalType": "address",
              "name": "tokenOut",
              "type": "address"
            },
            {
              "internalType": "uint24",
              "name": "fee",
              "type": "uint24"
            },
            {
              "internalType": "address",
              "name": "recipient",
              "type": "address"
            },
            {
              "internalType": "uint256",
              "name": "amountOut",
              "type": "uint256"
            },
            {
              "internalType": "uint256",
              "name": "amountInMaximum",
              "type": "uint256"
            },
            {
              "internalType": "uint160",
              "name": "sqrtPriceLimitX96",
              "type": "uint160"
            }
          ],
          "internalType": "struct IV3SwapRouter.ExactOutputSingleParams",
          "name": "params",
          "type": "tuple"
        }
      ],
      "name": "exactOutputSingle",
      "outputs": [
        {
          "internalType": "uint256",
          "name": "amountIn",
          "type": "uint256"
        }
      ],
      "stateMutability": "payable",
      "type": "function",
      "payable": true
    },
    {
      "inputs": [],
      "name": "factory",
      "outputs": [
        {
          "internalType": "address",
          "name": "",
          "type": "address"
        }
      ],
      "stateMutability": "view",
      "type": "function",
      "constant": true
    },
    {
      "inputs": [],
      "name": "factoryV2",
      "outputs": [
        {
          "internalType": "address",
          "name": "",
          "type": "address"
        }
      ],
      "stateMutability": "view",
      "type": "function",
      "constant": true
    },
    {
      "inputs": [
        {
          "internalType": "address",
          "name": "token",
          "type": "address"
        },
        {
          "internalType": "uint256",
          "name": "amount",
          "type": "uint256"
        }
      ],
      "name": "getApprovalType",
      "outputs": [
        {
          "internalType": "enum IApproveAndCall.ApprovalType",
          "name": "",
          "type": "uint8"
        }
      ],
      "stateMutability": "nonpayable",
      "type": "function"
    },
    {
      "inputs": [
        {
          "components": [
            {
              "internalType": "address",
              "name": "token0",
              "type": "address"
            },
            {
              "internalType": "address",
              "name": "token1",
              "type": "address"
            },
            {
              "internalType": "uint256",
              "name": "tokenId",
              "type": "uint256"
            },
            {
              "internalType": "uint256",
              "name": "amount0Min",
              "type": "uint256"
            },
            {
              "internalType": "uint256",
              "name": "amount1Min",
              "type": "uint256"
            }
          ],
          "internalType": "struct IApproveAndCall.IncreaseLiquidityParams",
          "name": "params",
          "type": "tuple"
        }
      ],
      "name": "increaseLiquidity",
      "outputs": [
        {
          "internalType": "bytes",
          "name": "result",
          "type": "bytes"
        }
      ],
      "stateMutability": "payable",
      "type": "function",
      "payable": true
    },
    {
      "inputs": [
        {
          "components": [
            {
              "internalType": "address",
              "name": "token0",
              "type": "address"
            },
            {
              "internalType": "address",
              "name": "token1",
              "type": "address"
            },
            {
              "internalType": "uint24",
              "name": "fee",
              "type": "uint24"
            },
            {
              "internalType": "int24",
              "name": "tickLower",
              "type": "int24"
            },
            {
              "internalType": "int24",
              "name": "tickUpper",
              "type": "int24"
            },
            {
              "internalType": "uint256",
              "name": "amount0Min",
              "type": "uint256"
            },
            {
              "internalType": "uint256",
              "name": "amount1Min",
              "type": "uint256"
            },
            {
              "internalType": "address",
              "name": "recipient",
              "type": "address"
            }
          ],
          "internalType": "struct IApproveAndCall.MintParams",
          "name": "params",
          "type": "tuple"
        }
      ],
      "name": "mint",
      "outputs": [
        {
          "internalType": "bytes",
          "name": "result",
          "type": "bytes"
        }
      ],
      "stateMutability": "payable",
      "type": "function",
      "payable": true
    },
    {
      "inputs": [
        {
          "internalType": "bytes32",
          "name": "previousBlockhash",
          "type": "bytes32"
        },
        {
          "internalType": "bytes[]",
          "name": "data",
          "type": "bytes[]"
        }
      ],
      "name": "multicall",
      "outputs": [
        {
          "internalType": "bytes[]",
          "name": "",
          "type": "bytes[]"
        }
      ],
      "stateMutability": "payable",
      "type": "function",
      "payable": true
    },
    {
      "inputs": [
        {
          "internalType": "uint256",
          "name": "deadline",
          "type": "uint256"
        },
        {
          "internalType": "bytes[]",
          "name": "data",
          "type": "bytes[]"
        }
      ],
      "name": "multicall",
      "outputs": [
        {
          "internalType": "bytes[]",
          "name": "",
          "type": "bytes[]"
        }
      ],
      "stateMutability": "payable",
      "type": "function",
      "payable": true
    },
    {
      "inputs": [
        {
          "internalType": "bytes[]",
          "name": "data",
          "type": "bytes[]"
        }
      ],
      "name": "multicall",
      "outputs": [
        {
          "internalType": "bytes[]",
          "name": "results",
          "type": "bytes[]"
        }
      ],
      "stateMutability": "payable",
      "type": "function",
      "payable": true
    },
    {
      "inputs": [],
      "name": "positionManager",
      "outputs": [
        {
          "internalType": "address",
          "name": "",
          "type": "address"
        }
      ],
      "stateMutability": "view",
      "type": "function",
      "constant": true
    },
    {
      "inputs": [
        {
          "internalType": "address",
          "name": "token",
          "type": "address"
        },
        {
          "internalType": "uint256",
          "name": "value",
          "type": "uint256"
        }
      ],
      "name": "pull",
      "outputs": [],
      "stateMutability": "payable",
      "type": "function",
      "payable": true
    },
    {
      "inputs": [],
      "name": "refundETH",
      "outputs": [],
      "stateMutability": "payable",
      "type": "function",
      "payable": true
    },
    {
      "inputs": [
        {
          "internalType": "address",
          "name": "token",
          "type": "address"
        },
        {
          "internalType": "uint256",
          "name": "value",
          "type": "uint256"
        },
        {
          "internalType": "uint256",
          "name": "deadline",
          "type": "uint256"
        },
        {
          "internalType": "uint8",
          "name": "v",
          "type": "uint8"
        },
        {
          "internalType": "bytes32",
          "name": "r",
          "type": "bytes32"
        },
        {
          "internalType": "bytes32",
          "name": "s",
          "type": "bytes32"
        }
      ],
      "name": "selfPermit",
      "outputs": [],
      "stateMutability": "payable",
      "type": "function",
      "payable": true
    },
    {
      "inputs": [
        {
          "internalType": "address",
          "name": "token",
          "type": "address"
        },
        {
          "internalType": "uint256",
          "name": "nonce",
          "type": "uint256"
        },
        {
          "internalType": "uint256",
          "name": "expiry",
          "type": "uint256"
        },
        {
          "internalType": "uint8",
          "name": "v",
          "type": "uint8"
        },
        {
          "internalType": "bytes32",
          "name": "r",
          "type": "bytes32"
        },
        {
          "internalType": "bytes32",
          "name": "s",
          "type": "bytes32"
        }
      ],
      "name": "selfPermitAllowed",
      "outputs": [],
      "stateMutability": "payable",
      "type": "function",
      "payable": true
    },
    {
      "inputs": [
        {
          "internalType": "address",
          "name": "token",
          "type": "address"
        },
        {
          "internalType": "uint256",
          "name": "nonce",
          "type": "uint256"
        },
        {
          "internalType": "uint256",
          "name": "expiry",
          "type": "uint256"
        },
        {
          "internalType": "uint8",
          "name": "v",
          "type": "uint8"
        },
        {
          "internalType": "bytes32",
          "name": "r",
          "type": "bytes32"
        },
        {
          "internalType": "bytes32",
          "name": "s",
          "type": "bytes32"
        }
      ],
      "name": "selfPermitAllowedIfNecessary",
      "outputs": [],
      "stateMutability": "payable",
      "type": "function",
      "payable": true
    },
    {
      "inputs": [
        {
          "internalType": "address",
          "name": "token",
          "type": "address"
        },
        {
          "internalType": "uint256",
          "name": "value",
          "type": "uint256"
        },
        {
          "internalType": "uint256",
          "name": "deadline",
          "type": "uint256"
        },
        {
          "internalType": "uint8",
          "name": "v",
          "type": "uint8"
        },
        {
          "internalType": "bytes32",
          "name": "r",
          "type": "bytes32"
        },
        {
          "internalType": "bytes32",
          "name": "s",
          "type": "bytes32"
        }
      ],
      "name": "selfPermitIfNecessary",
      "outputs": [],
      "stateMutability": "payable",
      "type": "function",
      "payable": true
    },
    {
      "inputs": [
        {
          "internalType": "uint256",
          "name": "amountIn",
          "type": "uint256"
        },
        {
          "internalType": "uint256",
          "name": "amountOutMin",
          "type": "uint256"
        },
        {
          "internalType": "address[]",
          "name": "path",
          "type": "address[]"
        },
        {
          "internalType": "address",
          "name": "to",
          "type": "address"
        }
      ],
      "name": "swapExactTokensForTokens",
      "outputs": [
        {
          "internalType": "uint256",
          "name": "amountOut",
          "type": "uint256"
        }
      ],
      "stateMutability": "payable",
      "type": "function",
      "payable": true
    },
    {
      "inputs": [
        {
          "internalType": "uint256",
          "name": "amountOut",
          "type": "uint256"
        },
        {
          "internalType": "uint256",
          "name": "amountInMax",
          "type": "uint256"
        },
        {
          "internalType": "address[]",
          "name": "path",
          "type": "address[]"
        },
        {
          "internalType": "address",
          "name": "to",
          "type": "address"
        }
      ],
      "name": "swapTokensForExactTokens",
      "outputs": [
        {
          "internalType": "uint256",
          "name": "amountIn",
          "type": "uint256"
        }
      ],
      "stateMutability": "payable",
      "type": "function",
      "payable": true
    },
    {
      "inputs": [
        {
          "internalType": "address",
          "name": "token",
          "type": "address"
        },
        {
          "internalType": "uint256",
          "name": "amountMinimum",
          "type": "uint256"
        },
        {
          "internalType": "address",
          "name": "recipient",
          "type": "address"
        }
      ],
      "name": "sweepToken",
      "outputs": [],
      "stateMutability": "payable",
      "type": "function",
      "payable": true
    },
    {
      "inputs": [
        {
          "internalType": "address",
          "name": "token",
          "type": "address"
        },
        {
          "internalType": "uint256",
          "name": "amountMinimum",
          "type": "uint256"
        }
      ],
      "name": "sweepToken",
      "outputs": [],
      "stateMutability": "payable",
      "type": "function",
      "payable": true
    },
    {
      "inputs": [
        {
          "internalType": "address",
          "name": "token",
          "type": "address"
        },
        {
          "internalType": "uint256",
          "name": "amountMinimum",
          "type": "uint256"
        },
        {
          "internalType": "uint256",
          "name": "feeBips",
          "type": "uint256"
        },
        {
          "internalType": "address",
          "name": "feeRecipient",
          "type": "address"
        }
      ],
      "name": "sweepTokenWithFee",
      "outputs": [],
      "stateMutability": "payable",
      "type": "function",
      "payable": true
    },
    {
      "inputs": [
        {
          "internalType": "address",
          "name": "token",
          "type": "address"
        },
        {
          "internalType": "uint256",
          "name": "amountMinimum",
          "type": "uint256"
        },
        {
          "internalType": "address",
          "name": "recipient",
          "type": "address"
        },
        {
          "internalType": "uint256",
          "name": "feeBips",
          "type": "uint256"
        },
        {
          "internalType": "address",
          "name": "feeRecipient",
          "type": "address"
        }
      ],
      "name": "sweepTokenWithFee",
      "outputs": [],
      "stateMutability": "payable",
      "type": "function",
      "payable": true
    },
    {
      "inputs": [
        {
          "internalType": "int256",
          "name": "amount0Delta",
          "type": "int256"
        },
        {
          "internalType": "int256",
          "name": "amount1Delta",
          "type": "int256"
        },
        {
          "internalType": "bytes",
          "name": "_data",
          "type": "bytes"
        }
      ],
      "name": "uniswapV3SwapCallback",
      "outputs": [],
      "stateMutability": "nonpayable",
      "type": "function"
    },
    {
      "inputs": [
        {
          "internalType": "uint256",
          "name": "amountMinimum",
          "type": "uint256"
        },
        {
          "internalType": "address",
          "name": "recipient",
          "type": "address"
        }
      ],
      "name": "unwrapWETH9",
      "outputs": [],
      "stateMutability": "payable",
      "type": "function",
      "payable": true
    },
    {
      "inputs": [
        {
          "internalType": "uint256",
          "name": "amountMinimum",
          "type": "uint256"
        }
      ],
      "name": "unwrapWETH9",
      "outputs": [],
      "stateMutability": "payable",
      "type": "function",
      "payable": true
    },
    {
      "inputs": [
        {
          "internalType": "uint256",
          "name": "amountMinimum",
          "type": "uint256"
        },
        {
          "internalType": "address",
          "name": "recipient",
          "type": "address"
        },
        {
          "internalType": "uint256",
          "name": "feeBips",
          "type": "uint256"
        },
        {
          "internalType": "address",
          "name": "feeRecipient",
          "type": "address"
        }
      ],
      "name": "unwrapWETH9WithFee",
      "outputs": [],
      "stateMutability": "payable",
      "type": "function",
      "payable": true
    },
    {
      "inputs": [
        {
          "internalType": "uint256",
          "name": "amountMinimum",
          "type": "uint256"
        },
        {
          "internalType": "uint256",
          "name": "feeBips",
          "type": "uint256"
        },
        {
          "internalType": "address",
          "name": "feeRecipient",
          "type": "address"
        }
      ],
      "name": "unwrapWETH9WithFee",
      "outputs": [],
      "stateMutability": "payable",
      "type": "function",
      "payable": true
    },
    {
      "inputs": [
        {
          "internalType": "uint256",
          "name": "value",
          "type": "uint256"
        }
      ],
      "name": "wrapETH",
      "outputs": [],
      "stateMutability": "payable",
      "type": "function",
      "payable": true
    },
    {
      "stateMutability": "payable",
      "type": "receive",
      "payable": true
    }
  ],
  "bytecode": "0x6101006040526000196000553480156200001857600080fd5b50604051620050bd380380620050bd8339810160408190526200003b9162000087565b6001600160601b0319606094851b811660805291841b821660a05291831b811660c052911b1660e052620000e3565b80516001600160a01b03811681146200008257600080fd5b919050565b600080600080608085870312156200009d578384fd5b620000a8856200006a565b9350620000b8602086016200006a565b9250620000c8604086016200006a565b9150620000d8606086016200006a565b905092959194509250565b60805160601c60a05160601c60c05160601c60e05160601c614f3962000184600039806101e452806109035280610f48528061103352806110cd528061129552806113805280612500528061254652806125ba5250806118e95280611e01528061311e5250806112555280611637528061192c528061293a5250806109ee5280610aa85280610d07528061123152806126e5528061284c5250614f396000f3fe6080604052600436106101d45760003560e01c80639b2c0a37116100fe5780639b2c0a37146103ea578063a4a78f0c146103fd578063ab3fdd5014610410578063ac9650d814610423578063b3a2af1314610436578063b858183f14610449578063c2e3140a1461045c578063c45a01551461046f578063cab372ce14610484578063d4ef38de14610497578063dee00f35146104aa578063df2ab5bb146104d7578063e0e189a0146104ea578063e90a182f146104fd578063efdeed8e14610510578063f100b20514610530578063f25801a714610543578063f2d5d56b14610563578063f3995c6714610576578063fa461e331461058957610244565b806304e45aaf1461024957806309b813461461027257806311ed56c91461028557806312210e8a146102a55780631c58db4f146102ad5780631f0464d1146102c05780633068c554146102e057806342712a67146102f35780634659a49414610306578063472b43f31461031957806349404b7c1461032c578063496169971461033f5780634aa4a4fc146103525780635023b4df14610374578063571ac8b0146103875780635ae401dc1461039a578063639d71a9146103ad57806368e0d4e1146103c0578063791b98bc146103d557610244565b3661024457336001600160a01b037f00000000000000000000000000000000000000000000000000000000000000001614610242576040805162461bcd60e51b81526020600482015260096024820152684e6f7420574554483960b81b604482015290519081900360640190fd5b005b600080fd5b61025c6102573660046145c0565b6105a9565b6040516102699190614d5b565b60405180910390f35b61025c61028036600461465a565b6106e4565b6102986102933660046146b3565b61078c565b6040516102699190614b47565b6102426108ef565b6102426102bb366004614835565b610901565b6102d36102ce36600461432a565b610978565b6040516102699190614ae7565b6102426102ee36600461415d565b6109d4565b61025c6103013660046148ff565b6109e7565b6102426103143660046141a6565b610b8d565b61025c6103273660046148ff565b610c27565b61024261033a366004614865565b610f44565b61024261034d366004614835565b6110be565b34801561035e57600080fd5b506103676110cb565b6040516102699190614a5a565b61025c610382366004614691565b6110ef565b610242610395366004614070565b6111b1565b6102d36103a836600461432a565b6111c6565b6102426103bb366004614070565b61121b565b3480156103cc57600080fd5b5061036761122f565b3480156103e157600080fd5b50610367611253565b6102426103f8366004614894565b611277565b61024261040b3660046141a6565b611441565b61024261041e366004614070565b6114d2565b6102d3610431366004614201565b6114f2565b610298610444366004614373565b611631565b61025c61045736600461451b565b6116e2565b61024261046a3660046141a6565b611858565b34801561047b57600080fd5b506103676118e7565b610242610492366004614070565b6114e6565b6102426104a53660046148d2565b61190b565b3480156104b657600080fd5b506104ca6104c5366004614093565b611917565b6040516102699190614b5a565b6102426104e53660046140be565b611a3f565b6102426104f83660046140ff565b611b17565b61024261050b366004614093565b611c3e565b34801561051c57600080fd5b5061024261052b366004614240565b611c4d565b61029861053e3660046146a2565b611c85565b34801561054f57600080fd5b5061024261055e3660046143a5565b611d07565b610242610571366004614093565b611d3e565b6102426105843660046141a6565b611d4a565b34801561059557600080fd5b506102426105a4366004614438565b611dbc565b600080600083608001511415610640575081516040516370a0823160e01b81526001916001600160a01b0316906370a08231906105ea903090600401614a5a565b60206040518083038186803b15801561060257600080fd5b505afa158015610616573d6000803e3d6000fd5b505050506040513d601f19601f8201168201806040525081019061063a919061484d565b60808401525b6106af836080015184606001518560c001516040518060400160405280886000015189604001518a6020015160405160200161067e939291906149f8565b60405160208183030381529060405281526020018661069d573361069f565b305b6001600160a01b03169052611ecc565b91508260a001518210156106de5760405162461bcd60e51b81526004016106d590614bf0565b60405180910390fd5b50919050565b6000610758604083018035906106fd9060208601614070565b60408051808201909152600090806107158880614d91565b8080601f0160208091040260200160405190810160405280939291908181526020018383808284376000920191909152505050908252503360209091015261203c565b505060005460608201358111156107815760405162461bcd60e51b81526004016106d590614ba8565b600019600055919050565b6040805161016081019091526060906108e790634418b22b60e11b90806107b66020870187614070565b6001600160a01b031681526020018560200160208101906107d79190614070565b6001600160a01b031681526020016107f5606087016040880161481b565b62ffffff16815260200161080f60808701606088016143f9565b60020b815260200161082760a08701608088016143f9565b60020b81526020908101906108479061084290880188614070565b6121d5565b81526020016108628660200160208101906108429190614070565b815260a0860135602082015260c0860135604082015260600161088c610100870160e08801614070565b6001600160a01b031681526020016000198152506040516024016108b09190614c61565b60408051601f198184030181529190526020810180516001600160e01b03166001600160e01b031990931692909217909152611631565b90505b919050565b47156108ff576108ff3347612254565b565b7f00000000000000000000000000000000000000000000000000000000000000006001600160a01b031663d0e30db0826040518263ffffffff1660e01b81526004016000604051808303818588803b15801561095c57600080fd5b505af1158015610970573d6000803e3d6000fd5b505050505050565b606083806001430340146109bf576040805162461bcd60e51b8152602060048201526009602482015268084d8dec6d6d0c2e6d60bb1b604482015290519081900360640190fd5b6109c984846114f2565b91505b509392505050565b6109e18484338585611b17565b50505050565b6000610a477f00000000000000000000000000000000000000000000000000000000000000008786868080602002602001604051908101604052809392919081815260200183836020028082843760009201919091525061234792505050565b600081518110610a5357fe5b6020026020010151905084811115610a7d5760405162461bcd60e51b81526004016106d590614ba8565b610b1684846000818110610a8d57fe5b9050602002016020810190610aa29190614070565b33610b107f000000000000000000000000000000000000000000000000000000000000000088886000818110610ad457fe5b9050602002016020810190610ae99190614070565b89896001818110610af657fe5b9050602002016020810190610b0b9190614070565b612443565b846124fe565b6001600160a01b03821660011415610b3057339150610b46565b6001600160a01b03821660021415610b46573091505b610b8484848080602002602001604051908101604052809392919081815260200183836020028082843760009201919091525086925061268e915050565b95945050505050565b604080516323f2ebc360e21b815233600482015230602482015260448101879052606481018690526001608482015260ff851660a482015260c4810184905260e4810183905290516001600160a01b03881691638fcbaf0c9161010480830192600092919082900301818387803b158015610c0757600080fd5b505af1158015610c1b573d6000803e3d6000fd5b50505050505050505050565b60008086610cd0575060018484600081610c3d57fe5b9050602002016020810190610c529190614070565b6001600160a01b03166370a08231306040518263ffffffff1660e01b8152600401610c7d9190614a5a565b60206040518083038186803b158015610c9557600080fd5b505afa158015610ca9573d6000803e3d6000fd5b505050506040513d601f19601f82011682018060405250810190610ccd919061484d565b96505b610d5b85856000818110610ce057fe5b9050602002016020810190610cf59190614070565b82610d005733610d02565b305b610d557f000000000000000000000000000000000000000000000000000000000000000089896000818110610d3357fe5b9050602002016020810190610d489190614070565b8a8a6001818110610af657fe5b8a6124fe565b6001600160a01b03831660011415610d7557339250610d8b565b6001600160a01b03831660021415610d8b573092505b600085856000198101818110610d9d57fe5b9050602002016020810190610db29190614070565b6001600160a01b03166370a08231856040518263ffffffff1660e01b8152600401610ddd9190614a5a565b60206040518083038186803b158015610df557600080fd5b505afa158015610e09573d6000803e3d6000fd5b505050506040513d601f19601f82011682018060405250810190610e2d919061484d565b9050610e6d86868080602002602001604051908101604052809392919081815260200183836020028082843760009201919091525088925061268e915050565b610f178187876000198101818110610e8157fe5b9050602002016020810190610e969190614070565b6001600160a01b03166370a08231876040518263ffffffff1660e01b8152600401610ec19190614a5a565b60206040518083038186803b158015610ed957600080fd5b505afa158015610eed573d6000803e3d6000fd5b505050506040513d601f19601f82011682018060405250810190610f11919061484d565b90612911565b925086831015610f395760405162461bcd60e51b81526004016106d590614bf0565b505095945050505050565b60007f00000000000000000000000000000000000000000000000000000000000000006001600160a01b03166370a08231306040518263ffffffff1660e01b815260040180826001600160a01b0316815260200191505060206040518083038186803b158015610fb357600080fd5b505afa158015610fc7573d6000803e3d6000fd5b505050506040513d6020811015610fdd57600080fd5b505190508281101561102b576040805162461bcd60e51b8152602060048201526012602482015271496e73756666696369656e7420574554483960701b604482015290519081900360640190fd5b80156110b9577f00000000000000000000000000000000000000000000000000000000000000006001600160a01b0316632e1a7d4d826040518263ffffffff1660e01b815260040180828152602001915050600060405180830381600087803b15801561109757600080fd5b505af11580156110ab573d6000803e3d6000fd5b505050506110b98282612254565b505050565b6110c88133610f44565b50565b7f000000000000000000000000000000000000000000000000000000000000000081565b600061118b608083018035906111089060608601614070565b61111860e0860160c08701614070565b60405180604001604052808760200160208101906111369190614070565b61114660608a0160408b0161481b565b61115360208b018b614070565b604051602001611165939291906149f8565b6040516020818303038152906040528152602001336001600160a01b031681525061203c565b90508160a001358111156107815760405162461bcd60e51b81526004016106d590614ba8565b6111bd81600019612921565b6110c857600080fd5b606083806111d2612a15565b11156109bf576040805162461bcd60e51b8152602060048201526013602482015272151c985b9cd858dd1a5bdb881d1bdbc81bdb19606a1b604482015290519081900360640190fd5b611226816000612921565b6111b157600080fd5b7f000000000000000000000000000000000000000000000000000000000000000081565b7f000000000000000000000000000000000000000000000000000000000000000081565b600082118015611288575060648211155b61129157600080fd5b60007f00000000000000000000000000000000000000000000000000000000000000006001600160a01b03166370a08231306040518263ffffffff1660e01b815260040180826001600160a01b0316815260200191505060206040518083038186803b15801561130057600080fd5b505afa158015611314573d6000803e3d6000fd5b505050506040513d602081101561132a57600080fd5b5051905084811015611378576040805162461bcd60e51b8152602060048201526012602482015271496e73756666696369656e7420574554483960701b604482015290519081900360640190fd5b801561143a577f00000000000000000000000000000000000000000000000000000000000000006001600160a01b0316632e1a7d4d826040518263ffffffff1660e01b815260040180828152602001915050600060405180830381600087803b1580156113e457600080fd5b505af11580156113f8573d6000803e3d6000fd5b5050505060006127106114148584612a1990919063ffffffff16565b8161141b57fe5b049050801561142e5761142e8382612254565b61097085828403612254565b5050505050565b60408051636eb1769f60e11b81523360048201523060248201529051600019916001600160a01b0389169163dd62ed3e91604480820192602092909190829003018186803b15801561149257600080fd5b505afa1580156114a6573d6000803e3d6000fd5b505050506040513d60208110156114bc57600080fd5b5051101561097057610970868686868686610b8d565b6114dd816000612921565b6114e657600080fd5b6111bd81600119612921565b6060816001600160401b038111801561150a57600080fd5b5060405190808252806020026020018201604052801561153e57816020015b60608152602001906001900390816115295790505b50905060005b8281101561162a576000803086868581811061155c57fe5b905060200281019061156e9190614d91565b60405161157c929190614a2e565b600060405180830381855af49150503d80600081146115b7576040519150601f19603f3d011682016040523d82523d6000602084013e6115bc565b606091505b509150915081611608576044815110156115d557600080fd5b600481019050808060200190518101906115ef91906144b2565b60405162461bcd60e51b81526004016106d59190614b47565b8084848151811061161557fe5b60209081029190910101525050600101611544565b5092915050565b606060007f00000000000000000000000000000000000000000000000000000000000000006001600160a01b03168360405161166d9190614a3e565b6000604051808303816000865af19150503d80600081146116aa576040519150601f19603f3d011682016040523d82523d6000602084013e6116af565b606091505b5092509050806106de576044825110156116c857600080fd5b600482019150818060200190518101906115ef91906144b2565b60008060008360400151141561178d576001905060006117058460000151612a3d565b50506040516370a0823160e01b81529091506001600160a01b038216906370a0823190611736903090600401614a5a565b60206040518083038186803b15801561174e57600080fd5b505afa158015611762573d6000803e3d6000fd5b505050506040513d601f19601f82011682018060405250810190611786919061484d565b6040850152505b60008161179a573361179c565b305b90505b60006117ae8560000151612a6e565b90506117fa8560400151826117c75786602001516117c9565b305b600060405180604001604052806117e38b60000151612a76565b8152602001876001600160a01b0316815250611ecc565b6040860152801561181a57845130925061181390612a85565b8552611827565b846040015193505061182d565b5061179f565b83606001518310156118515760405162461bcd60e51b81526004016106d590614bf0565b5050919050565b60408051636eb1769f60e11b8152336004820152306024820152905186916001600160a01b0389169163dd62ed3e91604480820192602092909190829003018186803b1580156118a757600080fd5b505afa1580156118bb573d6000803e3d6000fd5b505050506040513d60208110156118d157600080fd5b5051101561097057610970868686868686611d4a565b7f000000000000000000000000000000000000000000000000000000000000000081565b6110b983338484611277565b600081836001600160a01b031663dd62ed3e307f00000000000000000000000000000000000000000000000000000000000000006040518363ffffffff1660e01b8152600401611968929190614a6e565b60206040518083038186803b15801561198057600080fd5b505afa158015611994573d6000803e3d6000fd5b505050506040513d601f19601f820116820180604052508101906119b8919061484d565b106119c557506000611a39565b6119d183600019612921565b156119de57506001611a39565b6119ea83600119612921565b156119f757506002611a39565b611a02836000612921565b611a0b57600080fd5b611a1783600019612921565b15611a2457506003611a39565b611a3083600119612921565b15610244575060045b92915050565b6000836001600160a01b03166370a08231306040518263ffffffff1660e01b815260040180826001600160a01b0316815260200191505060206040518083038186803b158015611a8e57600080fd5b505afa158015611aa2573d6000803e3d6000fd5b505050506040513d6020811015611ab857600080fd5b5051905082811015611b06576040805162461bcd60e51b815260206004820152601260248201527124b739bab33334b1b4b2b73a103a37b5b2b760711b604482015290519081900360640190fd5b80156109e1576109e1848383612a9c565b600082118015611b28575060648211155b611b3157600080fd5b6000856001600160a01b03166370a08231306040518263ffffffff1660e01b815260040180826001600160a01b0316815260200191505060206040518083038186803b158015611b8057600080fd5b505afa158015611b94573d6000803e3d6000fd5b505050506040513d6020811015611baa57600080fd5b5051905084811015611bf8576040805162461bcd60e51b815260206004820152601260248201527124b739bab33334b1b4b2b73a103a37b5b2b760711b604482015290519081900360640190fd5b8015610970576000612710611c0d8386612a19565b81611c1457fe5b0490508015611c2857611c28878483612a9c565b611c358786838503612a9c565b50505050505050565b611c49828233611a3f565b5050565b600080611c5b868685612be4565b915091508362ffffff16818303126109705760405162461bcd60e51b81526004016106d590614bd4565b60606108e763219f5d1760e01b6040518060c0016040528085604001358152602001611cbd8660000160208101906108429190614070565b8152602001611cd88660200160208101906108429190614070565b815260200185606001358152602001856080013581526020016000198152506040516024016108b09190614c1d565b600080611d148584612dda565b915091508362ffffff168183031261143a5760405162461bcd60e51b81526004016106d590614bd4565b611c4982333084612fb1565b6040805163d505accf60e01b8152336004820152306024820152604481018790526064810186905260ff8516608482015260a4810184905260c4810183905290516001600160a01b0388169163d505accf9160e480830192600092919082900301818387803b158015610c0757600080fd5b6000841380611dcb5750600083135b611dd457600080fd5b6000611de2828401846146c5565b90506000806000611df68460000151612a3d565b925092509250611e287f0000000000000000000000000000000000000000000000000000000000000000848484613101565b5060008060008a13611e4f57846001600160a01b0316846001600160a01b03161089611e66565b836001600160a01b0316856001600160a01b0316108a5b915091508115611e8557611e8085876020015133846124fe565b610c1b565b8551611e9090612a6e565b15611eb5578551611ea090612a85565b8652611eaf813360008961203c565b50610c1b565b80600081905550610c1b84876020015133846124fe565b60006001600160a01b03841660011415611ee857339350611efe565b6001600160a01b03841660021415611efe573093505b6000806000611f108560000151612a3d565b919450925090506001600160a01b0380831690841610600080611f34868686613117565b6001600160a01b031663128acb088b85611f4d8f613155565b6001600160a01b038e1615611f62578d611f88565b87611f815773fffd8963efd1fc6a506488495d951d5263988d25611f88565b6401000276a45b8d604051602001611f999190614d0f565b6040516020818303038152906040526040518663ffffffff1660e01b8152600401611fc8959493929190614a88565b6040805180830381600087803b158015611fe157600080fd5b505af1158015611ff5573d6000803e3d6000fd5b505050506040513d601f19601f820116820180604052508101906120199190614415565b9150915082612028578161202a565b805b6000039b9a5050505050505050505050565b60006001600160a01b038416600114156120585733935061206e565b6001600160a01b0384166002141561206e573093505b60008060006120808560000151612a3d565b919450925090506001600160a01b03808416908316106000806120a4858786613117565b6001600160a01b031663128acb088b856120bd8f613155565b6000036001600160a01b038e16156120d5578d6120fb565b876120f45773fffd8963efd1fc6a506488495d951d5263988d256120fb565b6401000276a45b8d60405160200161210c9190614d0f565b6040516020818303038152906040526040518663ffffffff1660e01b815260040161213b959493929190614a88565b6040805180830381600087803b15801561215457600080fd5b505af1158015612168573d6000803e3d6000fd5b505050506040513d601f19601f8201168201806040525081019061218c9190614415565b915091506000836121a15781836000036121a7565b82826000035b90985090506001600160a01b038a166121c6578b81146121c657600080fd5b50505050505050949350505050565b6040516370a0823160e01b81526000906001600160a01b038316906370a0823190612204903090600401614a5a565b60206040518083038186803b15801561221c57600080fd5b505afa158015612230573d6000803e3d6000fd5b505050506040513d601f19601f820116820180604052508101906108e7919061484d565b604080516000808252602082019092526001600160a01b0384169083906040518082805190602001908083835b602083106122a05780518252601f199092019160209182019101612281565b6001836020036101000a03801982511681845116808217855250505050505090500191505060006040518083038185875af1925050503d8060008114612302576040519150601f19603f3d011682016040523d82523d6000602084013e612307565b606091505b50509050806110b95760405162461bcd60e51b8152600401808060200182810382526034815260200180614ea86034913960400191505060405180910390fd5b606060028251101561235857600080fd5b81516001600160401b038111801561236f57600080fd5b50604051908082528060200260200182016040528015612399578160200160208202803683370190505b50905082816001835103815181106123ad57fe5b60209081029190910101528151600019015b80156109cc576000806123fc878660018603815181106123db57fe5b60200260200101518786815181106123ef57fe5b60200260200101516131a1565b9150915061241e84848151811061240f57fe5b60200260200101518383613268565b84600185038151811061242d57fe5b60209081029190910101525050600019016123bf565b60008060006124528585613321565b604080516001600160601b0319606094851b811660208084019190915293851b81166034830152825160288184030181526048830184528051908501206001600160f81b031960688401529a90941b9093166069840152607d8301989098527f39508270e57a7b0c1d470bd64db67ef1e8a221c9ef76e08d2a87edd691ce92db609d808401919091528851808403909101815260bd909201909752805196019590952095945050505050565b7f00000000000000000000000000000000000000000000000000000000000000006001600160a01b0316846001600160a01b031614801561253f5750804710155b15612661577f00000000000000000000000000000000000000000000000000000000000000006001600160a01b031663d0e30db0826040518263ffffffff1660e01b81526004016000604051808303818588803b15801561259f57600080fd5b505af11580156125b3573d6000803e3d6000fd5b50505050507f00000000000000000000000000000000000000000000000000000000000000006001600160a01b031663a9059cbb83836040518363ffffffff1660e01b815260040180836001600160a01b0316815260200182815260200192505050602060405180830381600087803b15801561262f57600080fd5b505af1158015612643573d6000803e3d6000fd5b505050506040513d602081101561265957600080fd5b506109e19050565b6001600160a01b0383163014156126825761267d848383612a9c565b6109e1565b6109e184848484612fb1565b60005b60018351038110156110b9576000808483815181106126ac57fe5b60200260200101518584600101815181106126c357fe5b60200260200101519150915060006126db8383613321565b509050600061270b7f00000000000000000000000000000000000000000000000000000000000000008585612443565b9050600080600080846001600160a01b0316630902f1ac6040518163ffffffff1660e01b815260040160606040518083038186803b15801561274c57600080fd5b505afa158015612760573d6000803e3d6000fd5b505050506040513d601f19601f820116820180604052508101906127849190614754565b506001600160701b031691506001600160701b03169150600080876001600160a01b03168a6001600160a01b0316146127be5782846127c1565b83835b915091506127f5828b6001600160a01b03166370a082318a6040518263ffffffff1660e01b8152600401610ec19190614a5a565b9550612802868383613385565b945050505050600080856001600160a01b0316886001600160a01b03161461282c57826000612830565b6000835b91509150600060028c51038a10612847578a612888565b6128887f0000000000000000000000000000000000000000000000000000000000000000898e8d6002018151811061287b57fe5b6020026020010151612443565b6040805160008152602081019182905263022c0d9f60e01b9091529091506001600160a01b0387169063022c0d9f906128ca9086908690869060248101614d64565b600060405180830381600087803b1580156128e457600080fd5b505af11580156128f8573d6000803e3d6000fd5b50506001909b019a506126919950505050505050505050565b80820382811115611a3957600080fd5b6000806000846001600160a01b031663095ea7b360e01b7f00000000000000000000000000000000000000000000000000000000000000008660405160240161296b929190614ace565b60408051601f198184030181529181526020820180516001600160e01b03166001600160e01b03199094169390931790925290516129a99190614a3e565b6000604051808303816000865af19150503d80600081146129e6576040519150601f19603f3d011682016040523d82523d6000602084013e6129eb565b606091505b5091509150818015610b84575080511580610b84575080806020019051810190610b849190614310565b4290565b6000821580612a3457505081810281838281612a3157fe5b04145b611a3957600080fd5b60008080612a4b848261343d565b9250612a588460146134ed565b9050612a6584601761343d565b91509193909250565b516042111590565b60606108e7826000602b613594565b80516060906108e790839060179060161901613594565b604080516001600160a01b038481166024830152604480830185905283518084039091018152606490920183526020820180516001600160e01b031663a9059cbb60e01b1781529251825160009485949389169392918291908083835b60208310612b185780518252601f199092019160209182019101612af9565b6001836020036101000a0380198251168184511680821785525050505050509050019150506000604051808303816000865af19150503d8060008114612b7a576040519150601f19603f3d011682016040523d82523d6000602084013e612b7f565b606091505b5091509150818015612bad575080511580612bad5750808060200190516020811015612baa57600080fd5b50515b61143a576040805162461bcd60e51b8152602060048201526003602482015262393a3360e91b604482015290519081900360640190fd5b6000808351855114612bf557600080fd5b600085516001600160401b0381118015612c0e57600080fd5b50604051908082528060200260200182016040528015612c4857816020015b612c35613eca565b815260200190600190039081612c2d5790505b509050600086516001600160401b0381118015612c6457600080fd5b50604051908082528060200260200182016040528015612c9e57816020015b612c8b613eca565b815260200190600190039081612c835790505b50905060005b8751811015612db357600080612ccd8a8481518110612cbf57fe5b602002602001015189612dda565b91509150612cda826136e5565b858481518110612ce657fe5b60200260200101516000019060020b908160020b81525050612d07816136e5565b848481518110612d1357fe5b60200260200101516000019060020b908160020b81525050888381518110612d3757fe5b6020026020010151858481518110612d4b57fe5b6020026020010151602001906001600160801b031690816001600160801b031681525050888381518110612d7b57fe5b6020026020010151848481518110612d8f57fe5b6020908102919091018101516001600160801b039092169101525050600101612ca4565b50612dbd826136f6565b60020b9350612dcb816136f6565b60020b92505050935093915050565b600080600080612de9866137ae565b90506000805b82811015612f92576000806000612e058b612a3d565b9250925092506000612e18848484613117565b905060008063ffffffff8d16612e4157612e31836137bb565b600291820b9350900b9050612ed6565b612e4b838e6139f8565b8160020b91505080925050826001600160a01b0316633850c7bd6040518163ffffffff1660e01b815260040160e06040518083038186803b158015612e8f57600080fd5b505afa158015612ea3573d6000803e3d6000fd5b505050506040513d601f19601f82011682018060405250810190612ec7919061478f565b50505060029290920b93505050505b60018903871415612efd57846001600160a01b0316866001600160a01b0316109950612f0c565b612f068e612a85565b9d508597505b6000871580612f5f5750866001600160a01b0316896001600160a01b031610612f4957866001600160a01b0316866001600160a01b031610612f5f565b856001600160a01b0316876001600160a01b0316105b90508015612f74579b82019b9a81019a612f7f565b828d039c50818c039b505b505060019095019450612def9350505050565b5082612fa75760001985029450600019840293505b5050509250929050565b604080516001600160a01b0385811660248301528481166044830152606480830185905283518084039091018152608490920183526020820180516001600160e01b03166323b872dd60e01b178152925182516000948594938a169392918291908083835b602083106130355780518252601f199092019160209182019101613016565b6001836020036101000a0380198251168184511680821785525050505050509050019150506000604051808303816000865af19150503d8060008114613097576040519150601f19603f3d011682016040523d82523d6000602084013e61309c565b606091505b50915091508180156130ca5750805115806130ca57508080602001905160208110156130c757600080fd5b50515b610970576040805162461bcd60e51b8152602060048201526003602482015262393a3360e91b604482015290519081900360640190fd5b6000610b8485613112868686613d62565b613db8565b600061314d7f0000000000000000000000000000000000000000000000000000000000000000613148868686613d62565b613ddb565b949350505050565b60006001600160ff1b0382111561319d5760405162461bcd60e51b8152600401808060200182810382526028815260200180614edc6028913960400191505060405180910390fd5b5090565b60008060006131b08585613321565b5090506000806131c1888888612443565b6001600160a01b0316630902f1ac6040518163ffffffff1660e01b815260040160606040518083038186803b1580156131f957600080fd5b505afa15801561320d573d6000803e3d6000fd5b505050506040513d606081101561322357600080fd5b5080516020909101516001600160701b0391821693501690506001600160a01b0387811690841614613256578082613259565b81815b90999098509650505050505050565b60008084116132bb576040805162461bcd60e51b815260206004820152601a602482015279125394d551919250d251539517d3d55514155517d05353d5539560321b604482015290519081900360640190fd5b6000831180156132cb5750600082115b6132d457600080fd5b60006132ec6103e86132e68688612a19565b90612a19565b905060006133006103e56132e68689612911565b9050613317600182848161331057fe5b0490613eba565b9695505050505050565b600080826001600160a01b0316846001600160a01b0316141561334357600080fd5b826001600160a01b0316846001600160a01b031610613363578284613366565b83835b90925090506001600160a01b03821661337e57600080fd5b9250929050565b60008084116133d7576040805162461bcd60e51b8152602060048201526019602482015278125394d551919250d251539517d25394155517d05353d55395603a1b604482015290519081900360640190fd5b6000831180156133e75750600082115b6133f057600080fd5b60006133fe856103e5612a19565b9050600061340c8285612a19565b9050600061342683613420886103e8612a19565b90613eba565b905080828161343157fe5b04979650505050505050565b60008182601401101561348c576040805162461bcd60e51b8152602060048201526012602482015271746f416464726573735f6f766572666c6f7760701b604482015290519081900360640190fd5b81601401835110156134dd576040805162461bcd60e51b8152602060048201526015602482015274746f416464726573735f6f75744f66426f756e647360581b604482015290519081900360640190fd5b500160200151600160601b900490565b60008182600301101561353b576040805162461bcd60e51b8152602060048201526011602482015270746f55696e7432345f6f766572666c6f7760781b604482015290519081900360640190fd5b816003018351101561358b576040805162461bcd60e51b8152602060048201526014602482015273746f55696e7432345f6f75744f66426f756e647360601b604482015290519081900360640190fd5b50016003015190565b60608182601f0110156135df576040805162461bcd60e51b815260206004820152600e60248201526d736c6963655f6f766572666c6f7760901b604482015290519081900360640190fd5b828284011015613627576040805162461bcd60e51b815260206004820152600e60248201526d736c6963655f6f766572666c6f7760901b604482015290519081900360640190fd5b81830184511015613673576040805162461bcd60e51b8152602060048201526011602482015270736c6963655f6f75744f66426f756e647360781b604482015290519081900360640190fd5b60608215801561369257604051915060008252602082016040526136dc565b6040519150601f8416801560200281840101858101878315602002848b0101015b818310156136cb5780518352602092830192016136b3565b5050858452601f01601f1916604052505b50949350505050565b80600281900b81146108ea57600080fd5b6000806000805b84518110156137795784818151811061371257fe5b6020026020010151602001516001600160801b031685828151811061373357fe5b60200260200101516000015160020b028301925084818151811061375357fe5b6020026020010151602001516001600160801b03168201915080806001019150506136fd565b5080828161378357fe5b05925060008212801561379e575080828161379a57fe5b0715155b1561185157505060001901919050565b5160176013199091010490565b600080600080846001600160a01b0316633850c7bd6040518163ffffffff1660e01b815260040160e06040518083038186803b1580156137fa57600080fd5b505afa15801561380e573d6000803e3d6000fd5b505050506040513d601f19601f82011682018060405250810190613832919061478f565b50939750919550935050600161ffff841611915061386490505760405162461bcd60e51b81526004016106d590614b8b565b600080866001600160a01b031663252c09d7856040518263ffffffff1660e01b81526004016138939190614d4c565b60806040518083038186803b1580156138ab57600080fd5b505afa1580156138bf573d6000803e3d6000fd5b505050506040513d601f19601f820116820180604052508101906138e39190614959565b5050915091506138f1612a15565b63ffffffff168263ffffffff161461390b578495506139ef565b60008361ffff1660018561ffff168761ffff1601038161392757fe5b06905060008060008a6001600160a01b031663252c09d7856040518263ffffffff1660e01b815260040161395b9190614d5b565b60806040518083038186803b15801561397357600080fd5b505afa158015613987573d6000803e3d6000fd5b505050506040513d601f19601f820116820180604052508101906139ab9190614959565b93505092509250806139cf5760405162461bcd60e51b81526004016106d590614b6e565b82860363ffffffff811683870360060b816139e657fe5b059a5050505050505b50505050915091565b60008063ffffffff8316613a38576040805162461bcd60e51b8152602060048201526002602482015261042560f41b604482015290519081900360640190fd5b6040805160028082526060820183526000926020830190803683370190505090508381600081518110613a6757fe5b602002602001019063ffffffff16908163ffffffff1681525050600081600181518110613a9057fe5b63ffffffff90921660209283029190910182015260405163883bdbfd60e01b81526004810182815283516024830152835160009384936001600160a01b038b169363883bdbfd9388939192839260449091019185820191028083838b5b83811015613b05578181015183820152602001613aed565b505050509050019250505060006040518083038186803b158015613b2857600080fd5b505afa158015613b3c573d6000803e3d6000fd5b505050506040513d6000823e601f3d908101601f191682016040908152811015613b6557600080fd5b8101908080516040519392919084600160201b821115613b8457600080fd5b908301906020820185811115613b9957600080fd5b82518660208202830111600160201b82111715613bb557600080fd5b82525081516020918201928201910280838360005b83811015613be2578181015183820152602001613bca565b5050505090500160405260200180516040519392919084600160201b821115613c0a57600080fd5b908301906020820185811115613c1f57600080fd5b82518660208202830111600160201b82111715613c3b57600080fd5b82525081516020918201928201910280838360005b83811015613c68578181015183820152602001613c50565b5050505090500160405250505091509150600082600081518110613c8857fe5b602002602001015183600181518110613c9d57fe5b6020026020010151039050600082600081518110613cb757fe5b602002602001015183600181518110613ccc57fe5b60200260200101510390508763ffffffff168260060b81613ce957fe5b05965060008260060b128015613d1357508763ffffffff168260060b81613d0c57fe5b0760060b15155b15613d2057600019909601955b63ffffffff88166001600160a01b0302600160201b600160c01b03602083901b166001600160c01b03821681613d5257fe5b0496505050505050509250929050565b613d6a613ee1565b826001600160a01b0316846001600160a01b03161115613d88579192915b50604080516060810182526001600160a01b03948516815292909316602083015262ffffff169181019190915290565b6000613dc48383613ddb565b9050336001600160a01b03821614611a3957600080fd5b600081602001516001600160a01b031682600001516001600160a01b031610613e0357600080fd5b50805160208083015160409384015184516001600160a01b0394851681850152939091168385015262ffffff166060808401919091528351808403820181526080840185528051908301206001600160f81b031960a085015294901b6001600160601b03191660a183015260b58201939093527ff352c39f96c2019023ab98477c72c7ebc04a4fe1d43a2bc84e3eec188c24b57160d5808301919091528251808303909101815260f5909101909152805191012090565b80820182811015611a3957600080fd5b604080518082019091526000808252602082015290565b604080516060810182526000808252602082018190529181019190915290565b80356108ea81614e62565b60008083601f840112613f1d578182fd5b5081356001600160401b03811115613f33578182fd5b602083019150836020808302850101111561337e57600080fd5b600082601f830112613f5d578081fd5b81356020613f72613f6d83614df8565b614dd5565b8281528181019085830183850287018401881015613f8e578586fd5b855b85811015613fc05781356001600160801b0381168114613fae578788fd5b84529284019290840190600101613f90565b5090979650505050505050565b805180151581146108ea57600080fd5b600082601f830112613fed578081fd5b8135613ffb613f6d82614e15565b81815284602083860101111561400f578283fd5b816020850160208301379081016020019190915292915050565b80516001600160701b03811681146108ea57600080fd5b805161ffff811681146108ea57600080fd5b803562ffffff811681146108ea57600080fd5b80356108ea81614e86565b600060208284031215614081578081fd5b813561408c81614e62565b9392505050565b600080604083850312156140a5578081fd5b82356140b081614e62565b946020939093013593505050565b6000806000606084860312156140d2578081fd5b83356140dd81614e62565b92506020840135915060408401356140f481614e62565b809150509250925092565b600080600080600060a08688031215614116578283fd5b853561412181614e62565b945060208601359350604086013561413881614e62565b925060608601359150608086013561414f81614e62565b809150509295509295909350565b60008060008060808587031215614172578182fd5b843561417d81614e62565b93506020850135925060408501359150606085013561419b81614e62565b939692955090935050565b60008060008060008060c087890312156141be578384fd5b86356141c981614e62565b9550602087013594506040870135935060608701356141e781614e98565b9598949750929560808101359460a0909101359350915050565b60008060208385031215614213578182fd5b82356001600160401b03811115614228578283fd5b61423485828601613f0c565b90969095509350505050565b60008060008060808587031215614255578182fd5b84356001600160401b038082111561426b578384fd5b818701915087601f83011261427e578384fd5b8135602061428e613f6d83614df8565b82815281810190858301885b858110156142c3576142b18e8684358b0101613fdd565b8452928401929084019060010161429a565b509099505050880135925050808211156142db578384fd5b506142e887828801613f4d565b9350506142f760408601614052565b915061430560608601614065565b905092959194509250565b600060208284031215614321578081fd5b61408c82613fcd565b60008060006040848603121561433e578081fd5b8335925060208401356001600160401b0381111561435a578182fd5b61436686828701613f0c565b9497909650939450505050565b600060208284031215614384578081fd5b81356001600160401b03811115614399578182fd5b61314d84828501613fdd565b6000806000606084860312156143b9578081fd5b83356001600160401b038111156143ce578182fd5b6143da86828701613fdd565b9350506143e960208501614052565b915060408401356140f481614e86565b60006020828403121561440a578081fd5b813561408c81614e77565b60008060408385031215614427578182fd5b505080516020909101519092909150565b6000806000806060858703121561444d578182fd5b843593506020850135925060408501356001600160401b0380821115614471578384fd5b818701915087601f830112614484578384fd5b813581811115614492578485fd5b8860208285010111156144a3578485fd5b95989497505060200194505050565b6000602082840312156144c3578081fd5b81516001600160401b038111156144d8578182fd5b8201601f810184136144e8578182fd5b80516144f6613f6d82614e15565b81815285602083850101111561450a578384fd5b610b84826020830160208601614e36565b60006020828403121561452c578081fd5b81356001600160401b0380821115614542578283fd5b9083019060808286031215614555578283fd5b60405160808101818110838211171561456a57fe5b60405282358281111561457b578485fd5b61458787828601613fdd565b8252506020830135915061459a82614e62565b816020820152604083013560408201526060830135606082015280935050505092915050565b600060e082840312156145d1578081fd5b60405160e081018181106001600160401b03821117156145ed57fe5b6040526145f983613f01565b815261460760208401613f01565b602082015261461860408401614052565b604082015261462960608401613f01565b60608201526080830135608082015260a083013560a082015261464e60c08401613f01565b60c08201529392505050565b60006020828403121561466b578081fd5b81356001600160401b03811115614680578182fd5b82016080818503121561408c578182fd5b600060e082840312156106de578081fd5b600060a082840312156106de578081fd5b600061010082840312156106de578081fd5b6000602082840312156146d6578081fd5b81356001600160401b03808211156146ec578283fd5b90830190604082860312156146ff578283fd5b60405160408101818110838211171561471457fe5b604052823582811115614725578485fd5b61473187828601613fdd565b8252506020830135925061474483614e62565b6020810192909252509392505050565b600080600060608486031215614768578081fd5b61477184614029565b925061477f60208501614029565b915060408401516140f481614e86565b600080600080600080600060e0888a0312156147a9578485fd5b87516147b481614e62565b60208901519097506147c581614e77565b95506147d360408901614040565b94506147e160608901614040565b93506147ef60808901614040565b925060a08801516147ff81614e98565b915061480d60c08901613fcd565b905092959891949750929550565b60006020828403121561482c578081fd5b61408c82614052565b600060208284031215614846578081fd5b5035919050565b60006020828403121561485e578081fd5b5051919050565b60008060408385031215614877578182fd5b82359150602083013561488981614e62565b809150509250929050565b600080600080608085870312156148a9578182fd5b8435935060208501356148bb81614e62565b925060408501359150606085013561419b81614e62565b6000806000606084860312156148e6578081fd5b833592506020840135915060408401356140f481614e62565b600080600080600060808688031215614916578283fd5b853594506020860135935060408601356001600160401b03811115614939578384fd5b61494588828901613f0c565b909450925050606086013561414f81614e62565b6000806000806080858703121561496e578182fd5b845161497981614e86565b8094505060208501518060060b8114614990578283fd5b60408601519093506149a181614e62565b915061430560608601613fcd565b6001600160a01b03169052565b600081518084526149d4816020860160208601614e36565b601f01601f19169290920160200192915050565b60020b9052565b62ffffff169052565b606093841b6001600160601b0319908116825260e89390931b6001600160e81b0319166014820152921b166017820152602b0190565b6000828483379101908152919050565b60008251614a50818460208701614e36565b9190910192915050565b6001600160a01b0391909116815260200190565b6001600160a01b0392831681529116602082015260400190565b6001600160a01b0386811682528515156020830152604082018590528316606082015260a060808201819052600090614ac3908301846149bc565b979650505050505050565b6001600160a01b03929092168252602082015260400190565b6000602080830181845280855180835260408601915060408482028701019250838701855b82811015614b3a57603f19888603018452614b288583516149bc565b94509285019290850190600101614b0c565b5092979650505050505050565b60006020825261408c60208301846149bc565b6020810160058310614b6857fe5b91905290565b6020808252600390820152624f4e4960e81b604082015260600190565b6020808252600390820152624e454f60e81b604082015260600190565b602080825260129082015271151bdbc81b5d58da081c995c5d595cdd195960721b604082015260600190565b602080825260029082015261151160f21b604082015260600190565b602080825260139082015272151bdbc81b1a5d1d1b19481c9958d95a5d9959606a1b604082015260600190565b600060c082019050825182526020830151602083015260408301516040830152606083015160608301526080830151608083015260a083015160a083015292915050565b600061016082019050614c758284516149af565b6020830151614c8760208401826149af565b506040830151614c9a60408401826149ef565b506060830151614cad60608401826149e8565b506080830151614cc060808401826149e8565b5060a083015160a083015260c083015160c083015260e083015160e083015261010080840151818401525061012080840151614cfe828501826149af565b505061014092830151919092015290565b600060208252825160406020840152614d2b60608401826149bc565b602094909401516001600160a01b0316604093909301929092525090919050565b61ffff91909116815260200190565b90815260200190565b600085825284602083015260018060a01b03841660408301526080606083015261331760808301846149bc565b6000808335601e19843603018112614da7578283fd5b8301803591506001600160401b03821115614dc0578283fd5b60200191503681900382131561337e57600080fd5b6040518181016001600160401b0381118282101715614df057fe5b604052919050565b60006001600160401b03821115614e0b57fe5b5060209081020190565b60006001600160401b03821115614e2857fe5b50601f01601f191660200190565b60005b83811015614e51578181015183820152602001614e39565b838111156109e15750506000910152565b6001600160a01b03811681146110c857600080fd5b8060020b81146110c857600080fd5b63ffffffff811681146110c857600080fd5b60ff811681146110c857600080fdfe5472616e7366657248656c7065723a3a736166655472616e736665724554483a20455448207472616e73666572206661696c656453616665436173743a2076616c756520646f65736e27742066697420696e20616e20696e74323536a264697066735822122084a46f828487ff7fb743c248a953ed808ff6fe23b6e22fd7736553b365e65c5b64736f6c63430007060033",
  "immutableReferences": {
    "5048": [
      {
        "length": 32,
        "start": 2542
      },
      {
        "length": 32,
        "start": 2728
      },
      {
        "length": 32,
        "start": 3335
      },
      {
        "length": 32,
        "start": 4657
      },
      {
        "length": 32,
        "start": 9957
      },
      {
        "length": 32,
        "start": 10316
      }
    ],
    "5052": [
      {
        "length": 32,
        "start": 4693
      },
      {
        "length": 32,
        "start": 5687
      },
      {
        "length": 32,
        "start": 6444
      },
      {
        "length": 32,
        "start": 10554
      }
    ],
    "5969": [
      {
        "length": 32,
        "start": 6377
      },
      {
        "length": 32,
        "start": 7681
      },
      {
        "length": 32,
        "start": 12574
      }
    ],
    "5973": [
      {
        "length": 32,
        "start": 484
      },
      {
        "length": 32,
        "start": 2307
      },
      {
        "length": 32,
        "start": 3912
      },
      {
        "length": 32,
        "start": 4147
      },
      {
        "length": 32,
        "start": 4301
      },
      {
        "length": 32,
        "start": 4757
      },
      {
        "length": 32,
        "start": 4992
      },
      {
        "length": 32,
        "start": 9472
      },
      {
        "length": 32,
        "start": 9542
      },
      {
        "length": 32,
        "start": 9658
      }
    ]
  },
  "source": "// SPDX-License-Identifier: GPL-2.0-or-later\npragma solidity =0.7.6;\npragma abicoder v2;\n\nimport './base/SelfPermit.sol';\nimport './base/PeripheryImmutableState.sol';\n\nimport './interfaces/ISwapRouter02.sol';\nimport './V2SwapRouter.sol';\nimport './V3SwapRouter.sol';\nimport './base/ApproveAndCall.sol';\nimport './base/MulticallExtended.sol';\n\n/// @title Uniswap V2 and V3 Swap Router\ncontract SwapRouter02 is ISwapRouter02, V2SwapRouter, V3SwapRouter, ApproveAndCall, MulticallExtended, SelfPermit {\n    constructor(\n        address _factoryV2,\n        address factoryV3,\n        address _positionManager,\n        address _WETH9\n    ) ImmutableState(_factoryV2, _positionManager) PeripheryImmutableState(factoryV3, _WETH9) {}\n}\n",
  "sourcePath": "/home/jerry/ethereum/uniswap/smart-router-ctr/contracts/SwapRouter02.sol",
  "compiler": {
    "name": "solc",
    "version": "0.7.6+commit.7338295f.Emscripten.clang"
  },
  "schemaVersion": "3.4.10",
  "updatedAt": "2023-06-04T12:34:52.214Z",
  "networkType": "ethereum",
  "devdoc": {
    "kind": "dev",
    "methods": {
      "approveMax(address)": {
        "params": {
          "token": "The token to approve"
        }
      },
      "approveMaxMinusOne(address)": {
        "params": {
          "token": "The token to approve"
        }
      },
      "approveZeroThenMax(address)": {
        "params": {
          "token": "The token to approve"
        }
      },
      "approveZeroThenMaxMinusOne(address)": {
        "params": {
          "token": "The token to approve"
        }
      },
      "callPositionManager(bytes)": {
        "params": {
          "data": "Calldata to pass along to the position manager"
        },
        "returns": {
          "result": "The result from the call"
        }
      },
      "checkOracleSlippage(bytes,uint24,uint32)": {
        "params": {
          "maximumTickDivergence": "The maximum number of ticks that the price can degrade by",
          "path": "The path to fetch prices over",
          "secondsAgo": "The number of seconds ago to compute oracle prices against"
        }
      },
      "checkOracleSlippage(bytes[],uint128[],uint24,uint32)": {
        "params": {
          "amounts": "The weights for each entry in `paths`",
          "maximumTickDivergence": "The maximum number of ticks that the price can degrade by",
          "paths": "The paths to fetch prices over",
          "secondsAgo": "The number of seconds ago to compute oracle prices against"
        }
      },
      "exactInput((bytes,address,uint256,uint256))": {
        "details": "Setting `amountIn` to 0 will cause the contract to look up its own balance, and swap the entire amount, enabling contracts to send tokens before calling this function.",
        "params": {
          "params": "The parameters necessary for the multi-hop swap, encoded as `ExactInputParams` in calldata"
        },
        "returns": {
          "amountOut": "The amount of the received token"
        }
      },
      "exactInputSingle((address,address,uint24,address,uint256,uint256,uint160))": {
        "details": "Setting `amountIn` to 0 will cause the contract to look up its own balance, and swap the entire amount, enabling contracts to send tokens before calling this function.",
        "params": {
          "params": "The parameters necessary for the swap, encoded as `ExactInputSingleParams` in calldata"
        },
        "returns": {
          "amountOut": "The amount of the received token"
        }
      },
      "exactOutput((bytes,address,uint256,uint256))": {
        "params": {
          "params": "The parameters necessary for the multi-hop swap, encoded as `ExactOutputParams` in calldata"
        },
        "returns": {
          "amountIn": "The amount of the input token"
        }
      },
      "exactOutputSingle((address,address,uint24,address,uint256,uint256,uint160))": {
        "params": {
          "params": "The parameters necessary for the swap, encoded as `ExactOutputSingleParams` in calldata"
        },
        "returns": {
          "amountIn": "The amount of the input token"
        }
      },
      "getApprovalType(address,uint256)": {
        "details": "Lens to be called off-chain to determine which (if any) of the relevant approval functions should be called",
        "params": {
          "amount": "The amount to approve",
          "token": "The token to approve"
        },
        "returns": {
          "_0": "The required approval type"
        }
      },
      "increaseLiquidity((address,address,uint256,uint256,uint256))": {
        "params": {
          "params": "Calldata to pass along to the position manager"
        },
        "returns": {
          "result": "The result from the call"
        }
      },
      "mint((address,address,uint24,int24,int24,uint256,uint256,address))": {
        "params": {
          "params": "Calldata to pass along to the position manager"
        },
        "returns": {
          "result": "The result from the call"
        }
      },
      "multicall(bytes32,bytes[])": {
        "details": "The `msg.value` should not be trusted for any method callable from multicall.",
        "params": {
          "data": "The encoded function data for each of the calls to make to this contract",
          "previousBlockhash": "The expected parent blockHash"
        },
        "returns": {
          "_0": "The results from each of the calls passed in via data"
        }
      },
      "multicall(bytes[])": {
        "details": "The `msg.value` should not be trusted for any method callable from multicall.",
        "params": {
          "data": "The encoded function data for each of the calls to make to this contract"
        },
        "returns": {
          "results": "The results from each of the calls passed in via data"
        }
      },
      "multicall(uint256,bytes[])": {
        "details": "The `msg.value` should not be trusted for any method callable from multicall.",
        "params": {
          "data": "The encoded function data for each of the calls to make to this contract",
          "deadline": "The time by which this function must be called before failing"
        },
        "returns": {
          "_0": "The results from each of the calls passed in via data"
        }
      },
      "pull(address,uint256)": {
        "params": {
          "token": "The token to pull",
          "value": "The amount to pay"
        }
      },
      "refundETH()": {
        "details": "Useful for bundling with mint or increase liquidity that uses ether, or exact output swaps that use ether for the input amount"
      },
      "selfPermit(address,uint256,uint256,uint8,bytes32,bytes32)": {
        "details": "The `owner` is always msg.sender and the `spender` is always address(this).",
        "params": {
          "deadline": "A timestamp, the current blocktime must be less than or equal to this timestamp",
          "r": "Must produce valid secp256k1 signature from the holder along with `v` and `s`",
          "s": "Must produce valid secp256k1 signature from the holder along with `r` and `v`",
          "token": "The address of the token spent",
          "v": "Must produce valid secp256k1 signature from the holder along with `r` and `s`",
          "value": "The amount that can be spent of token"
        }
      },
      "selfPermitAllowed(address,uint256,uint256,uint8,bytes32,bytes32)": {
        "details": "The `owner` is always msg.sender and the `spender` is always address(this)",
        "params": {
          "expiry": "The timestamp at which the permit is no longer valid",
          "nonce": "The current nonce of the owner",
          "r": "Must produce valid secp256k1 signature from the holder along with `v` and `s`",
          "s": "Must produce valid secp256k1 signature from the holder along with `r` and `v`",
          "token": "The address of the token spent",
          "v": "Must produce valid secp256k1 signature from the holder along with `r` and `s`"
        }
      },
      "selfPermitAllowedIfNecessary(address,uint256,uint256,uint8,bytes32,bytes32)": {
        "details": "The `owner` is always msg.sender and the `spender` is always address(this) Can be used instead of #selfPermitAllowed to prevent calls from failing due to a frontrun of a call to #selfPermitAllowed.",
        "params": {
          "expiry": "The timestamp at which the permit is no longer valid",
          "nonce": "The current nonce of the owner",
          "r": "Must produce valid secp256k1 signature from the holder along with `v` and `s`",
          "s": "Must produce valid secp256k1 signature from the holder along with `r` and `v`",
          "token": "The address of the token spent",
          "v": "Must produce valid secp256k1 signature from the holder along with `r` and `s`"
        }
      },
      "selfPermitIfNecessary(address,uint256,uint256,uint8,bytes32,bytes32)": {
        "details": "The `owner` is always msg.sender and the `spender` is always address(this). Can be used instead of #selfPermit to prevent calls from failing due to a frontrun of a call to #selfPermit",
        "params": {
          "deadline": "A timestamp, the current blocktime must be less than or equal to this timestamp",
          "r": "Must produce valid secp256k1 signature from the holder along with `v` and `s`",
          "s": "Must produce valid secp256k1 signature from the holder along with `r` and `v`",
          "token": "The address of the token spent",
          "v": "Must produce valid secp256k1 signature from the holder along with `r` and `s`",
          "value": "The amount that can be spent of token"
        }
      },
      "swapExactTokensForTokens(uint256,uint256,address[],address)": {
        "details": "Setting `amountIn` to 0 will cause the contract to look up its own balance, and swap the entire amount, enabling contracts to send tokens before calling this function.",
        "params": {
          "amountIn": "The amount of token to swap",
          "amountOutMin": "The minimum amount of output that must be received",
          "path": "The ordered list of tokens to swap through",
          "to": "The recipient address"
        },
        "returns": {
          "amountOut": "The amount of the received token"
        }
      },
      "swapTokensForExactTokens(uint256,uint256,address[],address)": {
        "params": {
          "amountInMax": "The maximum amount of input that the caller will pay",
          "amountOut": "The amount of token to swap for",
          "path": "The ordered list of tokens to swap through",
          "to": "The recipient address"
        },
        "returns": {
          "amountIn": "The amount of token to pay"
        }
      },
      "sweepToken(address,uint256)": {
        "details": "The amountMinimum parameter prevents malicious contracts from stealing the token from users",
        "params": {
          "amountMinimum": "The minimum amount of token required for a transfer",
          "token": "The contract address of the token which will be transferred to msg.sender"
        }
      },
      "sweepToken(address,uint256,address)": {
        "details": "The amountMinimum parameter prevents malicious contracts from stealing the token from users",
        "params": {
          "amountMinimum": "The minimum amount of token required for a transfer",
          "recipient": "The destination address of the token",
          "token": "The contract address of the token which will be transferred to `recipient`"
        }
      },
      "sweepTokenWithFee(address,uint256,address,uint256,address)": {
        "details": "The amountMinimum parameter prevents malicious contracts from stealing the token from users"
      },
      "sweepTokenWithFee(address,uint256,uint256,address)": {
        "details": "The amountMinimum parameter prevents malicious contracts from stealing the token from users"
      },
      "uniswapV3SwapCallback(int256,int256,bytes)": {
        "details": "In the implementation you must pay the pool tokens owed for the swap. The caller of this method must be checked to be a UniswapV3Pool deployed by the canonical UniswapV3Factory. amount0Delta and amount1Delta can both be 0 if no tokens were swapped.",
        "params": {
          "amount0Delta": "The amount of token0 that was sent (negative) or must be received (positive) by the pool by the end of the swap. If positive, the callback must send that amount of token0 to the pool.",
          "amount1Delta": "The amount of token1 that was sent (negative) or must be received (positive) by the pool by the end of the swap. If positive, the callback must send that amount of token1 to the pool.",
          "data": "Any data passed through by the caller via the IUniswapV3PoolActions#swap call"
        }
      },
      "unwrapWETH9(uint256)": {
        "details": "The amountMinimum parameter prevents malicious contracts from stealing WETH9 from users.",
        "params": {
          "amountMinimum": "The minimum amount of WETH9 to unwrap"
        }
      },
      "unwrapWETH9(uint256,address)": {
        "details": "The amountMinimum parameter prevents malicious contracts from stealing WETH9 from users.",
        "params": {
          "amountMinimum": "The minimum amount of WETH9 to unwrap",
          "recipient": "The address receiving ETH"
        }
      },
      "unwrapWETH9WithFee(uint256,address,uint256,address)": {
        "details": "The amountMinimum parameter prevents malicious contracts from stealing WETH9 from users."
      },
      "unwrapWETH9WithFee(uint256,uint256,address)": {
        "details": "The amountMinimum parameter prevents malicious contracts from stealing WETH9 from users."
      },
      "wrapETH(uint256)": {
        "details": "The resulting WETH9 is custodied by the router, thus will require further distribution",
        "params": {
          "value": "The amount of ETH to wrap"
        }
      }
    },
    "title": "Uniswap V2 and V3 Swap Router",
    "version": 1
  },
  "userdoc": {
    "kind": "user",
    "methods": {
      "approveMax(address)": {
        "notice": "Approves a token for the maximum possible amount"
      },
      "approveMaxMinusOne(address)": {
        "notice": "Approves a token for the maximum possible amount minus one"
      },
      "approveZeroThenMax(address)": {
        "notice": "Approves a token for zero, then the maximum possible amount"
      },
      "approveZeroThenMaxMinusOne(address)": {
        "notice": "Approves a token for zero, then the maximum possible amount minus one"
      },
      "callPositionManager(bytes)": {
        "notice": "Calls the position manager with arbitrary calldata"
      },
      "checkOracleSlippage(bytes,uint24,uint32)": {
        "notice": "Ensures that the current (synthetic) tick over the path is no worse than `maximumTickDivergence` ticks away from the average as of `secondsAgo`"
      },
      "checkOracleSlippage(bytes[],uint128[],uint24,uint32)": {
        "notice": "Ensures that the weighted average current (synthetic) tick over the path is no worse than `maximumTickDivergence` ticks away from the average as of `secondsAgo`"
      },
      "exactInput((bytes,address,uint256,uint256))": {
        "notice": "Swaps `amountIn` of one token for as much as possible of another along the specified path"
      },
      "exactInputSingle((address,address,uint24,address,uint256,uint256,uint160))": {
        "notice": "Swaps `amountIn` of one token for as much as possible of another token"
      },
      "exactOutput((bytes,address,uint256,uint256))": {
        "notice": "Swaps as little as possible of one token for `amountOut` of another along the specified path (reversed) that may remain in the router after the swap."
      },
      "exactOutputSingle((address,address,uint24,address,uint256,uint256,uint160))": {
        "notice": "Swaps as little as possible of one token for `amountOut` of another token that may remain in the router after the swap."
      },
      "increaseLiquidity((address,address,uint256,uint256,uint256))": {
        "notice": "Calls the position manager's increaseLiquidity function"
      },
      "mint((address,address,uint24,int24,int24,uint256,uint256,address))": {
        "notice": "Calls the position manager's mint function"
      },
      "multicall(bytes32,bytes[])": {
        "notice": "Call multiple functions in the current contract and return the data from all of them if they all succeed"
      },
      "multicall(bytes[])": {
        "notice": "Call multiple functions in the current contract and return the data from all of them if they all succeed"
      },
      "multicall(uint256,bytes[])": {
        "notice": "Call multiple functions in the current contract and return the data from all of them if they all succeed"
      },
      "pull(address,uint256)": {
        "notice": "Transfers the specified amount of a token from the msg.sender to address(this)"
      },
      "refundETH()": {
        "notice": "Refunds any ETH balance held by this contract to the `msg.sender`"
      },
      "selfPermit(address,uint256,uint256,uint8,bytes32,bytes32)": {
        "notice": "Permits this contract to spend a given token from `msg.sender`"
      },
      "selfPermitAllowed(address,uint256,uint256,uint8,bytes32,bytes32)": {
        "notice": "Permits this contract to spend the sender's tokens for permit signatures that have the `allowed` parameter"
      },
      "selfPermitAllowedIfNecessary(address,uint256,uint256,uint8,bytes32,bytes32)": {
        "notice": "Permits this contract to spend the sender's tokens for permit signatures that have the `allowed` parameter"
      },
      "selfPermitIfNecessary(address,uint256,uint256,uint8,bytes32,bytes32)": {
        "notice": "Permits this contract to spend a given token from `msg.sender`"
      },
      "swapExactTokensForTokens(uint256,uint256,address[],address)": {
        "notice": "Swaps `amountIn` of one token for as much as possible of another token"
      },
      "swapTokensForExactTokens(uint256,uint256,address[],address)": {
        "notice": "Swaps as little as possible of one token for an exact amount of another token"
      },
      "sweepToken(address,uint256)": {
        "notice": "Transfers the full amount of a token held by this contract to msg.sender"
      },
      "sweepToken(address,uint256,address)": {
        "notice": "Transfers the full amount of a token held by this contract to recipient"
      },
      "sweepTokenWithFee(address,uint256,address,uint256,address)": {
        "notice": "Transfers the full amount of a token held by this contract to recipient, with a percentage between 0 (exclusive) and 1 (inclusive) going to feeRecipient"
      },
      "sweepTokenWithFee(address,uint256,uint256,address)": {
        "notice": "Transfers the full amount of a token held by this contract to msg.sender, with a percentage between 0 (exclusive) and 1 (inclusive) going to feeRecipient"
      },
      "uniswapV3SwapCallback(int256,int256,bytes)": {
        "notice": "Called to `msg.sender` after executing a swap via IUniswapV3Pool#swap."
      },
      "unwrapWETH9(uint256)": {
        "notice": "Unwraps the contract's WETH9 balance and sends it to msg.sender as ETH."
      },
      "unwrapWETH9(uint256,address)": {
        "notice": "Unwraps the contract's WETH9 balance and sends it to recipient as ETH."
      },
      "unwrapWETH9WithFee(uint256,address,uint256,address)": {
        "notice": "Unwraps the contract's WETH9 balance and sends it to recipient as ETH, with a percentage between 0 (exclusive), and 1 (inclusive) going to feeRecipient"
      },
      "unwrapWETH9WithFee(uint256,uint256,address)": {
        "notice": "Unwraps the contract's WETH9 balance and sends it to msg.sender as ETH, with a percentage between 0 (exclusive), and 1 (inclusive) going to feeRecipient"
      },
      "wrapETH(uint256)": {
        "notice": "Wraps the contract's ETH balance into WETH9"
      }
    },
    "version": 1
  }
}