{
  "contractName": "TokenValidator",
  "abi": [
    {
      "inputs": [
        {
          "internalType": "address",
          "name": "_factoryV2",
          "type": "address"
        },
        {
          "internalType": "address",
          "name": "_positionManager",
          "type": "address"
        }
      ],
      "stateMutability": "nonpayable",
      "type": "constructor"
    },
    {
      "inputs": [],
      "name": "factoryV2",
      "outputs": [
        {
          "internalType": "address",
          "name": "",
          "type": "address"
        }
      ],
      "stateMutability": "view",
      "type": "function",
      "constant": true
    },
    {
      "inputs": [],
      "name": "positionManager",
      "outputs": [
        {
          "internalType": "address",
          "name": "",
          "type": "address"
        }
      ],
      "stateMutability": "view",
      "type": "function",
      "constant": true
    },
    {
      "inputs": [
        {
          "internalType": "address[]",
          "name": "tokens",
          "type": "address[]"
        },
        {
          "internalType": "address[]",
          "name": "baseTokens",
          "type": "address[]"
        },
        {
          "internalType": "uint256",
          "name": "amountToBorrow",
          "type": "uint256"
        }
      ],
      "name": "batchValidate",
      "outputs": [
        {
          "internalType": "enum ITokenValidator.Status[]",
          "name": "isFotResults",
          "type": "uint8[]"
        }
      ],
      "stateMutability": "nonpayable",
      "type": "function"
    },
    {
      "inputs": [
        {
          "internalType": "address",
          "name": "token",
          "type": "address"
        },
        {
          "internalType": "address[]",
          "name": "baseTokens",
          "type": "address[]"
        },
        {
          "internalType": "uint256",
          "name": "amountToBorrow",
          "type": "uint256"
        }
      ],
      "name": "validate",
      "outputs": [
        {
          "internalType": "enum ITokenValidator.Status",
          "name": "",
          "type": "uint8"
        }
      ],
      "stateMutability": "nonpayable",
      "type": "function"
    },
    {
      "inputs": [
        {
          "internalType": "address",
          "name": "",
          "type": "address"
        },
        {
          "internalType": "uint256",
          "name": "amount0",
          "type": "uint256"
        },
        {
          "internalType": "uint256",
          "name": "",
          "type": "uint256"
        },
        {
          "internalType": "bytes",
          "name": "data",
          "type": "bytes"
        }
      ],
      "name": "uniswapV2Call",
      "outputs": [],
      "stateMutability": "view",
      "type": "function",
      "constant": true
    }
  ],
  "bytecode": "0x60c060405234801561001057600080fd5b50604051610e90380380610e9083398101604081905261002f91610069565b6001600160601b0319606092831b8116608052911b1660a05261009b565b80516001600160a01b038116811461006457600080fd5b919050565b6000806040838503121561007b578182fd5b6100848361004d565b91506100926020840161004d565b90509250929050565b60805160601c60a05160601c610dcc6100c46000398061037152508061034d5250610dcc6000f3fe608060405234801561001057600080fd5b50600436106100575760003560e01c80630143aace1461005c57806310d1e85c1461008557806368e0d4e11461009a578063791b98bc146100af578063be7672e5146100b7575b600080fd5b61006f61006a3660046109a5565b6100d7565b60405161007c9190610bec565b60405180910390f35b6100986100933660046109fe565b61015c565b005b6100a261034b565b60405161007c9190610b8d565b6100a261036f565b6100ca6100c5366004610a8e565b610393565b60405161007c9190610ba1565b6000805b8381101561014e576000610110878787858181106100f557fe5b905060200201602081019061010a919061096d565b86610450565b9050600181600281111561012057fe5b14806101375750600281600281111561013557fe5b145b156101455791506101549050565b506001016100db565b50600090505b949350505050565b6000339050600080826001600160a01b0316630dfe16816040518163ffffffff1660e01b815260040160206040518083038186803b15801561019d57600080fd5b505afa1580156101b1573d6000803e3d6000fd5b505050506040513d601f19601f820116820180604052508101906101d59190610989565b836001600160a01b031663d21220a76040518163ffffffff1660e01b815260040160206040518083038186803b15801561020e57600080fd5b505afa158015610222573d6000803e3d6000fd5b505050506040513d601f19601f820116820180604052508101906102469190610989565b915091506000808811610259578161025b565b825b905060008061026c87890189610b16565b91509150600082846001600160a01b03166370a08231306040518263ffffffff1660e01b815260040161029f9190610b8d565b60206040518083038186803b1580156102b757600080fd5b505afa1580156102cb573d6000803e3d6000fd5b505050506040513d601f19601f820116820180604052508101906102ef9190610afe565b0390508181146103335760408051808201825260038152621193d560ea1b6020820152905162461bcd60e51b815261032a9190600401610c00565b60405180910390fd5b60405162461bcd60e51b815260040161032a90610c13565b7f000000000000000000000000000000000000000000000000000000000000000081565b7f000000000000000000000000000000000000000000000000000000000000000081565b6060846001600160401b03811180156103ab57600080fd5b506040519080825280602002602001820160405280156103d5578160200160208202803683370190505b50905060005b858110156104465761040f8787838181106103f257fe5b9050602002016020810190610407919061096d565b8686866100d7565b82828151811061041b57fe5b6020026020010190600281111561042e57fe5b9081600281111561043b57fe5b9052506001016103db565b5095945050505050565b6000826001600160a01b0316846001600160a01b031614156104745750600061075f565b60006104f1306001600160a01b03166368e0d4e16040518163ffffffff1660e01b815260040160206040518083038186803b1580156104b257600080fd5b505afa1580156104c6573d6000803e3d6000fd5b505050506040513d601f19601f820116820180604052508101906104ea9190610989565b8686610766565b60408051600481526024810182526020810180516001600160e01b0316630dfe168160e01b17905290519192506000916001600160a01b0384169161053591610b71565b6000604051808303816000865af19150503d8060008114610572576040519150601f19603f3d011682016040523d82523d6000602084013e610577565b606091505b509150508051600014156105905760009250505061075f565b6000818060200190518101906105a69190610989565b9050600080826001600160a01b0316896001600160a01b0316146105cc576000876105d0565b8660005b915091506000896001600160a01b03166370a08231306040518263ffffffff1660e01b81526004016106029190610b8d565b60206040518083038186803b15801561061a57600080fd5b505afa15801561062e573d6000803e3d6000fd5b505050506040513d601f19601f820116820180604052508101906106529190610afe565b90506000869050806001600160a01b031663022c0d9f858530868e60405160200161067e929190610c5e565b6040516020818303038152906040526040518563ffffffff1660e01b81526004016106ac9493929190610c6c565b600060405180830381600087803b1580156106c657600080fd5b505af19250505080156106d7575060015b610747576106e3610cd9565b806106ee575061073d565b6106f781610821565b1561070d5760019850505050505050505061075f565b6107168161086a565b1561072c5760029850505050505050505061075f565b60009850505050505050505061075f565b3d6000803e3d6000fd5b60405162461bcd60e51b815260040161032a90610c34565b9392505050565b600080600061077585856108c8565b604080516001600160601b0319606094851b811660208084019190915293851b81166034830152825160288184030181526048830184528051908501206001600160f81b031960688401529a90941b9093166069840152607d8301989098527f39508270e57a7b0c1d470bd64db67ef1e8a221c9ef76e08d2a87edd691ce92db609d808401919091528851808403909101815260bd909201909752805196019590952095945050505050565b6040805180820190915260038152621193d560ea1b6020918201528151908201207f0d441c7cb74abc94cc606c98870ca9174ef5b167b2f7ffed505658cf4574b003145b919050565b60408051808201909152600f8082526e1514905394d1915497d19052531151608a1b6020830152825160009291808210156108ab5760009350505050610865565b602092830181902091819003850190920191909120149050919050565b600080826001600160a01b0316846001600160a01b031614156108ea57600080fd5b826001600160a01b0316846001600160a01b03161061090a57828461090d565b83835b90925090506001600160a01b03821661092557600080fd5b9250929050565b60008083601f84011261093d578182fd5b5081356001600160401b03811115610953578182fd5b602083019150836020808302850101111561092557600080fd5b60006020828403121561097e578081fd5b813561075f81610d7e565b60006020828403121561099a578081fd5b815161075f81610d7e565b600080600080606085870312156109ba578283fd5b84356109c581610d7e565b935060208501356001600160401b038111156109df578384fd5b6109eb8782880161092c565b9598909750949560400135949350505050565b600080600080600060808688031215610a15578081fd5b8535610a2081610d7e565b9450602086013593506040860135925060608601356001600160401b0380821115610a49578283fd5b818801915088601f830112610a5c578283fd5b813581811115610a6a578384fd5b896020828501011115610a7b578384fd5b9699959850939650602001949392505050565b600080600080600060608688031215610aa5578081fd5b85356001600160401b0380821115610abb578283fd5b610ac789838a0161092c565b90975095506020880135915080821115610adf578283fd5b50610aec8882890161092c565b96999598509660400135949350505050565b600060208284031215610b0f578081fd5b5051919050565b60008060408385031215610b28578182fd5b50508035926020909101359150565b60008151808452610b4f816020860160208601610ca3565b601f01601f19169290920160200192915050565b60038110610b6d57fe5b9052565b60008251610b83818460208701610ca3565b9190910192915050565b6001600160a01b0391909116815260200190565b6020808252825182820181905260009190848201906040850190845b81811015610be057610bd0838551610b63565b9284019291840191600101610bbd565b50909695505050505050565b60208101610bfa8284610b63565b92915050565b60006020825261075f6020830184610b37565b6020808252600790820152662ab735b737bbb760c91b604082015260600190565b60208082526010908201526f2ab732bc3832b1ba32b21032b93937b960811b604082015260600190565b918252602082015260400190565b600085825284602083015260018060a01b038416604083015260806060830152610c996080830184610b37565b9695505050505050565b60005b83811015610cbe578181015183820152602001610ca6565b83811115610ccd576000848401525b50505050565b60e01c90565b600060443d1015610ce957610d7b565b600481823e6308c379a0610cfd8251610cd3565b14610d0757610d7b565b6040513d600319016004823e80513d6001600160401b038160248401118184111715610d365750505050610d7b565b82840192508251915080821115610d505750505050610d7b565b503d83016020828401011115610d6857505050610d7b565b601f01601f191681016020016040529150505b90565b6001600160a01b0381168114610d9357600080fd5b5056fea2646970667358221220b781fd98316dc76a93542910ec43c7b1ede6c9842f73686e1f30ea7f548c436764736f6c63430007060033",
  "immutableReferences": {
    "6519": [
      {
        "length": 32,
        "start": 845
      }
    ],
    "6523": [
      {
        "length": 32,
        "start": 881
      }
    ]
  },
  "source": "// SPDX-License-Identifier: GPL-2.0-or-later\npragma solidity =0.7.6;\npragma abicoder v2;\n\nimport '../interfaces/IERC20.sol';\nimport '../base/PeripheryImmutableState.sol';\nimport '../interfaces/IUniswapV2Callee.sol';\nimport '../interfaces/IUniswapV2Pair.sol';\nimport '../libraries/UniswapV2Library.sol';\nimport '../interfaces/ISwapRouter02.sol';\nimport '../interfaces/ITokenValidator.sol';\nimport '../base/ImmutableState.sol';\n\n/// @notice Validates tokens by flash borrowing from the token/<base token> pool on V2.\n/// @notice Returns\n///     Status.FOT if we detected a fee is taken on transfer.\n///     Status.STF if transfer failed for the token.\n///     Status.UNKN if we did not detect any issues with the token.\n/// @notice A return value of Status.UNKN does not mean the token is definitely not a fee on transfer token\n///     or definitely has no problems with its transfer. It just means we cant say for sure that it has any\n///     issues.\n/// @dev We can not guarantee the result of this lens is correct for a few reasons:\n/// @dev 1/ Some tokens take fees or allow transfers under specific conditions, for example some have an allowlist\n/// @dev    of addresses that do/dont require fees. Therefore the result is not guaranteed to be correct\n/// @dev    in all circumstances.\n/// @dev 2/ It is possible that the token does not have any pools on V2 therefore we are not able to perform\n/// @dev    a flashloan to test the token.\ncontract TokenValidator is ITokenValidator, IUniswapV2Callee, ImmutableState {\n    string internal constant FOT_REVERT_STRING = 'FOT';\n    // https://github.com/Uniswap/v2-core/blob/1136544ac842ff48ae0b1b939701436598d74075/contracts/UniswapV2Pair.sol#L46\n    string internal constant STF_REVERT_STRING_SUFFIX = 'TRANSFER_FAILED';\n\n    constructor(address _factoryV2, address _positionManager) ImmutableState(_factoryV2, _positionManager) {}\n\n    function batchValidate(\n        address[] calldata tokens,\n        address[] calldata baseTokens,\n        uint256 amountToBorrow\n    ) public override returns (Status[] memory isFotResults) {\n        isFotResults = new Status[](tokens.length);\n        for (uint256 i = 0; i < tokens.length; i++) {\n            isFotResults[i] = validate(tokens[i], baseTokens, amountToBorrow);\n        }\n    }\n\n    function validate(\n        address token,\n        address[] calldata baseTokens,\n        uint256 amountToBorrow\n    ) public override returns (Status) {\n        for (uint256 i = 0; i < baseTokens.length; i++) {\n            Status result = _validate(token, baseTokens[i], amountToBorrow);\n            if (result == Status.FOT || result == Status.STF) {\n                return result;\n            }\n        }\n        return Status.UNKN;\n    }\n\n    function _validate(\n        address token,\n        address baseToken,\n        uint256 amountToBorrow\n    ) internal returns (Status) {\n        if (token == baseToken) {\n            return Status.UNKN;\n        }\n\n        address pairAddress = UniswapV2Library.pairFor(this.factoryV2(), token, baseToken);\n\n        // If the token/baseToken pair exists, get token0.\n        // Must do low level call as try/catch does not support case where contract does not exist.\n        (, bytes memory returnData) = address(pairAddress).call(abi.encodeWithSelector(IUniswapV2Pair.token0.selector));\n\n        if (returnData.length == 0) {\n            return Status.UNKN;\n        }\n\n        address token0Address = abi.decode(returnData, (address));\n\n        // Flash loan {amountToBorrow}\n        (uint256 amount0Out, uint256 amount1Out) =\n            token == token0Address ? (amountToBorrow, uint256(0)) : (uint256(0), amountToBorrow);\n\n        uint256 balanceBeforeLoan = IERC20(token).balanceOf(address(this));\n\n        IUniswapV2Pair pair = IUniswapV2Pair(pairAddress);\n\n        try\n            pair.swap(amount0Out, amount1Out, address(this), abi.encode(balanceBeforeLoan, amountToBorrow))\n        {} catch Error(string memory reason) {\n            if (isFotFailed(reason)) {\n                return Status.FOT;\n            }\n\n            if (isTransferFailed(reason)) {\n                return Status.STF;\n            }\n\n            return Status.UNKN;\n        }\n\n        // Swap always reverts so should never reach.\n        revert('Unexpected error');\n    }\n\n    function isFotFailed(string memory reason) internal pure returns (bool) {\n        return keccak256(bytes(reason)) == keccak256(bytes(FOT_REVERT_STRING));\n    }\n\n    function isTransferFailed(string memory reason) internal pure returns (bool) {\n        // We check the suffix of the revert string so we can support forks that\n        // may have modified the prefix.\n        string memory stf = STF_REVERT_STRING_SUFFIX;\n\n        uint256 reasonLength = bytes(reason).length;\n        uint256 suffixLength = bytes(stf).length;\n        if (reasonLength < suffixLength) {\n            return false;\n        }\n\n        uint256 ptr;\n        uint256 offset = 32 + reasonLength - suffixLength;\n        bool transferFailed;\n        assembly {\n            ptr := add(reason, offset)\n            let suffixPtr := add(stf, 32)\n            transferFailed := eq(keccak256(ptr, suffixLength), keccak256(suffixPtr, suffixLength))\n        }\n\n        return transferFailed;\n    }\n\n    function uniswapV2Call(\n        address,\n        uint256 amount0,\n        uint256,\n        bytes calldata data\n    ) external view override {\n        IUniswapV2Pair pair = IUniswapV2Pair(msg.sender);\n        (address token0, address token1) = (pair.token0(), pair.token1());\n\n        IERC20 tokenBorrowed = IERC20(amount0 > 0 ? token0 : token1);\n\n        (uint256 balanceBeforeLoan, uint256 amountRequestedToBorrow) = abi.decode(data, (uint256, uint256));\n        uint256 amountBorrowed = tokenBorrowed.balanceOf(address(this)) - balanceBeforeLoan;\n\n        // If we received less token than we requested when we called swap, then a fee must have been taken\n        // by the token during transfer.\n        if (amountBorrowed != amountRequestedToBorrow) {\n            revert(FOT_REVERT_STRING);\n        }\n\n        // Note: If we do not revert here, we would end up reverting in the pair's swap method anyway\n        // since for a flash borrow we need to transfer back the amount we borrowed + 0.3% fee, and we don't\n        // have funds to cover the fee. Revert early here to save gas/time.\n        revert('Unknown');\n    }\n}\n",
  "sourcePath": "/home/jerry/ethereum/uniswap/smart-router-ctr/contracts/lens/TokenValidator.sol",
  "compiler": {
    "name": "solc",
    "version": "0.7.6+commit.7338295f.Emscripten.clang"
  },
  "schemaVersion": "3.4.10",
  "updatedAt": "2023-06-04T12:34:52.233Z",
  "networkType": "ethereum",
  "devdoc": {
    "details": "We can not guarantee the result of this lens is correct for a few reasons:1/ Some tokens take fees or allow transfers under specific conditions, for example some have an allowlistof addresses that do/dont require fees. Therefore the result is not guaranteed to be correctin all circumstances.2/ It is possible that the token does not have any pools on V2 therefore we are not able to performa flashloan to test the token.",
    "kind": "dev",
    "methods": {
      "batchValidate(address[],address[],uint256)": {
        "params": {
          "amountToBorrow": "The amount to try flash borrowing from the pools",
          "baseTokens": "The addresses of the tokens to try pairing with token when looking for a pool to flash loan from.",
          "tokens": "The addresses of the tokens to check for fee on transfer"
        },
        "returns": {
          "isFotResults": "The status of the token"
        }
      },
      "validate(address,address[],uint256)": {
        "params": {
          "amountToBorrow": "The amount to try flash borrowing from the pools",
          "baseTokens": "The addresses of the tokens to try pairing with token when looking for a pool to flash loan from.",
          "token": "The address of the token to check for fee on transfer"
        },
        "returns": {
          "_0": "The status of the token"
        }
      }
    },
    "version": 1
  },
  "userdoc": {
    "kind": "user",
    "methods": {
      "batchValidate(address[],address[],uint256)": {
        "notice": "Validates each token by detecting if its transferable or takes a fee on transfer"
      },
      "validate(address,address[],uint256)": {
        "notice": "Validates a token by detecting if its transferable or takes a fee on transfer"
      }
    },
    "notice": "Validates tokens by flash borrowing from the token/<base token> pool on V2.Returns     Status.FOT if we detected a fee is taken on transfer.     Status.STF if transfer failed for the token.     Status.UNKN if we did not detect any issues with the token.A return value of Status.UNKN does not mean the token is definitely not a fee on transfer token     or definitely has no problems with its transfer. It just means we cant say for sure that it has any     issues.",
    "version": 1
  }
}