{
  "contractName": "UniswapInterfaceMulticall",
  "abi": [
    {
      "inputs": [],
      "name": "getCurrentBlockTimestamp",
      "outputs": [
        {
          "internalType": "uint256",
          "name": "timestamp",
          "type": "uint256"
        }
      ],
      "stateMutability": "view",
      "type": "function"
    },
    {
      "inputs": [
        {
          "internalType": "address",
          "name": "addr",
          "type": "address"
        }
      ],
      "name": "getEthBalance",
      "outputs": [
        {
          "internalType": "uint256",
          "name": "balance",
          "type": "uint256"
        }
      ],
      "stateMutability": "view",
      "type": "function"
    },
    {
      "inputs": [
        {
          "components": [
            {
              "internalType": "address",
              "name": "target",
              "type": "address"
            },
            {
              "internalType": "uint256",
              "name": "gasLimit",
              "type": "uint256"
            },
            {
              "internalType": "bytes",
              "name": "callData",
              "type": "bytes"
            }
          ],
          "internalType": "struct UniswapInterfaceMulticall.Call[]",
          "name": "calls",
          "type": "tuple[]"
        }
      ],
      "name": "multicall",
      "outputs": [
        {
          "internalType": "uint256",
          "name": "blockNumber",
          "type": "uint256"
        },
        {
          "components": [
            {
              "internalType": "bool",
              "name": "success",
              "type": "bool"
            },
            {
              "internalType": "uint256",
              "name": "gasUsed",
              "type": "uint256"
            },
            {
              "internalType": "bytes",
              "name": "returnData",
              "type": "bytes"
            }
          ],
          "internalType": "struct UniswapInterfaceMulticall.Result[]",
          "name": "returnData",
          "type": "tuple[]"
        }
      ],
      "stateMutability": "nonpayable",
      "type": "function"
    }
  ],
  "bytecode": "0x608060405234801561001057600080fd5b5061050c806100206000396000f3fe608060405234801561001057600080fd5b50600436106100415760003560e01c80630f28c97d146100465780631749e1e3146100645780634d2301cc14610085575b600080fd5b61004e610098565b60405161005b91906103d8565b60405180910390f35b61007761007236600461027f565b61009c565b60405161005b9291906103e1565b61004e61009336600461025e565b610212565b4290565b805143906060906001600160401b03811180156100b857600080fd5b506040519080825280602002602001820160405280156100f257816020015b6100df61021f565b8152602001906001900390816100d75790505b50905060005b835181101561020c57600080600086848151811061011257fe5b60200260200101516000015187858151811061012a57fe5b60200260200101516020015188868151811061014257fe5b60200260200101516040015192509250925060005a9050600080856001600160a01b0316858560405161017591906103bc565b60006040518083038160008787f1925050503d80600081146101b3576040519150601f19603f3d011682016040523d82523d6000602084013e6101b8565b606091505b509150915060005a8403905060405180606001604052808415158152602001828152602001838152508989815181106101ed57fe5b60200260200101819052505050505050505080806001019150506100f8565b50915091565b6001600160a01b03163190565b604051806060016040528060001515815260200160008152602001606081525090565b80356001600160a01b038116811461025957600080fd5b919050565b60006020828403121561026f578081fd5b61027882610242565b9392505050565b60006020808385031215610291578182fd5b82356001600160401b03808211156102a7578384fd5b818501915085601f8301126102ba578384fd5b8135818111156102c657fe5b6102d38485830201610483565b81815284810190848601875b848110156103ad5781358701601f196060828e03820112156102ff578a8bfd5b60408051606081018181108b8211171561031557fe5b8252610322848d01610242565b8152818401358c82015260608401358a81111561033d578d8efd5b8085019450508e603f850112610351578c8dfd5b8b8401358a81111561035f57fe5b61036f8d85601f84011601610483565b93508084528f83828701011115610384578d8efd5b808386018e86013783018c018d90529081019190915285525092870192908701906001016102df565b50909998505050505050505050565b600082516103ce8184602087016104a6565b9190910192915050565b90815260200190565b600060408083018584526020828186015281865180845260609350838701915083838202880101838901875b8381101561047357898303605f19018552815180511515845286810151878501528801518884018890528051888501819052608061045082828801858c016104a6565b96880196601f91909101601f19169490940190930192509085019060010161040d565b50909a9950505050505050505050565b6040518181016001600160401b038111828210171561049e57fe5b604052919050565b60005b838110156104c15781810151838201526020016104a9565b838111156104d0576000848401525b5050505056fea2646970667358221220c87530b520eb48e1661728e5035f206dd9cc414357ada1e0eb1fdb86e1ee4c1264736f6c63430007060033",
  "immutableReferences": {},
  "source": "// SPDX-License-Identifier: MIT\npragma solidity >=0.7.6;\npragma abicoder v2;\n\n/// @notice A fork of Multicall2 specifically tailored for the Uniswap Interface\ncontract UniswapInterfaceMulticall {\n    struct Call {\n        address target;\n        uint256 gasLimit;\n        bytes callData;\n    }\n\n    struct Result {\n        bool success;\n        uint256 gasUsed;\n        bytes returnData;\n    }\n\n    function getCurrentBlockTimestamp() public view returns (uint256 timestamp) {\n        timestamp = block.timestamp;\n    }\n\n    function getEthBalance(address addr) public view returns (uint256 balance) {\n        balance = addr.balance;\n    }\n\n    function multicall(Call[] memory calls) public returns (uint256 blockNumber, Result[] memory returnData) {\n        blockNumber = block.number;\n        returnData = new Result[](calls.length);\n        for (uint256 i = 0; i < calls.length; i++) {\n            (address target, uint256 gasLimit, bytes memory callData) =\n                (calls[i].target, calls[i].gasLimit, calls[i].callData);\n            uint256 gasLeftBefore = gasleft();\n            (bool success, bytes memory ret) = target.call{gas: gasLimit}(callData);\n            uint256 gasUsed = gasLeftBefore - gasleft();\n            returnData[i] = Result(success, gasUsed, ret);\n        }\n    }\n}\n",
  "sourcePath": "/home/jerry/ethereum/uniswap/smart-router-ctr/contracts/lens/UniswapInterfaceMulticall.sol",
  "compiler": {
    "name": "solc",
    "version": "0.7.6+commit.7338295f.Emscripten.clang"
  },
  "schemaVersion": "3.4.10",
  "updatedAt": "2022-11-07T21:58:02.546Z",
  "devdoc": {
    "kind": "dev",
    "methods": {},
    "version": 1
  },
  "userdoc": {
    "kind": "user",
    "methods": {},
    "notice": "A fork of Multicall2 specifically tailored for the Uniswap Interface",
    "version": 1
  }
}