{
  "contractName": "V3Migrator",
  "abi": [
    {
      "inputs": [
        {
          "internalType": "address",
          "name": "_factory",
          "type": "address"
        },
        {
          "internalType": "address",
          "name": "_WETH9",
          "type": "address"
        },
        {
          "internalType": "address",
          "name": "_nonfungiblePositionManager",
          "type": "address"
        }
      ],
      "stateMutability": "nonpayable",
      "type": "constructor"
    },
    {
      "inputs": [],
      "name": "WETH9",
      "outputs": [
        {
          "internalType": "address",
          "name": "",
          "type": "address"
        }
      ],
      "stateMutability": "view",
      "type": "function"
    },
    {
      "inputs": [
        {
          "internalType": "address",
          "name": "token0",
          "type": "address"
        },
        {
          "internalType": "address",
          "name": "token1",
          "type": "address"
        },
        {
          "internalType": "uint24",
          "name": "fee",
          "type": "uint24"
        },
        {
          "internalType": "uint160",
          "name": "sqrtPriceX96",
          "type": "uint160"
        }
      ],
      "name": "createAndInitializePoolIfNecessary",
      "outputs": [
        {
          "internalType": "address",
          "name": "pool",
          "type": "address"
        }
      ],
      "stateMutability": "payable",
      "type": "function"
    },
    {
      "inputs": [],
      "name": "factory",
      "outputs": [
        {
          "internalType": "address",
          "name": "",
          "type": "address"
        }
      ],
      "stateMutability": "view",
      "type": "function"
    },
    {
      "inputs": [
        {
          "internalType": "bytes[]",
          "name": "data",
          "type": "bytes[]"
        }
      ],
      "name": "multicall",
      "outputs": [
        {
          "internalType": "bytes[]",
          "name": "results",
          "type": "bytes[]"
        }
      ],
      "stateMutability": "payable",
      "type": "function"
    },
    {
      "inputs": [],
      "name": "nonfungiblePositionManager",
      "outputs": [
        {
          "internalType": "address",
          "name": "",
          "type": "address"
        }
      ],
      "stateMutability": "view",
      "type": "function"
    },
    {
      "inputs": [
        {
          "internalType": "address",
          "name": "token",
          "type": "address"
        },
        {
          "internalType": "uint256",
          "name": "value",
          "type": "uint256"
        },
        {
          "internalType": "uint256",
          "name": "deadline",
          "type": "uint256"
        },
        {
          "internalType": "uint8",
          "name": "v",
          "type": "uint8"
        },
        {
          "internalType": "bytes32",
          "name": "r",
          "type": "bytes32"
        },
        {
          "internalType": "bytes32",
          "name": "s",
          "type": "bytes32"
        }
      ],
      "name": "selfPermit",
      "outputs": [],
      "stateMutability": "payable",
      "type": "function"
    },
    {
      "inputs": [
        {
          "internalType": "address",
          "name": "token",
          "type": "address"
        },
        {
          "internalType": "uint256",
          "name": "nonce",
          "type": "uint256"
        },
        {
          "internalType": "uint256",
          "name": "expiry",
          "type": "uint256"
        },
        {
          "internalType": "uint8",
          "name": "v",
          "type": "uint8"
        },
        {
          "internalType": "bytes32",
          "name": "r",
          "type": "bytes32"
        },
        {
          "internalType": "bytes32",
          "name": "s",
          "type": "bytes32"
        }
      ],
      "name": "selfPermitAllowed",
      "outputs": [],
      "stateMutability": "payable",
      "type": "function"
    },
    {
      "inputs": [
        {
          "internalType": "address",
          "name": "token",
          "type": "address"
        },
        {
          "internalType": "uint256",
          "name": "nonce",
          "type": "uint256"
        },
        {
          "internalType": "uint256",
          "name": "expiry",
          "type": "uint256"
        },
        {
          "internalType": "uint8",
          "name": "v",
          "type": "uint8"
        },
        {
          "internalType": "bytes32",
          "name": "r",
          "type": "bytes32"
        },
        {
          "internalType": "bytes32",
          "name": "s",
          "type": "bytes32"
        }
      ],
      "name": "selfPermitAllowedIfNecessary",
      "outputs": [],
      "stateMutability": "payable",
      "type": "function"
    },
    {
      "inputs": [
        {
          "internalType": "address",
          "name": "token",
          "type": "address"
        },
        {
          "internalType": "uint256",
          "name": "value",
          "type": "uint256"
        },
        {
          "internalType": "uint256",
          "name": "deadline",
          "type": "uint256"
        },
        {
          "internalType": "uint8",
          "name": "v",
          "type": "uint8"
        },
        {
          "internalType": "bytes32",
          "name": "r",
          "type": "bytes32"
        },
        {
          "internalType": "bytes32",
          "name": "s",
          "type": "bytes32"
        }
      ],
      "name": "selfPermitIfNecessary",
      "outputs": [],
      "stateMutability": "payable",
      "type": "function"
    },
    {
      "stateMutability": "payable",
      "type": "receive"
    },
    {
      "inputs": [
        {
          "components": [
            {
              "internalType": "address",
              "name": "pair",
              "type": "address"
            },
            {
              "internalType": "uint256",
              "name": "liquidityToMigrate",
              "type": "uint256"
            },
            {
              "internalType": "uint8",
              "name": "percentageToMigrate",
              "type": "uint8"
            },
            {
              "internalType": "address",
              "name": "token0",
              "type": "address"
            },
            {
              "internalType": "address",
              "name": "token1",
              "type": "address"
            },
            {
              "internalType": "uint24",
              "name": "fee",
              "type": "uint24"
            },
            {
              "internalType": "int24",
              "name": "tickLower",
              "type": "int24"
            },
            {
              "internalType": "int24",
              "name": "tickUpper",
              "type": "int24"
            },
            {
              "internalType": "uint256",
              "name": "amount0Min",
              "type": "uint256"
            },
            {
              "internalType": "uint256",
              "name": "amount1Min",
              "type": "uint256"
            },
            {
              "internalType": "address",
              "name": "recipient",
              "type": "address"
            },
            {
              "internalType": "uint256",
              "name": "deadline",
              "type": "uint256"
            },
            {
              "internalType": "bool",
              "name": "refundAsETH",
              "type": "bool"
            }
          ],
          "internalType": "struct IV3Migrator.MigrateParams",
          "name": "params",
          "type": "tuple"
        }
      ],
      "name": "migrate",
      "outputs": [],
      "stateMutability": "nonpayable",
      "type": "function"
    }
  ],
  "bytecode": "0x60e06040523480156200001157600080fd5b506040516200198738038062001987833981016040819052620000349162000079565b6001600160601b0319606093841b811660805291831b821660a05290911b1660c052620000c2565b80516001600160a01b03811681146200007457600080fd5b919050565b6000806000606084860312156200008e578283fd5b62000099846200005c565b9250620000a9602085016200005c565b9150620000b9604085016200005c565b90509250925092565b60805160601c60a05160601c60c05160601c6118596200012e600039806107625280610a2d5280610a675280610a915280610c3a525080609552806105665280610c865280610cdd5280610db85280610e0f5250806101f852806102bf528061081552506118596000f3fe6080604052600436106100855760003560e01c806313ead562146100e25780634659a4941461010b5780634aa4a4fc1461011e578063a4a78f0c14610133578063ac9650d814610146578063b44a272214610166578063c2e3140a1461017b578063c45a01551461018e578063d44f2bf2146101a3578063f3995c67146101c3576100dd565b366100dd57336001600160a01b037f000000000000000000000000000000000000000000000000000000000000000016146100db5760405162461bcd60e51b81526004016100d290611646565b60405180910390fd5b005b600080fd5b6100f56100f036600461124d565b6101d6565b604051610102919061156d565b60405180910390f35b6100db6101193660046112a6565b6104ca565b34801561012a57600080fd5b506100f5610564565b6100db6101413660046112a6565b610588565b6101596101543660046112ff565b610621565b60405161010291906115a5565b34801561017257600080fd5b506100f5610760565b6100db6101893660046112a6565b610784565b34801561019a57600080fd5b506100f5610813565b3480156101af57600080fd5b506100db6101be36600461145c565b610837565b6100db6101d13660046112a6565b610ea3565b6000836001600160a01b0316856001600160a01b0316106101f657600080fd5b7f00000000000000000000000000000000000000000000000000000000000000006001600160a01b0316631698ee828686866040518463ffffffff1660e01b815260040180846001600160a01b03168152602001836001600160a01b031681526020018262ffffff168152602001935050505060206040518083038186803b15801561028157600080fd5b505afa158015610295573d6000803e3d6000fd5b505050506040513d60208110156102ab57600080fd5b505190506001600160a01b0381166103e1577f00000000000000000000000000000000000000000000000000000000000000006001600160a01b031663a16712958686866040518463ffffffff1660e01b815260040180846001600160a01b03168152602001836001600160a01b031681526020018262ffffff1681526020019350505050602060405180830381600087803b15801561034a57600080fd5b505af115801561035e573d6000803e3d6000fd5b505050506040513d602081101561037457600080fd5b50516040805163f637731d60e01b81526001600160a01b03858116600483015291519293509083169163f637731d9160248082019260009290919082900301818387803b1580156103c457600080fd5b505af11580156103d8573d6000803e3d6000fd5b505050506104c2565b6000816001600160a01b0316633850c7bd6040518163ffffffff1660e01b815260040160e06040518083038186803b15801561041c57600080fd5b505afa158015610430573d6000803e3d6000fd5b505050506040513d60e081101561044657600080fd5b505190506001600160a01b0381166104c057816001600160a01b031663f637731d846040518263ffffffff1660e01b815260040180826001600160a01b03168152602001915050600060405180830381600087803b1580156104a757600080fd5b505af11580156104bb573d6000803e3d6000fd5b505050505b505b949350505050565b604080516323f2ebc360e21b815233600482015230602482015260448101879052606481018690526001608482015260ff851660a482015260c4810184905260e4810183905290516001600160a01b03881691638fcbaf0c9161010480830192600092919082900301818387803b15801561054457600080fd5b505af1158015610558573d6000803e3d6000fd5b50505050505050505050565b7f000000000000000000000000000000000000000000000000000000000000000081565b60408051636eb1769f60e11b81523360048201523060248201529051600019916001600160a01b0389169163dd62ed3e91604480820192602092909190829003018186803b1580156105d957600080fd5b505afa1580156105ed573d6000803e3d6000fd5b505050506040513d602081101561060357600080fd5b50511015610619576106198686868686866104ca565b505050505050565b6060816001600160401b038111801561063957600080fd5b5060405190808252806020026020018201604052801561066d57816020015b60608152602001906001900390816106585790505b50905060005b82811015610759576000803086868581811061068b57fe5b905060200281019061069d919061174e565b6040516106ab92919061155d565b600060405180830381855af49150503d80600081146106e6576040519150601f19603f3d011682016040523d82523d6000602084013e6106eb565b606091505b5091509150816107375760448151101561070457600080fd5b6004810190508080602001905181019061071e91906113c6565b60405162461bcd60e51b81526004016100d29190611605565b8084848151811061074457fe5b60209081029190910101525050600101610673565b5092915050565b7f000000000000000000000000000000000000000000000000000000000000000081565b60408051636eb1769f60e11b8152336004820152306024820152905186916001600160a01b0389169163dd62ed3e91604480820192602092909190829003018186803b1580156107d357600080fd5b505afa1580156107e7573d6000803e3d6000fd5b505050506040513d60208110156107fd57600080fd5b5051101561061957610619868686868686610ea3565b7f000000000000000000000000000000000000000000000000000000000000000081565b600061084960608301604084016114fa565b60ff16116108695760405162461bcd60e51b81526004016100d290611618565b606461087b60608301604084016114fa565b60ff16111561089c5760405162461bcd60e51b81526004016100d290611669565b6108a9602082018261122a565b6001600160a01b03166323b872dd336108c5602085018561122a565b84602001356040518463ffffffff1660e01b81526004016108e893929190611581565b602060405180830381600087803b15801561090257600080fd5b505af1158015610916573d6000803e3d6000fd5b505050506040513d601f19601f8201168201806040525081019061093a9190611389565b5060008061094b602084018461122a565b6001600160a01b03166389afcb44306040518263ffffffff1660e01b8152600401610976919061156d565b6040805180830381600087803b15801561098f57600080fd5b505af11580156109a3573d6000803e3d6000fd5b505050506040513d601f19601f820116820180604052508101906109c791906114d7565b9092509050600060646109ed6109e360608701604088016114fa565b859060ff16610f15565b816109f457fe5b04905060006064610a0e6109e360608801604089016114fa565b81610a1557fe5b049050610a52610a2b608087016060880161122a565b7f000000000000000000000000000000000000000000000000000000000000000084610f3f565b610a8c610a6560a087016080880161122a565b7f000000000000000000000000000000000000000000000000000000000000000083610f3f565b6000807f00000000000000000000000000000000000000000000000000000000000000006001600160a01b031663883164566040518061016001604052808a6060016020810190610add919061122a565b6001600160a01b03168152602001610afb60a08c0160808d0161122a565b6001600160a01b03168152602001610b1960c08c0160a08d01611474565b62ffffff168152602001610b3360e08c0160c08d016113a5565b60020b8152602001610b4c6101008c0160e08d016113a5565b60020b815260208101889052604081018790526101008b013560608201526101208b0135608082015260a001610b8a6101608c016101408d0161122a565b6001600160a01b031681526020018a61016001358152506040518263ffffffff1660e01b8152600401610bbd9190611697565b608060405180830381600087803b158015610bd757600080fd5b505af1158015610beb573d6000803e3d6000fd5b505050506040513d601f19601f82011682018060405250810190610c0f919061148e565b93509350505085821015610d6f5783821015610c6057610c60610c386080890160608a0161122a565b7f00000000000000000000000000000000000000000000000000000000000000006000610f3f565b818603610c756101a089016101808a0161136d565b8015610cc157506001600160a01b037f000000000000000000000000000000000000000000000000000000000000000016610cb660808a0160608b0161122a565b6001600160a01b0316145b15610d5357604051632e1a7d4d60e01b81526001600160a01b037f00000000000000000000000000000000000000000000000000000000000000001690632e1a7d4d90610d12908490600401611745565b600060405180830381600087803b158015610d2c57600080fd5b505af1158015610d40573d6000803e3d6000fd5b50505050610d4e338261108e565b610d6d565b610d6d610d6660808a0160608b0161122a565b3383611186565b505b84811015610e9a5782811015610d9257610d92610c3860a0890160808a0161122a565b808503610da76101a089016101808a0161136d565b8015610df357506001600160a01b037f000000000000000000000000000000000000000000000000000000000000000016610de860a08a0160808b0161122a565b6001600160a01b0316145b15610e8557604051632e1a7d4d60e01b81526001600160a01b037f00000000000000000000000000000000000000000000000000000000000000001690632e1a7d4d90610e44908490600401611745565b600060405180830381600087803b158015610e5e57600080fd5b505af1158015610e72573d6000803e3d6000fd5b50505050610e80338261108e565b610e98565b610e98610d6660a08a0160808b0161122a565b505b50505050505050565b6040805163d505accf60e01b8152336004820152306024820152604481018790526064810186905260ff8516608482015260a4810184905260c4810183905290516001600160a01b0388169163d505accf9160e480830192600092919082900301818387803b15801561054457600080fd5b6000821580610f3057505081810281838281610f2d57fe5b04145b610f3957600080fd5b92915050565b604080516001600160a01b038481166024830152604480830185905283518084039091018152606490920183526020820180516001600160e01b031663095ea7b360e01b1781529251825160009485949389169392918291908083835b60208310610fbb5780518252601f199092019160209182019101610f9c565b6001836020036101000a0380198251168184511680821785525050505050509050019150506000604051808303816000865af19150503d806000811461101d576040519150601f19603f3d011682016040523d82523d6000602084013e611022565b606091505b5091509150818015611050575080511580611050575080806020019051602081101561104d57600080fd5b50515b611087576040805162461bcd60e51b8152602060048201526003602482015262393a3360e91b604482015290519081900360640190fd5b5050505050565b604080516000808252602082019092526001600160a01b0384169083906040518082805190602001908083835b602083106110da5780518252601f1990920191602091820191016110bb565b6001836020036101000a03801982511681845116808217855250505050505090500191505060006040518083038185875af1925050503d806000811461113c576040519150601f19603f3d011682016040523d82523d6000602084013e611141565b606091505b50509050806111815760405162461bcd60e51b81526004018080602001828103825260348152602001806117f06034913960400191505060405180910390fd5b505050565b604080516001600160a01b038481166024830152604480830185905283518084039091018152606490920183526020820180516001600160e01b031663a9059cbb60e01b17815292518251600094859493891693929182919080838360208310610fbb5780518252601f199092019160209182019101610f9c565b803562ffffff8116811461121457600080fd5b919050565b803560ff8116811461121457600080fd5b60006020828403121561123b578081fd5b8135611246816117c9565b9392505050565b60008060008060808587031215611262578283fd5b843561126d816117c9565b9350602085013561127d816117c9565b925061128b60408601611201565b9150606085013561129b816117c9565b939692955090935050565b60008060008060008060c087890312156112be578182fd5b86356112c9816117c9565b955060208701359450604087013593506112e560608801611219565b92506080870135915060a087013590509295509295509295565b60008060208385031215611311578182fd5b82356001600160401b0380821115611327578384fd5b818501915085601f83011261133a578384fd5b813581811115611348578485fd5b866020808302850101111561135b578485fd5b60209290920196919550909350505050565b60006020828403121561137e578081fd5b8135611246816117e1565b60006020828403121561139a578081fd5b8151611246816117e1565b6000602082840312156113b6578081fd5b81358060020b8114611246578182fd5b6000602082840312156113d7578081fd5b81516001600160401b03808211156113ed578283fd5b818401915084601f830112611400578283fd5b81518181111561140c57fe5b604051601f8201601f19168101602001838111828210171561142a57fe5b604052818152838201602001871015611441578485fd5b611452826020830160208701611799565b9695505050505050565b60006101a0828403121561146e578081fd5b50919050565b600060208284031215611485578081fd5b61124682611201565b600080600080608085870312156114a3578384fd5b845160208601519094506001600160801b03811681146114c1578384fd5b6040860151606090960151949790965092505050565b600080604083850312156114e9578182fd5b505080516020909101519092909150565b60006020828403121561150b578081fd5b61124682611219565b6001600160a01b03169052565b60008151808452611539816020860160208601611799565b601f01601f19169290920160200192915050565b60020b9052565b62ffffff169052565b6000828483379101908152919050565b6001600160a01b0391909116815260200190565b6001600160a01b039384168152919092166020820152604081019190915260600190565b6000602080830181845280855180835260408601915060408482028701019250838701855b828110156115f857603f198886030184526115e6858351611521565b945092850192908501906001016115ca565b5092979650505050505050565b6000602082526112466020830184611521565b60208082526014908201527314195c98d95b9d1859d9481d1bdbc81cdb585b1b60621b604082015260600190565b6020808252600990820152684e6f7420574554483960b81b604082015260600190565b60208082526014908201527350657263656e7461676520746f6f206c6172676560601b604082015260600190565b6000610160820190506116ab828451611514565b60208301516116bd6020840182611514565b5060408301516116d06040840182611554565b5060608301516116e3606084018261154d565b5060808301516116f6608084018261154d565b5060a083015160a083015260c083015160c083015260e083015160e08301526101008084015181840152506101208084015161173482850182611514565b505061014092830151919092015290565b90815260200190565b6000808335601e19843603018112611764578283fd5b8301803591506001600160401b0382111561177d578283fd5b60200191503681900382131561179257600080fd5b9250929050565b60005b838110156117b457818101518382015260200161179c565b838111156117c3576000848401525b50505050565b6001600160a01b03811681146117de57600080fd5b50565b80151581146117de57600080fdfe5472616e7366657248656c7065723a3a736166655472616e736665724554483a20455448207472616e73666572206661696c6564a2646970667358221220b0f2aec978602ee129d397592097a854a1e4b6c912a917ffaa1a82af18e6463464736f6c63430007060033",
  "immutableReferences": {
    "4900": [
      {
        "length": 32,
        "start": 1890
      },
      {
        "length": 32,
        "start": 2605
      },
      {
        "length": 32,
        "start": 2663
      },
      {
        "length": 32,
        "start": 2705
      },
      {
        "length": 32,
        "start": 3130
      }
    ],
    "7440": [
      {
        "length": 32,
        "start": 504
      },
      {
        "length": 32,
        "start": 703
      },
      {
        "length": 32,
        "start": 2069
      }
    ],
    "7444": [
      {
        "length": 32,
        "start": 149
      },
      {
        "length": 32,
        "start": 1382
      },
      {
        "length": 32,
        "start": 3206
      },
      {
        "length": 32,
        "start": 3293
      },
      {
        "length": 32,
        "start": 3512
      },
      {
        "length": 32,
        "start": 3599
      }
    ]
  },
  "source": "// SPDX-License-Identifier: GPL-2.0-or-later\npragma solidity >=0.7.6;\npragma abicoder v2;\n\nimport './libraries/LowGasSafeMath.sol';\nimport './interfaces/IUniswapV2Pair.sol';\n\nimport './interfaces/INonfungiblePositionManager.sol';\n\nimport './libraries/TransferHelper.sol';\n\nimport './interfaces/IV3Migrator.sol';\nimport './base/PeripheryImmutableState.sol';\nimport './base/Multicall.sol';\nimport './base/SelfPermit.sol';\nimport './interfaces/external/IWETH9.sol';\nimport './base/PoolInitializer.sol';\n\n/// @title Uniswap V3 Migrator\ncontract V3Migrator is IV3Migrator, PeripheryImmutableState, PoolInitializer, Multicall, SelfPermit {\n    using LowGasSafeMath for uint256;\n\n    address public immutable nonfungiblePositionManager;\n\n    constructor(\n        address _factory,\n        address _WETH9,\n        address _nonfungiblePositionManager\n    ) PeripheryImmutableState(_factory, _WETH9) {\n        nonfungiblePositionManager = _nonfungiblePositionManager;\n    }\n\n    receive() external payable {\n        require(msg.sender == WETH9, 'Not WETH9');\n    }\n\n    function migrate(MigrateParams calldata params) external override {\n        require(params.percentageToMigrate > 0, 'Percentage too small');\n        require(params.percentageToMigrate <= 100, 'Percentage too large');\n\n        // burn v2 liquidity to this address\n        IUniswapV2Pair(params.pair).transferFrom(msg.sender, params.pair, params.liquidityToMigrate);\n        (uint256 amount0V2, uint256 amount1V2) = IUniswapV2Pair(params.pair).burn(address(this));\n\n        // calculate the amounts to migrate to v3\n        uint256 amount0V2ToMigrate = amount0V2.mul(params.percentageToMigrate) / 100;\n        uint256 amount1V2ToMigrate = amount1V2.mul(params.percentageToMigrate) / 100;\n\n        // approve the position manager up to the maximum token amounts\n        TransferHelper.safeApprove(params.token0, nonfungiblePositionManager, amount0V2ToMigrate);\n        TransferHelper.safeApprove(params.token1, nonfungiblePositionManager, amount1V2ToMigrate);\n\n        // mint v3 position\n        (, , uint256 amount0V3, uint256 amount1V3) =\n            INonfungiblePositionManager(nonfungiblePositionManager).mint(\n                INonfungiblePositionManager.MintParams({\n                    token0: params.token0,\n                    token1: params.token1,\n                    fee: params.fee,\n                    tickLower: params.tickLower,\n                    tickUpper: params.tickUpper,\n                    amount0Desired: amount0V2ToMigrate,\n                    amount1Desired: amount1V2ToMigrate,\n                    amount0Min: params.amount0Min,\n                    amount1Min: params.amount1Min,\n                    recipient: params.recipient,\n                    deadline: params.deadline\n                })\n            );\n\n        // if necessary, clear allowance and refund dust\n        if (amount0V3 < amount0V2) {\n            if (amount0V3 < amount0V2ToMigrate) {\n                TransferHelper.safeApprove(params.token0, nonfungiblePositionManager, 0);\n            }\n\n            uint256 refund0 = amount0V2 - amount0V3;\n            if (params.refundAsETH && params.token0 == WETH9) {\n                IWETH9(WETH9).withdraw(refund0);\n                TransferHelper.safeTransferETH(msg.sender, refund0);\n            } else {\n                TransferHelper.safeTransfer(params.token0, msg.sender, refund0);\n            }\n        }\n        if (amount1V3 < amount1V2) {\n            if (amount1V3 < amount1V2ToMigrate) {\n                TransferHelper.safeApprove(params.token1, nonfungiblePositionManager, 0);\n            }\n\n            uint256 refund1 = amount1V2 - amount1V3;\n            if (params.refundAsETH && params.token1 == WETH9) {\n                IWETH9(WETH9).withdraw(refund1);\n                TransferHelper.safeTransferETH(msg.sender, refund1);\n            } else {\n                TransferHelper.safeTransfer(params.token1, msg.sender, refund1);\n            }\n        }\n    }\n}\n",
  "sourcePath": "/home/gtbc/blockchain/ethereum/uniswap/smart-router-ctr/contracts/V3Migrator.sol",
  "compiler": {
    "name": "solc",
    "version": "0.7.6+commit.7338295f.Emscripten.clang"
  },
  "schemaVersion": "3.4.10",
  "updatedAt": "2023-07-05T17:57:59.640Z",
  "devdoc": {
    "kind": "dev",
    "methods": {
      "createAndInitializePoolIfNecessary(address,address,uint24,uint160)": {
        "details": "This method can be bundled with others via IMulticall for the first action (e.g. mint) performed against a pool",
        "params": {
          "fee": "The fee amount of the v3 pool for the specified token pair",
          "sqrtPriceX96": "The initial square root price of the pool as a Q64.96 value",
          "token0": "The contract address of token0 of the pool",
          "token1": "The contract address of token1 of the pool"
        },
        "returns": {
          "pool": "Returns the pool address based on the pair of tokens and fee, will return the newly created pool address if necessary"
        }
      },
      "migrate((address,uint256,uint8,address,address,uint24,int24,int24,uint256,uint256,address,uint256,bool))": {
        "details": "Slippage protection is enforced via `amount{0,1}Min`, which should be a discount of the expected values of the maximum amount of v3 liquidity that the v2 liquidity can get. For the special case of migrating to an out-of-range position, `amount{0,1}Min` may be set to 0, enforcing that the position remains out of range",
        "params": {
          "params": "The params necessary to migrate v2 liquidity, encoded as `MigrateParams` in calldata"
        }
      },
      "multicall(bytes[])": {
        "details": "The `msg.value` should not be trusted for any method callable from multicall.",
        "params": {
          "data": "The encoded function data for each of the calls to make to this contract"
        },
        "returns": {
          "results": "The results from each of the calls passed in via data"
        }
      },
      "selfPermit(address,uint256,uint256,uint8,bytes32,bytes32)": {
        "details": "The `owner` is always msg.sender and the `spender` is always address(this).",
        "params": {
          "deadline": "A timestamp, the current blocktime must be less than or equal to this timestamp",
          "r": "Must produce valid secp256k1 signature from the holder along with `v` and `s`",
          "s": "Must produce valid secp256k1 signature from the holder along with `r` and `v`",
          "token": "The address of the token spent",
          "v": "Must produce valid secp256k1 signature from the holder along with `r` and `s`",
          "value": "The amount that can be spent of token"
        }
      },
      "selfPermitAllowed(address,uint256,uint256,uint8,bytes32,bytes32)": {
        "details": "The `owner` is always msg.sender and the `spender` is always address(this)",
        "params": {
          "expiry": "The timestamp at which the permit is no longer valid",
          "nonce": "The current nonce of the owner",
          "r": "Must produce valid secp256k1 signature from the holder along with `v` and `s`",
          "s": "Must produce valid secp256k1 signature from the holder along with `r` and `v`",
          "token": "The address of the token spent",
          "v": "Must produce valid secp256k1 signature from the holder along with `r` and `s`"
        }
      },
      "selfPermitAllowedIfNecessary(address,uint256,uint256,uint8,bytes32,bytes32)": {
        "details": "The `owner` is always msg.sender and the `spender` is always address(this) Can be used instead of #selfPermitAllowed to prevent calls from failing due to a frontrun of a call to #selfPermitAllowed.",
        "params": {
          "expiry": "The timestamp at which the permit is no longer valid",
          "nonce": "The current nonce of the owner",
          "r": "Must produce valid secp256k1 signature from the holder along with `v` and `s`",
          "s": "Must produce valid secp256k1 signature from the holder along with `r` and `v`",
          "token": "The address of the token spent",
          "v": "Must produce valid secp256k1 signature from the holder along with `r` and `s`"
        }
      },
      "selfPermitIfNecessary(address,uint256,uint256,uint8,bytes32,bytes32)": {
        "details": "The `owner` is always msg.sender and the `spender` is always address(this). Can be used instead of #selfPermit to prevent calls from failing due to a frontrun of a call to #selfPermit",
        "params": {
          "deadline": "A timestamp, the current blocktime must be less than or equal to this timestamp",
          "r": "Must produce valid secp256k1 signature from the holder along with `v` and `s`",
          "s": "Must produce valid secp256k1 signature from the holder along with `r` and `v`",
          "token": "The address of the token spent",
          "v": "Must produce valid secp256k1 signature from the holder along with `r` and `s`",
          "value": "The amount that can be spent of token"
        }
      }
    },
    "title": "Uniswap V3 Migrator",
    "version": 1
  },
  "userdoc": {
    "kind": "user",
    "methods": {
      "createAndInitializePoolIfNecessary(address,address,uint24,uint160)": {
        "notice": "Creates a new pool if it does not exist, then initializes if not initialized"
      },
      "migrate((address,uint256,uint8,address,address,uint24,int24,int24,uint256,uint256,address,uint256,bool))": {
        "notice": "Migrates liquidity to v3 by burning v2 liquidity and minting a new position for v3"
      },
      "multicall(bytes[])": {
        "notice": "Call multiple functions in the current contract and return the data from all of them if they all succeed"
      },
      "selfPermit(address,uint256,uint256,uint8,bytes32,bytes32)": {
        "notice": "Permits this contract to spend a given token from `msg.sender`"
      },
      "selfPermitAllowed(address,uint256,uint256,uint8,bytes32,bytes32)": {
        "notice": "Permits this contract to spend the sender's tokens for permit signatures that have the `allowed` parameter"
      },
      "selfPermitAllowedIfNecessary(address,uint256,uint256,uint8,bytes32,bytes32)": {
        "notice": "Permits this contract to spend the sender's tokens for permit signatures that have the `allowed` parameter"
      },
      "selfPermitIfNecessary(address,uint256,uint256,uint8,bytes32,bytes32)": {
        "notice": "Permits this contract to spend a given token from `msg.sender`"
      }
    },
    "version": 1
  }
}