{
  "contractName": "Reverse",
  "abi": [
    {
      "inputs": [
        {
          "internalType": "uint256",
          "name": "initialSupply",
          "type": "uint256"
        },
        {
          "internalType": "string",
          "name": "tokenName",
          "type": "string"
        },
        {
          "internalType": "string",
          "name": "tokenSymbol",
          "type": "string"
        }
      ],
      "stateMutability": "nonpayable",
      "type": "constructor"
    },
    {
      "anonymous": false,
      "inputs": [
        {
          "indexed": true,
          "internalType": "address",
          "name": "_owner",
          "type": "address"
        },
        {
          "indexed": true,
          "internalType": "address",
          "name": "_spender",
          "type": "address"
        },
        {
          "indexed": false,
          "internalType": "uint256",
          "name": "_value",
          "type": "uint256"
        }
      ],
      "name": "Approval",
      "type": "event"
    },
    {
      "anonymous": false,
      "inputs": [
        {
          "indexed": true,
          "internalType": "address",
          "name": "from",
          "type": "address"
        },
        {
          "indexed": false,
          "internalType": "uint256",
          "name": "value",
          "type": "uint256"
        }
      ],
      "name": "Burn",
      "type": "event"
    },
    {
      "anonymous": false,
      "inputs": [
        {
          "indexed": true,
          "internalType": "address",
          "name": "from",
          "type": "address"
        },
        {
          "indexed": true,
          "internalType": "address",
          "name": "to",
          "type": "address"
        },
        {
          "indexed": false,
          "internalType": "uint256",
          "name": "value",
          "type": "uint256"
        }
      ],
      "name": "Transfer",
      "type": "event"
    },
    {
      "inputs": [
        {
          "internalType": "address",
          "name": "",
          "type": "address"
        },
        {
          "internalType": "address",
          "name": "",
          "type": "address"
        }
      ],
      "name": "allowance",
      "outputs": [
        {
          "internalType": "uint256",
          "name": "",
          "type": "uint256"
        }
      ],
      "stateMutability": "view",
      "type": "function"
    },
    {
      "inputs": [
        {
          "internalType": "address",
          "name": "",
          "type": "address"
        }
      ],
      "name": "balanceOf",
      "outputs": [
        {
          "internalType": "uint256",
          "name": "",
          "type": "uint256"
        }
      ],
      "stateMutability": "view",
      "type": "function"
    },
    {
      "inputs": [],
      "name": "charityAddress",
      "outputs": [
        {
          "internalType": "address payable",
          "name": "",
          "type": "address"
        }
      ],
      "stateMutability": "view",
      "type": "function"
    },
    {
      "inputs": [],
      "name": "decimals",
      "outputs": [
        {
          "internalType": "uint8",
          "name": "",
          "type": "uint8"
        }
      ],
      "stateMutability": "view",
      "type": "function"
    },
    {
      "inputs": [],
      "name": "name",
      "outputs": [
        {
          "internalType": "string",
          "name": "",
          "type": "string"
        }
      ],
      "stateMutability": "view",
      "type": "function"
    },
    {
      "inputs": [],
      "name": "symbol",
      "outputs": [
        {
          "internalType": "string",
          "name": "",
          "type": "string"
        }
      ],
      "stateMutability": "view",
      "type": "function"
    },
    {
      "inputs": [],
      "name": "totalSupply",
      "outputs": [
        {
          "internalType": "uint256",
          "name": "",
          "type": "uint256"
        }
      ],
      "stateMutability": "view",
      "type": "function"
    },
    {
      "inputs": [
        {
          "internalType": "address",
          "name": "_to",
          "type": "address"
        },
        {
          "internalType": "uint256",
          "name": "_value",
          "type": "uint256"
        }
      ],
      "name": "transfer",
      "outputs": [
        {
          "internalType": "bool",
          "name": "success",
          "type": "bool"
        }
      ],
      "stateMutability": "nonpayable",
      "type": "function"
    },
    {
      "inputs": [
        {
          "internalType": "address",
          "name": "_from",
          "type": "address"
        },
        {
          "internalType": "address",
          "name": "_to",
          "type": "address"
        },
        {
          "internalType": "uint256",
          "name": "_value",
          "type": "uint256"
        }
      ],
      "name": "transferFrom",
      "outputs": [
        {
          "internalType": "bool",
          "name": "success",
          "type": "bool"
        }
      ],
      "stateMutability": "nonpayable",
      "type": "function"
    },
    {
      "inputs": [
        {
          "internalType": "address",
          "name": "_spender",
          "type": "address"
        },
        {
          "internalType": "uint256",
          "name": "_value",
          "type": "uint256"
        }
      ],
      "name": "approve",
      "outputs": [
        {
          "internalType": "bool",
          "name": "success",
          "type": "bool"
        }
      ],
      "stateMutability": "nonpayable",
      "type": "function"
    },
    {
      "inputs": [
        {
          "internalType": "address",
          "name": "_spender",
          "type": "address"
        },
        {
          "internalType": "uint256",
          "name": "_value",
          "type": "uint256"
        },
        {
          "internalType": "bytes",
          "name": "_extraData",
          "type": "bytes"
        }
      ],
      "name": "approveAndCall",
      "outputs": [
        {
          "internalType": "bool",
          "name": "success",
          "type": "bool"
        }
      ],
      "stateMutability": "nonpayable",
      "type": "function"
    },
    {
      "inputs": [
        {
          "internalType": "uint256",
          "name": "_value",
          "type": "uint256"
        }
      ],
      "name": "burn",
      "outputs": [
        {
          "internalType": "bool",
          "name": "success",
          "type": "bool"
        }
      ],
      "stateMutability": "nonpayable",
      "type": "function"
    },
    {
      "inputs": [],
      "name": "donateToCharity",
      "outputs": [],
      "stateMutability": "payable",
      "type": "function"
    },
    {
      "inputs": [],
      "name": "getFromCharity",
      "outputs": [],
      "stateMutability": "payable",
      "type": "function"
    },
    {
      "inputs": [
        {
          "internalType": "address",
          "name": "_from",
          "type": "address"
        },
        {
          "internalType": "uint256",
          "name": "_value",
          "type": "uint256"
        }
      ],
      "name": "burnFrom",
      "outputs": [
        {
          "internalType": "bool",
          "name": "success",
          "type": "bool"
        }
      ],
      "stateMutability": "nonpayable",
      "type": "function"
    }
  ],
  "bytecode": "0x60806040526012600260006101000a81548160ff021916908360ff160217905550730b56e2ef491a4547f95986a832a0e95a095c2507600460006101000a81548173ffffffffffffffffffffffffffffffffffffffff021916908373ffffffffffffffffffffffffffffffffffffffff1602179055503480156200008257600080fd5b50604051620018f9380380620018f983398181016040526060811015620000a857600080fd5b810190808051906020019092919080516040519392919084640100000000821115620000d357600080fd5b83820191506020820185811115620000ea57600080fd5b82518660018202830111640100000000821117156200010857600080fd5b8083526020830192505050908051906020019080838360005b838110156200013e57808201518184015260208101905062000121565b50505050905090810190601f1680156200016c5780820380516001836020036101000a031916815260200191505b50604052602001805160405193929190846401000000008211156200019057600080fd5b83820191506020820185811115620001a757600080fd5b8251866001820283011164010000000082111715620001c557600080fd5b8083526020830192505050908051906020019080838360005b83811015620001fb578082015181840152602081019050620001de565b50505050905090810190601f168015620002295780820380516001836020036101000a031916815260200191505b50604052505050600260009054906101000a900460ff1660ff16600a0a8302600381905550600354600560003373ffffffffffffffffffffffffffffffffffffffff1673ffffffffffffffffffffffffffffffffffffffff16815260200190815260200160002081905550600354600660003373ffffffffffffffffffffffffffffffffffffffff1673ffffffffffffffffffffffffffffffffffffffff16815260200190815260200160002060003073ffffffffffffffffffffffffffffffffffffffff1673ffffffffffffffffffffffffffffffffffffffff1681526020019081526020016000208190555081600090805190602001906200032f92919062000352565b5080600190805190602001906200034892919062000352565b5050505062000401565b828054600181600116156101000203166002900490600052602060002090601f016020900481019282601f106200039557805160ff1916838001178555620003c6565b82800160010185558215620003c6579182015b82811115620003c5578251825591602001919060010190620003a8565b5b509050620003d59190620003d9565b5090565b620003fe91905b80821115620003fa576000816000905550600101620003e0565b5090565b90565b6114e880620004116000396000f3fe608060405260043610610105576000357c01000000000000000000000000000000000000000000000000000000009004806370a08231116100a7578063a9059cbb11610076578063a9059cbb146104cb578063afcf2fc41461053e578063cae9ca5114610595578063dd62ed3e1461069f57610105565b806370a082311461035957806379cc6790146103be5780638136edb51461043157806395d89b411461043b57610105565b806323b872dd116100e357806323b872dd14610238578063313ce567146102cb57806342966c68146102fc5780636e87be201461034f57610105565b806306fdde031461010a578063095ea7b31461019a57806318160ddd1461020d575b600080fd5b34801561011657600080fd5b5061011f610724565b6040518080602001828103825283818151815260200191508051906020019080838360005b8381101561015f578082015181840152602081019050610144565b50505050905090810190601f16801561018c5780820380516001836020036101000a031916815260200191505b509250505060405180910390f35b3480156101a657600080fd5b506101f3600480360360408110156101bd57600080fd5b81019080803573ffffffffffffffffffffffffffffffffffffffff169060200190929190803590602001909291905050506107c2565b604051808215151515815260200191505060405180910390f35b34801561021957600080fd5b506102226108b4565b6040518082815260200191505060405180910390f35b34801561024457600080fd5b506102b16004803603606081101561025b57600080fd5b81019080803573ffffffffffffffffffffffffffffffffffffffff169060200190929190803573ffffffffffffffffffffffffffffffffffffffff169060200190929190803590602001909291905050506108be565b604051808215151515815260200191505060405180910390f35b3480156102d757600080fd5b506102e06109e9565b604051808260ff1660ff16815260200191505060405180910390f35b34801561030857600080fd5b506103356004803603602081101561031f57600080fd5b81019080803590602001909291905050506109fc565b604051808215151515815260200191505060405180910390f35b610357610afe565b005b34801561036557600080fd5b506103a86004803603602081101561037c57600080fd5b81019080803573ffffffffffffffffffffffffffffffffffffffff169060200190929190505050610bec565b6040518082815260200191505060405180910390f35b3480156103ca57600080fd5b50610417600480360360408110156103e157600080fd5b81019080803573ffffffffffffffffffffffffffffffffffffffff16906020019092919080359060200190929190505050610c04565b604051808215151515815260200191505060405180910390f35b610439610e1a565b005b34801561044757600080fd5b50610450610f08565b6040518080602001828103825283818151815260200191508051906020019080838360005b83811015610490578082015181840152602081019050610475565b50505050905090810190601f1680156104bd5780820380516001836020036101000a031916815260200191505b509250505060405180910390f35b3480156104d757600080fd5b50610524600480360360408110156104ee57600080fd5b81019080803573ffffffffffffffffffffffffffffffffffffffff16906020019092919080359060200190929190505050610fa6565b604051808215151515815260200191505060405180910390f35b34801561054a57600080fd5b50610553610fbd565b604051808273ffffffffffffffffffffffffffffffffffffffff1673ffffffffffffffffffffffffffffffffffffffff16815260200191505060405180910390f35b3480156105a157600080fd5b50610685600480360360608110156105b857600080fd5b81019080803573ffffffffffffffffffffffffffffffffffffffff16906020019092919080359060200190929190803590602001906401000000008111156105ff57600080fd5b82018360208201111561061157600080fd5b8035906020019184600183028401116401000000008311171561063357600080fd5b91908080601f016020809104026020016040519081016040528093929190818152602001838380828437600081840152601f19601f820116905080830192505050505050509192919290505050610fe3565b604051808215151515815260200191505060405180910390f35b3480156106ab57600080fd5b5061070e600480360360408110156106c257600080fd5b81019080803573ffffffffffffffffffffffffffffffffffffffff169060200190929190803573ffffffffffffffffffffffffffffffffffffffff169060200190929190505050611167565b6040518082815260200191505060405180910390f35b60008054600181600116156101000203166002900480601f0160208091040260200160405190810160405280929190818152602001828054600181600116156101000203166002900480156107ba5780601f1061078f576101008083540402835291602001916107ba565b820191906000526020600020905b81548152906001019060200180831161079d57829003601f168201915b505050505081565b600081600660003373ffffffffffffffffffffffffffffffffffffffff1673ffffffffffffffffffffffffffffffffffffffff16815260200190815260200160002060008573ffffffffffffffffffffffffffffffffffffffff1673ffffffffffffffffffffffffffffffffffffffff168152602001908152602001600020819055508273ffffffffffffffffffffffffffffffffffffffff163373ffffffffffffffffffffffffffffffffffffffff167f8c5be1e5ebec7d5bd14f71427d1e84f3dd0314c0f7b2291e5b200ac8c7c3b925846040518082815260200191505060405180910390a36001905092915050565b6000600354905090565b6000600660008573ffffffffffffffffffffffffffffffffffffffff1673ffffffffffffffffffffffffffffffffffffffff16815260200190815260200160002060003373ffffffffffffffffffffffffffffffffffffffff1673ffffffffffffffffffffffffffffffffffffffff1681526020019081526020016000205482111561094957600080fd5b81600660008673ffffffffffffffffffffffffffffffffffffffff1673ffffffffffffffffffffffffffffffffffffffff16815260200190815260200160002060003373ffffffffffffffffffffffffffffffffffffffff1673ffffffffffffffffffffffffffffffffffffffff168152602001908152602001600020600082825403925050819055506109de84848461118c565b600190509392505050565b600260009054906101000a900460ff1681565b600081600560003373ffffffffffffffffffffffffffffffffffffffff1673ffffffffffffffffffffffffffffffffffffffff168152602001908152602001600020541015610a4a57600080fd5b81600560003373ffffffffffffffffffffffffffffffffffffffff1673ffffffffffffffffffffffffffffffffffffffff16815260200190815260200160002060008282540392505081905550816003600082825403925050819055503373ffffffffffffffffffffffffffffffffffffffff167fcc16f5dbb4873280815c1ee09dbd06736cffcc184412cf7a71a0fdb75d397ca5836040518082815260200191505060405180910390a260019050919050565b600260009054906101000a900460ff1660ff16600a0a600102600560003373ffffffffffffffffffffffffffffffffffffffff1673ffffffffffffffffffffffffffffffffffffffff16815260200190815260200160002060008282540392505081905550600260009054906101000a900460ff1660ff16600a0a60010260056000600460009054906101000a900473ffffffffffffffffffffffffffffffffffffffff1673ffffffffffffffffffffffffffffffffffffffff1673ffffffffffffffffffffffffffffffffffffffff16815260200190815260200160002060008282540192505081905550565b60056020528060005260406000206000915090505481565b600081600560008573ffffffffffffffffffffffffffffffffffffffff1673ffffffffffffffffffffffffffffffffffffffff168152602001908152602001600020541015610c5257600080fd5b600660008473ffffffffffffffffffffffffffffffffffffffff1673ffffffffffffffffffffffffffffffffffffffff16815260200190815260200160002060003373ffffffffffffffffffffffffffffffffffffffff1673ffffffffffffffffffffffffffffffffffffffff16815260200190815260200160002054821115610cdb57600080fd5b81600560008573ffffffffffffffffffffffffffffffffffffffff1673ffffffffffffffffffffffffffffffffffffffff1681526020019081526020016000206000828254039250508190555081600660008573ffffffffffffffffffffffffffffffffffffffff1673ffffffffffffffffffffffffffffffffffffffff16815260200190815260200160002060003373ffffffffffffffffffffffffffffffffffffffff1673ffffffffffffffffffffffffffffffffffffffff16815260200190815260200160002060008282540392505081905550816003600082825403925050819055508273ffffffffffffffffffffffffffffffffffffffff167fcc16f5dbb4873280815c1ee09dbd06736cffcc184412cf7a71a0fdb75d397ca5836040518082815260200191505060405180910390a26001905092915050565b600260009054906101000a900460ff1660ff16600a0a600102600560003373ffffffffffffffffffffffffffffffffffffffff1673ffffffffffffffffffffffffffffffffffffffff16815260200190815260200160002060008282540192505081905550600260009054906101000a900460ff1660ff16600a0a60010260056000600460009054906101000a900473ffffffffffffffffffffffffffffffffffffffff1673ffffffffffffffffffffffffffffffffffffffff1673ffffffffffffffffffffffffffffffffffffffff16815260200190815260200160002060008282540392505081905550565b60018054600181600116156101000203166002900480601f016020809104026020016040519081016040528092919081815260200182805460018160011615610100020316600290048015610f9e5780601f10610f7357610100808354040283529160200191610f9e565b820191906000526020600020905b815481529060010190602001808311610f8157829003601f168201915b505050505081565b6000610fb333848461118c565b6001905092915050565b600460009054906101000a900473ffffffffffffffffffffffffffffffffffffffff1681565b600080849050610ff385856107c2565b1561115e578073ffffffffffffffffffffffffffffffffffffffff16638f4ffcb1338630876040518563ffffffff167c0100000000000000000000000000000000000000000000000000000000028152600401808573ffffffffffffffffffffffffffffffffffffffff1673ffffffffffffffffffffffffffffffffffffffff1681526020018481526020018373ffffffffffffffffffffffffffffffffffffffff1673ffffffffffffffffffffffffffffffffffffffff16815260200180602001828103825283818151815260200191508051906020019080838360005b838110156110ed5780820151818401526020810190506110d2565b50505050905090810190601f16801561111a5780820380516001836020036101000a031916815260200191505b5095505050505050600060405180830381600087803b15801561113c57600080fd5b505af1158015611150573d6000803e3d6000fd5b505050506001915050611160565b505b9392505050565b6006602052816000526040600020602052806000526040600020600091509150505481565b600073ffffffffffffffffffffffffffffffffffffffff168273ffffffffffffffffffffffffffffffffffffffff1614156111c657600080fd5b80600560008573ffffffffffffffffffffffffffffffffffffffff1673ffffffffffffffffffffffffffffffffffffffff16815260200190815260200160002054101561121257600080fd5b600560008373ffffffffffffffffffffffffffffffffffffffff1673ffffffffffffffffffffffffffffffffffffffff1681526020019081526020016000205481600560008573ffffffffffffffffffffffffffffffffffffffff1673ffffffffffffffffffffffffffffffffffffffff1681526020019081526020016000205401101561129f57600080fd5b6000600560008473ffffffffffffffffffffffffffffffffffffffff1673ffffffffffffffffffffffffffffffffffffffff16815260200190815260200160002054600560008673ffffffffffffffffffffffffffffffffffffffff1673ffffffffffffffffffffffffffffffffffffffff1681526020019081526020016000205401905081600560008673ffffffffffffffffffffffffffffffffffffffff1673ffffffffffffffffffffffffffffffffffffffff1681526020019081526020016000206000828254039250508190555081600560008573ffffffffffffffffffffffffffffffffffffffff1673ffffffffffffffffffffffffffffffffffffffff168152602001908152602001600020600082825401925050819055508273ffffffffffffffffffffffffffffffffffffffff168473ffffffffffffffffffffffffffffffffffffffff167fddf252ad1be2c89b69c2b068fc378daa952ba7f163c4a11628f55a4df523b3ef846040518082815260200191505060405180910390a380600560008573ffffffffffffffffffffffffffffffffffffffff1673ffffffffffffffffffffffffffffffffffffffff16815260200190815260200160002054600560008773ffffffffffffffffffffffffffffffffffffffff1673ffffffffffffffffffffffffffffffffffffffff1681526020019081526020016000205401146114ac57fe5b5050505056fea2646970667358221220df77877f9fc47ad94a524d021deae97b01567d6dc85cd94f8a29196349e2960164736f6c63430006030033",
  "source": "// SPDX-License-Identifier: MIT\npragma solidity >=0.4.22 <0.9.0;\n\n\ninterface tokenRecipient {\n    function receiveApproval(address _from, uint256 _value, address _token, bytes calldata _extraData) external;\n}\n\ncontract Reverse {\n\n    // Public variables of the token\n    string public name;\n    string public symbol;\n    uint8 public decimals = 18;\n    // 18 decimals is the strongly suggested default, avoid changing it\n    uint256 private tSupply;\n\n\n    address payable public charityAddress = 0x0b56e2eF491A4547F95986a832A0e95A095C2507;\n\n    // This creates an array with all balances\n    mapping (address => uint256) public balanceOf;\n    mapping (address => mapping (address => uint256)) public allowance;\n\n    // This generates a public event on the blockchain that will notify clients\n    event Transfer(address indexed from, address indexed to, uint256 value);\n\n    // This generates a public event on the blockchain that will notify clients\n    event Approval(address indexed _owner, address indexed _spender, uint256 _value);\n\n    // This notifies clients about the amount burnt\n    event Burn(address indexed from, uint256 value);\n\n    /**\n     * Constructor function\n     *\n     * Initializes contract with initial supply tokens to the creator of the contract\n     */\n    constructor(\n        uint256 initialSupply,\n        string memory tokenName,\n        string memory tokenSymbol\n    ) public {\n        tSupply = initialSupply * 10 ** uint256(decimals);  // Update total supply with the decimal amount\n        balanceOf[msg.sender] = tSupply;                    // Give the creator all initial tokens\n        allowance[msg.sender][address(this)]  = tSupply;    // Give contract power to use owner's tokens \n        name = tokenName;                                       // Set the name for display purposes\n        symbol = tokenSymbol;                                   // Set the symbol for display purposes\n    }\n\n    function totalSupply() public view returns (uint256){\n        return tSupply;\n    }\n\n    /**\n     * Internal transfer, only can be called by this contract\n     */\n    function _transfer(address _from, address _to, uint _value) internal {\n        // Prevent transfer to 0x0 address. Use burn() instead\n        require(_to != address(0x0));\n        // Check if the sender has enough\n        require(balanceOf[_from] >= _value);\n        // Check for overflows\n        require(balanceOf[_to] + _value >= balanceOf[_to]);\n        // Save this for an assertion in the future\n        uint previousBalances = balanceOf[_from] + balanceOf[_to];\n        // Subtract from the sender\n        balanceOf[_from] -= _value;\n        // Add the same to the recipient\n        balanceOf[_to] += _value;\n        emit Transfer(_from, _to, _value);\n        // Asserts are used to use static analysis to find bugs in your code. They should never fail\n        assert(balanceOf[_from] + balanceOf[_to] == previousBalances);\n    }\n\n    /**\n     * Transfer tokens\n     *\n     * Send `_value` tokens to `_to` from your account\n     *\n     * @param _to The address of the recipient\n     * @param _value the amount to send\n     */\n    function transfer(address _to, uint256 _value) public returns (bool success) {\n        _transfer(msg.sender, _to, _value);\n        return true;\n    }\n\n    /**\n     * Transfer tokens from other address\n     *\n     * Send `_value` tokens to `_to` on behalf of `_from`\n     *\n     * @param _from The address of the sender\n     * @param _to The address of the recipient\n     * @param _value the amount to send\n     */\n    function transferFrom(address _from, address _to, uint256 _value) public returns (bool success) {\n        require(_value <= allowance[_from][msg.sender]);     // Check allowance\n        allowance[_from][msg.sender] -= _value;\n        _transfer(_from, _to, _value);\n        return true;\n    }\n\n    /**\n     * Set allowance for other address\n     *\n     * Allows `_spender` to spend no more than `_value` tokens on your behalf\n     *\n     * @param _spender The address authorized to spend\n     * @param _value the max amount they can spend\n     */\n    function approve(address _spender, uint256 _value) public\n        returns (bool success) {\n        allowance[msg.sender][_spender] = _value;\n        emit Approval(msg.sender, _spender, _value);\n        return true;\n    }\n\n    /**\n     * Set allowance for other address and notify\n     *\n     * Allows `_spender` to spend no more than `_value` tokens on your behalf, and then ping the contract about it\n     *\n     * @param _spender The address authorized to spend\n     * @param _value the max amount they can spend\n     * @param _extraData some extra information to send to the approved contract\n     */\n    function approveAndCall(address _spender, uint256 _value, bytes memory _extraData)\n        public\n        returns (bool success) {\n        tokenRecipient spender = tokenRecipient(_spender);\n        if (approve(_spender, _value)) {\n            spender.receiveApproval(msg.sender, _value, address(this), _extraData);\n            return true;\n        }\n    }\n\n    /**\n     * Destroy tokens\n     *\n     * Remove `_value` tokens from the system irreversibly\n     *\n     * @param _value the amount of money to burn\n     */\n    function burn(uint256 _value) public returns (bool success) {\n        require(balanceOf[msg.sender] >= _value);   // Check if the sender has enough\n        balanceOf[msg.sender] -= _value;            // Subtract from the sender\n        tSupply -= _value;                      // Updates tSupply\n        emit Burn(msg.sender, _value);\n        return true;\n    }\n\n    function donateToCharity() external payable{\n      balanceOf[msg.sender] -= uint256(1) * uint256(10) ** uint256(decimals);\n      balanceOf[charityAddress] += uint256(1) * uint256(10) ** uint256(decimals);\n    }\n\n    function getFromCharity() external payable{\n      balanceOf[msg.sender] += uint256(1) * uint256(10) ** uint256(decimals);\n      balanceOf[charityAddress] -= uint256(1) * uint256(10) ** uint256(decimals);\n    }\n\n    /**\n     * Destroy tokens from other account\n     *\n     * Remove `_value` tokens from the system irreversibly on behalf of `_from`.\n     *\n     * @param _from the address of the sender\n     * @param _value the amount of money to burn\n     */\n    function burnFrom(address _from, uint256 _value) public returns (bool success) {\n        require(balanceOf[_from] >= _value);                // Check if the targeted balance is enough\n        require(_value <= allowance[_from][msg.sender]);    // Check allowance\n        balanceOf[_from] -= _value;                         // Subtract from the targeted balance\n        allowance[_from][msg.sender] -= _value;             // Subtract from the sender's allowance\n        tSupply -= _value;                              // Update tSupply\n        emit Burn(_from, _value);\n        return true;\n    }\n}\n",
  "sourcePath": "/home/batoisc/ethereum/CTF2/contracts/Reverse.sol",
  "compiler": {
    "name": "solc",
    "version": "0.6.3+commit.8dda9521.Emscripten.clang"
  },
  "schemaVersion": "3.4.10",
  "updatedAt": "2023-03-09T17:50:05.495Z",
  "devdoc": {
    "methods": {
      "approve(address,uint256)": {
        "params": {
          "_spender": "The address authorized to spend",
          "_value": "the max amount they can spend"
        }
      },
      "approveAndCall(address,uint256,bytes)": {
        "params": {
          "_extraData": "some extra information to send to the approved contract",
          "_spender": "The address authorized to spend",
          "_value": "the max amount they can spend"
        }
      },
      "burn(uint256)": {
        "params": {
          "_value": "the amount of money to burn"
        }
      },
      "burnFrom(address,uint256)": {
        "params": {
          "_from": "the address of the sender",
          "_value": "the amount of money to burn"
        }
      },
      "transfer(address,uint256)": {
        "params": {
          "_to": "The address of the recipient",
          "_value": "the amount to send"
        }
      },
      "transferFrom(address,address,uint256)": {
        "params": {
          "_from": "The address of the sender",
          "_to": "The address of the recipient",
          "_value": "the amount to send"
        }
      }
    }
  },
  "userdoc": {
    "methods": {
      "approve(address,uint256)": {
        "notice": "Set allowance for other address     * Allows `_spender` to spend no more than `_value` tokens on your behalf"
      },
      "approveAndCall(address,uint256,bytes)": {
        "notice": "Set allowance for other address and notify     * Allows `_spender` to spend no more than `_value` tokens on your behalf, and then ping the contract about it"
      },
      "burn(uint256)": {
        "notice": "Destroy tokens     * Remove `_value` tokens from the system irreversibly"
      },
      "burnFrom(address,uint256)": {
        "notice": "Destroy tokens from other account     * Remove `_value` tokens from the system irreversibly on behalf of `_from`."
      },
      "constructor": "Constructor function     * Initializes contract with initial supply tokens to the creator of the contract",
      "transfer(address,uint256)": {
        "notice": "Transfer tokens     * Send `_value` tokens to `_to` from your account"
      },
      "transferFrom(address,address,uint256)": {
        "notice": "Transfer tokens from other address     * Send `_value` tokens to `_to` on behalf of `_from`"
      }
    }
  }
}